{
  "contractName": "Contract",
  "abi": [
    {
      "inputs": [
        {
          "internalType": "uint256",
          "name": "",
          "type": "uint256"
        }
      ],
      "name": "governmentList",
      "outputs": [
        {
          "internalType": "address",
          "name": "",
          "type": "address"
        }
      ],
      "stateMutability": "view",
      "type": "function",
      "constant": true
    },
    {
      "inputs": [],
      "name": "governmentListIndex",
      "outputs": [
        {
          "internalType": "uint256",
          "name": "",
          "type": "uint256"
        }
      ],
      "stateMutability": "view",
      "type": "function",
      "constant": true
    },
    {
      "inputs": [
        {
          "internalType": "uint256",
          "name": "",
          "type": "uint256"
        }
      ],
      "name": "medicalCompanyList",
      "outputs": [
        {
          "internalType": "address",
          "name": "",
          "type": "address"
        }
      ],
      "stateMutability": "view",
      "type": "function",
      "constant": true
    },
    {
      "inputs": [],
      "name": "medicalCompanyListIndex",
      "outputs": [
        {
          "internalType": "uint256",
          "name": "",
          "type": "uint256"
        }
      ],
      "stateMutability": "view",
      "type": "function",
      "constant": true
    },
    {
      "inputs": [],
      "name": "patientListIndex",
      "outputs": [
        {
          "internalType": "uint256",
          "name": "",
          "type": "uint256"
        }
      ],
      "stateMutability": "view",
      "type": "function",
      "constant": true
    },
    {
      "inputs": [],
      "name": "reportIndex",
      "outputs": [
        {
          "internalType": "uint256",
          "name": "",
          "type": "uint256"
        }
      ],
      "stateMutability": "view",
      "type": "function",
      "constant": true
    },
    {
      "inputs": [
        {
          "internalType": "string",
          "name": "_name",
          "type": "string"
        },
        {
          "internalType": "string",
          "name": "_country",
          "type": "string"
        },
        {
          "internalType": "string",
          "name": "_phone",
          "type": "string"
        },
        {
          "internalType": "string",
          "name": "_email",
          "type": "string"
        },
        {
          "internalType": "string",
          "name": "_locationAddress",
          "type": "string"
        },
        {
          "internalType": "address",
          "name": "_addr",
          "type": "address"
        }
      ],
      "name": "addGovernment",
      "outputs": [],
      "stateMutability": "nonpayable",
      "type": "function"
    },
    {
      "inputs": [],
      "name": "getAllGovernmentAddresses",
      "outputs": [
        {
          "internalType": "address[]",
          "name": "",
          "type": "address[]"
        }
      ],
      "stateMutability": "view",
      "type": "function",
      "constant": true
    },
    {
      "inputs": [
        {
          "internalType": "uint256",
          "name": "_id",
          "type": "uint256"
        }
      ],
      "name": "getGovernmentById",
      "outputs": [
        {
          "internalType": "uint256",
          "name": "id",
          "type": "uint256"
        },
        {
          "internalType": "string",
          "name": "name",
          "type": "string"
        },
        {
          "internalType": "string",
          "name": "country",
          "type": "string"
        },
        {
          "internalType": "string",
          "name": "phone",
          "type": "string"
        },
        {
          "internalType": "string",
          "name": "email",
          "type": "string"
        },
        {
          "internalType": "string",
          "name": "locationAddress",
          "type": "string"
        },
        {
          "internalType": "address",
          "name": "addr",
          "type": "address"
        },
        {
          "internalType": "bool",
          "name": "isApproved",
          "type": "bool"
        }
      ],
      "stateMutability": "view",
      "type": "function",
      "constant": true
    },
    {
      "inputs": [
        {
          "internalType": "address",
          "name": "_address",
          "type": "address"
        }
      ],
      "name": "getGovernmentProfile",
      "outputs": [
        {
          "internalType": "uint256",
          "name": "id",
          "type": "uint256"
        },
        {
          "internalType": "string",
          "name": "name",
          "type": "string"
        },
        {
          "internalType": "string",
          "name": "country",
          "type": "string"
        },
        {
          "internalType": "string",
          "name": "phone",
          "type": "string"
        },
        {
          "internalType": "string",
          "name": "email",
          "type": "string"
        },
        {
          "internalType": "string",
          "name": "locationAddress",
          "type": "string"
        },
        {
          "internalType": "address",
          "name": "addr",
          "type": "address"
        },
        {
          "internalType": "bool",
          "name": "isApproved",
          "type": "bool"
        }
      ],
      "stateMutability": "view",
      "type": "function",
      "constant": true
    },
    {
      "inputs": [
        {
          "internalType": "address",
          "name": "_addr",
          "type": "address"
        },
        {
          "internalType": "uint256",
          "name": "_reportId",
          "type": "uint256"
        },
        {
          "internalType": "string",
          "name": "_actionPlanCreationDate",
          "type": "string"
        },
        {
          "internalType": "string",
          "name": "_actionPlanDescription",
          "type": "string"
        },
        {
          "internalType": "string",
          "name": "_clinicalOutcome",
          "type": "string"
        },
        {
          "internalType": "string",
          "name": "_contributingFactors",
          "type": "string"
        },
        {
          "internalType": "string",
          "name": "_suspectedMedication",
          "type": "string"
        },
        {
          "internalType": "string",
          "name": "_actionToTake",
          "type": "string"
        },
        {
          "internalType": "string",
          "name": "_medicalCompanyInvolved",
          "type": "string"
        },
        {
          "internalType": "string",
          "name": "_ipfsHash",
          "type": "string"
        }
      ],
      "name": "addGovernmentActionPlan",
      "outputs": [],
      "stateMutability": "nonpayable",
      "type": "function"
    },
    {
      "inputs": [
        {
          "internalType": "string",
          "name": "_companyName",
          "type": "string"
        },
        {
          "internalType": "string",
          "name": "_companyType",
          "type": "string"
        },
        {
          "internalType": "string",
          "name": "_phone",
          "type": "string"
        },
        {
          "internalType": "string",
          "name": "_email",
          "type": "string"
        },
        {
          "internalType": "string",
          "name": "_locationAddress",
          "type": "string"
        },
        {
          "internalType": "address",
          "name": "_addr",
          "type": "address"
        }
      ],
      "name": "addMedicalCompany",
      "outputs": [],
      "stateMutability": "nonpayable",
      "type": "function"
    },
    {
      "inputs": [],
      "name": "getAllMedicalCompanyAddresses",
      "outputs": [
        {
          "internalType": "address[]",
          "name": "",
          "type": "address[]"
        }
      ],
      "stateMutability": "view",
      "type": "function",
      "constant": true
    },
    {
      "inputs": [
        {
          "internalType": "uint256",
          "name": "_id",
          "type": "uint256"
        }
      ],
      "name": "getMedicalCompanyById",
      "outputs": [
        {
          "internalType": "uint256",
          "name": "id",
          "type": "uint256"
        },
        {
          "internalType": "string",
          "name": "companyName",
          "type": "string"
        },
        {
          "internalType": "string",
          "name": "companyType",
          "type": "string"
        },
        {
          "internalType": "string",
          "name": "phone",
          "type": "string"
        },
        {
          "internalType": "string",
          "name": "email",
          "type": "string"
        },
        {
          "internalType": "string",
          "name": "locationAddress",
          "type": "string"
        },
        {
          "internalType": "address",
          "name": "addr",
          "type": "address"
        },
        {
          "internalType": "bool",
          "name": "isApproved",
          "type": "bool"
        }
      ],
      "stateMutability": "view",
      "type": "function",
      "constant": true
    },
    {
      "inputs": [
        {
          "internalType": "address",
          "name": "_address",
          "type": "address"
        }
      ],
      "name": "getMedicalCompanyProfile",
      "outputs": [
        {
          "internalType": "uint256",
          "name": "id",
          "type": "uint256"
        },
        {
          "internalType": "string",
          "name": "companyName",
          "type": "string"
        },
        {
          "internalType": "string",
          "name": "companyType",
          "type": "string"
        },
        {
          "internalType": "string",
          "name": "phone",
          "type": "string"
        },
        {
          "internalType": "string",
          "name": "email",
          "type": "string"
        },
        {
          "internalType": "string",
          "name": "locationAddress",
          "type": "string"
        },
        {
          "internalType": "address",
          "name": "addr",
          "type": "address"
        },
        {
          "internalType": "bool",
          "name": "isApproved",
          "type": "bool"
        }
      ],
      "stateMutability": "view",
      "type": "function",
      "constant": true
    },
    {
      "inputs": [
        {
          "internalType": "address",
          "name": "_address",
          "type": "address"
        },
        {
          "internalType": "uint256",
          "name": "_reportId",
          "type": "uint256"
        }
      ],
      "name": "resolveActionPlan",
      "outputs": [],
      "stateMutability": "nonpayable",
      "type": "function"
    },
    {
      "inputs": [
        {
          "internalType": "string",
          "name": "_firstName",
          "type": "string"
        },
        {
          "internalType": "string",
          "name": "_lastName",
          "type": "string"
        },
        {
          "internalType": "string",
          "name": "_phone",
          "type": "string"
        },
        {
          "internalType": "string",
          "name": "_email",
          "type": "string"
        },
        {
          "internalType": "string",
          "name": "_gender",
          "type": "string"
        },
        {
          "internalType": "string",
          "name": "_dateOfBirth",
          "type": "string"
        },
        {
          "internalType": "string",
          "name": "_bloodType",
          "type": "string"
        },
        {
          "internalType": "string",
          "name": "_homeAddress",
          "type": "string"
        }
      ],
      "name": "addPatient",
      "outputs": [],
      "stateMutability": "nonpayable",
      "type": "function"
    },
    {
      "inputs": [],
      "name": "getAllPatientAddresses",
      "outputs": [
        {
          "internalType": "address[]",
          "name": "",
          "type": "address[]"
        }
      ],
      "stateMutability": "view",
      "type": "function",
      "constant": true
    },
    {
      "inputs": [
        {
          "internalType": "address",
          "name": "_addr",
          "type": "address"
        }
      ],
      "name": "getPatientProfile",
      "outputs": [
        {
          "internalType": "uint256",
          "name": "_id",
          "type": "uint256"
        },
        {
          "internalType": "string",
          "name": "_firstName",
          "type": "string"
        },
        {
          "internalType": "string",
          "name": "_lastName",
          "type": "string"
        },
        {
          "internalType": "string",
          "name": "_phone",
          "type": "string"
        },
        {
          "internalType": "string",
          "name": "_email",
          "type": "string"
        },
        {
          "internalType": "string",
          "name": "_gender",
          "type": "string"
        },
        {
          "internalType": "string",
          "name": "_dateOfBirth",
          "type": "string"
        },
        {
          "internalType": "string",
          "name": "_bloodType",
          "type": "string"
        },
        {
          "internalType": "string",
          "name": "_homeAddress",
          "type": "string"
        }
      ],
      "stateMutability": "view",
      "type": "function",
      "constant": true
    },
    {
      "inputs": [
        {
          "internalType": "address",
          "name": "_addr",
          "type": "address"
        },
        {
          "internalType": "string",
          "name": "_incidentDate",
          "type": "string"
        },
        {
          "internalType": "string",
          "name": "_incidentDescription",
          "type": "string"
        },
        {
          "internalType": "string",
          "name": "_incidentCategory",
          "type": "string"
        },
        {
          "internalType": "string",
          "name": "_careSetting",
          "type": "string"
        },
        {
          "internalType": "string",
          "name": "_medicationTaken",
          "type": "string"
        },
        {
          "internalType": "string",
          "name": "_medicalCompanyInvolved",
          "type": "string"
        },
        {
          "internalType": "string",
          "name": "_ipfsHash",
          "type": "string"
        }
      ],
      "name": "addPatientReport",
      "outputs": [],
      "stateMutability": "nonpayable",
      "type": "function"
    },
    {
      "inputs": [
        {
          "internalType": "address",
          "name": "_addr",
          "type": "address"
        }
      ],
      "name": "getReports",
      "outputs": [
        {
          "components": [
            {
              "internalType": "uint256",
              "name": "reportId",
              "type": "uint256"
            },
            {
              "internalType": "string",
              "name": "reporterFirstName",
              "type": "string"
            },
            {
              "internalType": "string",
              "name": "reporterLastName",
              "type": "string"
            },
            {
              "internalType": "string",
              "name": "incidentDate",
              "type": "string"
            },
            {
              "internalType": "string",
              "name": "incidentDescription",
              "type": "string"
            },
            {
              "internalType": "string",
              "name": "incidentCategory",
              "type": "string"
            },
            {
              "internalType": "string",
              "name": "careSetting",
              "type": "string"
            },
            {
              "internalType": "string",
              "name": "medicationTaken",
              "type": "string"
            },
            {
              "internalType": "string",
              "name": "medicalCompanyInvolved",
              "type": "string"
            },
            {
              "internalType": "string",
              "name": "ipfsHash",
              "type": "string"
            },
            {
              "components": [
                {
                  "internalType": "string",
                  "name": "creator",
                  "type": "string"
                },
                {
                  "internalType": "string",
                  "name": "actionPlanCreationDate",
                  "type": "string"
                },
                {
                  "internalType": "string",
                  "name": "actionPlanDescription",
                  "type": "string"
                },
                {
                  "internalType": "string",
                  "name": "clinicalOutcome",
                  "type": "string"
                },
                {
                  "internalType": "string",
                  "name": "contributingFactors",
                  "type": "string"
                },
                {
                  "internalType": "string",
                  "name": "suspectedMedication",
                  "type": "string"
                },
                {
                  "internalType": "string",
                  "name": "actionToTake",
                  "type": "string"
                },
                {
                  "internalType": "string",
                  "name": "medicalCompanyInvolved",
                  "type": "string"
                },
                {
                  "internalType": "string",
                  "name": "ipfsHash",
                  "type": "string"
                }
              ],
              "internalType": "struct Contract.ActionPlan",
              "name": "actionPlan",
              "type": "tuple"
            },
            {
              "internalType": "bool",
              "name": "isResolved",
              "type": "bool"
            }
          ],
          "internalType": "struct Contract.Report[]",
          "name": "_reports",
          "type": "tuple[]"
        }
      ],
      "stateMutability": "view",
      "type": "function",
      "constant": true
    },
    {
      "inputs": [
        {
          "internalType": "address",
          "name": "_addr",
          "type": "address"
        }
      ],
      "name": "getAllNames",
      "outputs": [
        {
          "internalType": "string[]",
          "name": "_patientNames",
          "type": "string[]"
        },
        {
          "internalType": "string[]",
          "name": "_medicalCompanyNames",
          "type": "string[]"
        },
        {
          "internalType": "string[]",
          "name": "_governmentNames",
          "type": "string[]"
        }
      ],
      "stateMutability": "view",
      "type": "function",
      "constant": true
    }
  ],
  "bytecode": "0x60806040526000805560006002556000600b5534801561001e57600080fd5b5061516e8061002e6000396000f3fe608060405234801561001057600080fd5b506004361061015f576000357c010000000000000000000000000000000000000000000000000000000090048063699d347d116100d557806392be3e651161009957806392be3e65146102ee5780639312a9ec146102f65780639930b398146103095780639b9831ed1461031c578063de7359f61461032f578063ea1cb8531461033757600080fd5b8063699d347d146102775780637658d6c3146102a25780637b406946146102b55780637d0f98bb146102c85780638b626fb5146102db57600080fd5b80633d3d7182116101275780633d3d7182146101f7578063461a20821461021757806347f437441461023f5780634e528f2814610252578063564905971461026557806358a8c7da1461026e57600080fd5b8063067dcc321461016457806315414aee1461018f5780631589c39a146101a4578063307c2c0e146101b95780633242948e146101d0575b600080fd5b61017761017236600461468d565b610340565b60405161018693929190614750565b60405180910390f35b6101a261019d366004614839565b610761565b005b6101ac61098f565b604051610186919061491a565b6101c260005481565b604051908152602001610186565b6101e36101de36600461468d565b6109f1565b604051610186989796959493929190614967565b61020a61020536600461468d565b61138b565b6040516101869190614ade565b61022a61022536600461468d565b611e62565b60405161018699989796959493929190614c5f565b6101e361024d366004614d16565b61242a565b6101a2610260366004614839565b612eac565b6101c2600b5481565b6101c260065481565b61028a610285366004614d16565b6130f5565b604051600160a060020a039091168152602001610186565b6101e36102b036600461468d565b61311f565b6101e36102c3366004614d16565b613505565b6101a26102d6366004614d2f565b613a04565b6101a26102e9366004614e6f565b613c4d565b6101ac613f00565b6101a2610304366004614fcb565b613f60565b6101a261031736600461500e565b614478565b61028a61032a366004614d16565b6144ed565b6101ac6144fd565b6101c260025481565b60608060606000600c8054905067ffffffffffffffff81111561036557610365614793565b60405190808252806020026020018201604052801561039857816020015b60608152602001906001900390816103835790505b50600a5490915060009067ffffffffffffffff8111156103ba576103ba614793565b6040519080825280602002602001820160405280156103ed57816020015b60608152602001906001900390816103d85790505b5060055490915060009067ffffffffffffffff81111561040f5761040f614793565b60405190808252806020026020018201604052801561044257816020015b606081526020019060019003908161042d5790505b50905060005b600c5481101561054957600d6000600c838154811061046957610469615038565b6000918252602080832090910154600160a060020a031683528201929092526040019020600101805461049b90615051565b80601f01602080910402602001604051908101604052809291908181526020018280546104c790615051565b80156105145780601f106104e957610100808354040283529160200191610514565b820191906000526020600020905b8154815290600101906020018083116104f757829003601f168201915b505050505084828151811061052b5761052b615038565b60200260200101819052508080610541906150a8565b915050610448565b5060005b600a5481101561064e5760096000600a838154811061056e5761056e615038565b6000918252602080832090910154600160a060020a03168352820192909252604001902060010180546105a090615051565b80601f01602080910402602001604051908101604052809291908181526020018280546105cc90615051565b80156106195780601f106105ee57610100808354040283529160200191610619565b820191906000526020600020905b8154815290600101906020018083116105fc57829003601f168201915b505050505083828151811061063057610630615038565b60200260200101819052508080610646906150a8565b91505061054d565b5060005b60055481101561075357600460006005838154811061067357610673615038565b6000918252602080832090910154600160a060020a03168352820192909252604001902060010180546106a590615051565b80601f01602080910402602001604051908101604052809291908181526020018280546106d190615051565b801561071e5780601f106106f35761010080835404028352916020019161071e565b820191906000526020600020905b81548152906001019060200180831161070157829003601f168201915b505050505082828151811061073557610735615038565b6020026020010181905250808061074b906150a8565b915050610652565b509196909550909350915050565b600160a060020a03811660009081526003602052604090205460ff16156107d25760405160e560020a62461bcd02815260206004820181905260248201527f476f7665726e6d656e7420697320616c7265616479207265676973746572656460448201526064015b60405180910390fd5b6005805460018082019092557f036b6384b5eca791c62761152d0c79bb0604c104a5fb6f4eb0703f3154bb3db001805473ffffffffffffffffffffffffffffffffffffffff1916600160a060020a0384169081179091556000908152600360209081526040808320805460ff19168517905560025460048352922091825588516108649392909201919089019061455d565b50600160a060020a038116600090815260046020908152604090912086516108949260029092019188019061455d565b50600160a060020a038116600090815260046020908152604090912085516108c49260039092019187019061455d565b50600160a060020a038116600090815260046020818152604090922085516108f49391909201919086019061455d565b50600160a060020a038116600090815260046020908152604090912083516109249260059092019185019061455d565b50600160a060020a0381166000818152600460205260409020600701805474ffffffffffffffffffffffffffffffffffffffffff1916909117740100000000000000000000000000000000000000001790556002546109849060016150c3565b600255505050505050565b6060600a8054806020026020016040519081016040528092919081815260200182805480156109e757602002820191906000526020600020905b8154600160a060020a031681526001909101906020018083116109c9575b5050505050905090565b600160a060020a03811660009081526003602052604081205460609081908190819081908690819060ff16610a6b5760405160e560020a62461bcd02815260206004820152601c60248201527f476f7665726e6d656e74206973206e6f7420726567697374657265640000000060448201526064016107c9565b6000600460008b600160a060020a0316600160a060020a031681526020019081526020016000206040518061012001604052908160008201548152602001600182018054610ab890615051565b80601f0160208091040260200160405190810160405280929190818152602001828054610ae490615051565b8015610b315780601f10610b0657610100808354040283529160200191610b31565b820191906000526020600020905b815481529060010190602001808311610b1457829003601f168201915b50505050508152602001600282018054610b4a90615051565b80601f0160208091040260200160405190810160405280929190818152602001828054610b7690615051565b8015610bc35780601f10610b9857610100808354040283529160200191610bc3565b820191906000526020600020905b815481529060010190602001808311610ba657829003601f168201915b50505050508152602001600382018054610bdc90615051565b80601f0160208091040260200160405190810160405280929190818152602001828054610c0890615051565b8015610c555780601f10610c2a57610100808354040283529160200191610c55565b820191906000526020600020905b815481529060010190602001808311610c3857829003601f168201915b50505050508152602001600482018054610c6e90615051565b80601f0160208091040260200160405190810160405280929190818152602001828054610c9a90615051565b8015610ce75780601f10610cbc57610100808354040283529160200191610ce7565b820191906000526020600020905b815481529060010190602001808311610cca57829003601f168201915b50505050508152602001600582018054610d0090615051565b80601f0160208091040260200160405190810160405280929190818152602001828054610d2c90615051565b8015610d795780601f10610d4e57610100808354040283529160200191610d79565b820191906000526020600020905b815481529060010190602001808311610d5c57829003601f168201915b5050505050815260200160068201805480602002602001604051908101604052809291908181526020016000905b828210156112fc578382906000526020600020906009020160405180610120016040529081600082018054610ddb90615051565b80601f0160208091040260200160405190810160405280929190818152602001828054610e0790615051565b8015610e545780601f10610e2957610100808354040283529160200191610e54565b820191906000526020600020905b815481529060010190602001808311610e3757829003601f168201915b50505050508152602001600182018054610e6d90615051565b80601f0160208091040260200160405190810160405280929190818152602001828054610e9990615051565b8015610ee65780601f10610ebb57610100808354040283529160200191610ee6565b820191906000526020600020905b815481529060010190602001808311610ec957829003601f168201915b50505050508152602001600282018054610eff90615051565b80601f0160208091040260200160405190810160405280929190818152602001828054610f2b90615051565b8015610f785780601f10610f4d57610100808354040283529160200191610f78565b820191906000526020600020905b815481529060010190602001808311610f5b57829003601f168201915b50505050508152602001600382018054610f9190615051565b80601f0160208091040260200160405190810160405280929190818152602001828054610fbd90615051565b801561100a5780601f10610fdf5761010080835404028352916020019161100a565b820191906000526020600020905b815481529060010190602001808311610fed57829003601f168201915b5050505050815260200160048201805461102390615051565b80601f016020809104026020016040519081016040528092919081815260200182805461104f90615051565b801561109c5780601f106110715761010080835404028352916020019161109c565b820191906000526020600020905b81548152906001019060200180831161107f57829003601f168201915b505050505081526020016005820180546110b590615051565b80601f01602080910402602001604051908101604052809291908181526020018280546110e190615051565b801561112e5780601f106111035761010080835404028352916020019161112e565b820191906000526020600020905b81548152906001019060200180831161111157829003601f168201915b5050505050815260200160068201805461114790615051565b80601f016020809104026020016040519081016040528092919081815260200182805461117390615051565b80156111c05780601f10611195576101008083540402835291602001916111c0565b820191906000526020600020905b8154815290600101906020018083116111a357829003601f168201915b505050505081526020016007820180546111d990615051565b80601f016020809104026020016040519081016040528092919081815260200182805461120590615051565b80156112525780601f1061122757610100808354040283529160200191611252565b820191906000526020600020905b81548152906001019060200180831161123557829003601f168201915b5050505050815260200160088201805461126b90615051565b80601f016020809104026020016040519081016040528092919081815260200182805461129790615051565b80156112e45780601f106112b9576101008083540402835291602001916112e4565b820191906000526020600020905b8154815290600101906020018083116112c757829003601f168201915b50505050508152505081526020019060010190610da7565b5050509082525060079190910154600160a060020a03811660208084019190915260ff74010000000000000000000000000000000000000000909204919091161515604092830152825190830151918301516060840151608085015160a086015160e08701516101009790970151949f50949d50919b5099509750909550909350915050919395975091939597565b60606001805480602002602001604051908101604052809291908181526020016000905b82821015611e57578382906000526020600020906014020160405180610180016040529081600082015481526020016001820180546113ed90615051565b80601f016020809104026020016040519081016040528092919081815260200182805461141990615051565b80156114665780601f1061143b57610100808354040283529160200191611466565b820191906000526020600020905b81548152906001019060200180831161144957829003601f168201915b5050505050815260200160028201805461147f90615051565b80601f01602080910402602001604051908101604052809291908181526020018280546114ab90615051565b80156114f85780601f106114cd576101008083540402835291602001916114f8565b820191906000526020600020905b8154815290600101906020018083116114db57829003601f168201915b5050505050815260200160038201805461151190615051565b80601f016020809104026020016040519081016040528092919081815260200182805461153d90615051565b801561158a5780601f1061155f5761010080835404028352916020019161158a565b820191906000526020600020905b81548152906001019060200180831161156d57829003601f168201915b505050505081526020016004820180546115a390615051565b80601f01602080910402602001604051908101604052809291908181526020018280546115cf90615051565b801561161c5780601f106115f15761010080835404028352916020019161161c565b820191906000526020600020905b8154815290600101906020018083116115ff57829003601f168201915b5050505050815260200160058201805461163590615051565b80601f016020809104026020016040519081016040528092919081815260200182805461166190615051565b80156116ae5780601f10611683576101008083540402835291602001916116ae565b820191906000526020600020905b81548152906001019060200180831161169157829003601f168201915b505050505081526020016006820180546116c790615051565b80601f01602080910402602001604051908101604052809291908181526020018280546116f390615051565b80156117405780601f1061171557610100808354040283529160200191611740565b820191906000526020600020905b81548152906001019060200180831161172357829003601f168201915b5050505050815260200160078201805461175990615051565b80601f016020809104026020016040519081016040528092919081815260200182805461178590615051565b80156117d25780601f106117a7576101008083540402835291602001916117d2565b820191906000526020600020905b8154815290600101906020018083116117b557829003601f168201915b505050505081526020016008820180546117eb90615051565b80601f016020809104026020016040519081016040528092919081815260200182805461181790615051565b80156118645780601f1061183957610100808354040283529160200191611864565b820191906000526020600020905b81548152906001019060200180831161184757829003601f168201915b5050505050815260200160098201805461187d90615051565b80601f01602080910402602001604051908101604052809291908181526020018280546118a990615051565b80156118f65780601f106118cb576101008083540402835291602001916118f6565b820191906000526020600020905b8154815290600101906020018083116118d957829003601f168201915b50505050508152602001600a82016040518061012001604052908160008201805461192090615051565b80601f016020809104026020016040519081016040528092919081815260200182805461194c90615051565b80156119995780601f1061196e57610100808354040283529160200191611999565b820191906000526020600020905b81548152906001019060200180831161197c57829003601f168201915b505050505081526020016001820180546119b290615051565b80601f01602080910402602001604051908101604052809291908181526020018280546119de90615051565b8015611a2b5780601f10611a0057610100808354040283529160200191611a2b565b820191906000526020600020905b815481529060010190602001808311611a0e57829003601f168201915b50505050508152602001600282018054611a4490615051565b80601f0160208091040260200160405190810160405280929190818152602001828054611a7090615051565b8015611abd5780601f10611a9257610100808354040283529160200191611abd565b820191906000526020600020905b815481529060010190602001808311611aa057829003601f168201915b50505050508152602001600382018054611ad690615051565b80601f0160208091040260200160405190810160405280929190818152602001828054611b0290615051565b8015611b4f5780601f10611b2457610100808354040283529160200191611b4f565b820191906000526020600020905b815481529060010190602001808311611b3257829003601f168201915b50505050508152602001600482018054611b6890615051565b80601f0160208091040260200160405190810160405280929190818152602001828054611b9490615051565b8015611be15780601f10611bb657610100808354040283529160200191611be1565b820191906000526020600020905b815481529060010190602001808311611bc457829003601f168201915b50505050508152602001600582018054611bfa90615051565b80601f0160208091040260200160405190810160405280929190818152602001828054611c2690615051565b8015611c735780601f10611c4857610100808354040283529160200191611c73565b820191906000526020600020905b815481529060010190602001808311611c5657829003601f168201915b50505050508152602001600682018054611c8c90615051565b80601f0160208091040260200160405190810160405280929190818152602001828054611cb890615051565b8015611d055780601f10611cda57610100808354040283529160200191611d05565b820191906000526020600020905b815481529060010190602001808311611ce857829003601f168201915b50505050508152602001600782018054611d1e90615051565b80601f0160208091040260200160405190810160405280929190818152602001828054611d4a90615051565b8015611d975780601f10611d6c57610100808354040283529160200191611d97565b820191906000526020600020905b815481529060010190602001808311611d7a57829003601f168201915b50505050508152602001600882018054611db090615051565b80601f0160208091040260200160405190810160405280929190818152602001828054611ddc90615051565b8015611e295780601f10611dfe57610100808354040283529160200191611e29565b820191906000526020600020905b815481529060010190602001808311611e0c57829003601f168201915b5050509190925250505081526013919091015460ff16151560209182015290825260019290920191016113af565b505050509050919050565b600160a060020a0381166000908152600e6020526040812054606090819081908190819081908190819060ff16611ede5760405160e560020a62461bcd02815260206004820152601960248201527f50617469656e74206973206e6f7420726567697374657265640000000000000060448201526064016107c9565b6000600d60008c600160a060020a0316600160a060020a031681526020019081526020016000206040518061014001604052908160008201548152602001600182018054611f2b90615051565b80601f0160208091040260200160405190810160405280929190818152602001828054611f5790615051565b8015611fa45780601f10611f7957610100808354040283529160200191611fa4565b820191906000526020600020905b815481529060010190602001808311611f8757829003601f168201915b50505050508152602001600282018054611fbd90615051565b80601f0160208091040260200160405190810160405280929190818152602001828054611fe990615051565b80156120365780601f1061200b57610100808354040283529160200191612036565b820191906000526020600020905b81548152906001019060200180831161201957829003601f168201915b5050505050815260200160038201805461204f90615051565b80601f016020809104026020016040519081016040528092919081815260200182805461207b90615051565b80156120c85780601f1061209d576101008083540402835291602001916120c8565b820191906000526020600020905b8154815290600101906020018083116120ab57829003601f168201915b505050505081526020016004820180546120e190615051565b80601f016020809104026020016040519081016040528092919081815260200182805461210d90615051565b801561215a5780601f1061212f5761010080835404028352916020019161215a565b820191906000526020600020905b81548152906001019060200180831161213d57829003601f168201915b5050505050815260200160058201805461217390615051565b80601f016020809104026020016040519081016040528092919081815260200182805461219f90615051565b80156121ec5780601f106121c1576101008083540402835291602001916121ec565b820191906000526020600020905b8154815290600101906020018083116121cf57829003601f168201915b5050505050815260200160068201805461220590615051565b80601f016020809104026020016040519081016040528092919081815260200182805461223190615051565b801561227e5780601f106122535761010080835404028352916020019161227e565b820191906000526020600020905b81548152906001019060200180831161226157829003601f168201915b5050505050815260200160078201805461229790615051565b80601f01602080910402602001604051908101604052809291908181526020018280546122c390615051565b80156123105780601f106122e557610100808354040283529160200191612310565b820191906000526020600020905b8154815290600101906020018083116122f357829003601f168201915b5050505050815260200160088201805461232990615051565b80601f016020809104026020016040519081016040528092919081815260200182805461235590615051565b80156123a25780601f10612377576101008083540402835291602001916123a2565b820191906000526020600020905b81548152906001019060200180831161238557829003601f168201915b505050505081526020016009820160009054906101000a9004600160a060020a0316600160a060020a0316600160a060020a0316815250509050806000015181602001518260400151836060015184608001518560a001518660c001518760e00151886101000151995099509950995099509950995099509950509193959799909294969850565b6000606080606080606060008060005b60055481101561249e5789600460006005848154811061245c5761245c615038565b6000918252602080832090910154600160a060020a03168352820192909252604001902054141561248c5761249e565b80612496816150a8565b91505061243a565b8960046000600584815481106124b6576124b6615038565b6000918252602080832090910154600160a060020a03168352820192909252604001902054146125515760405160e560020a62461bcd02815260206004820152602f60248201527f476f7665726e6d656e7420636f756c64206e6f7420626520666f756e6420776960448201527f74682074686520676976656e204944000000000000000000000000000000000060648201526084016107c9565b6000600460006005848154811061256a5761256a615038565b9060005260206000200160009054906101000a9004600160a060020a0316600160a060020a0316600160a060020a0316815260200190815260200160002060405180610120016040529081600082015481526020016001820180546125ce90615051565b80601f01602080910402602001604051908101604052809291908181526020018280546125fa90615051565b80156126475780601f1061261c57610100808354040283529160200191612647565b820191906000526020600020905b81548152906001019060200180831161262a57829003601f168201915b5050505050815260200160028201805461266090615051565b80601f016020809104026020016040519081016040528092919081815260200182805461268c90615051565b80156126d95780601f106126ae576101008083540402835291602001916126d9565b820191906000526020600020905b8154815290600101906020018083116126bc57829003601f168201915b505050505081526020016003820180546126f290615051565b80601f016020809104026020016040519081016040528092919081815260200182805461271e90615051565b801561276b5780601f106127405761010080835404028352916020019161276b565b820191906000526020600020905b81548152906001019060200180831161274e57829003601f168201915b5050505050815260200160048201805461278490615051565b80601f01602080910402602001604051908101604052809291908181526020018280546127b090615051565b80156127fd5780601f106127d2576101008083540402835291602001916127fd565b820191906000526020600020905b8154815290600101906020018083116127e057829003601f168201915b5050505050815260200160058201805461281690615051565b80601f016020809104026020016040519081016040528092919081815260200182805461284290615051565b801561288f5780601f106128645761010080835404028352916020019161288f565b820191906000526020600020905b81548152906001019060200180831161287257829003601f168201915b5050505050815260200160068201805480602002602001604051908101604052809291908181526020016000905b82821015612e125783829060005260206000209060090201604051806101200160405290816000820180546128f190615051565b80601f016020809104026020016040519081016040528092919081815260200182805461291d90615051565b801561296a5780601f1061293f5761010080835404028352916020019161296a565b820191906000526020600020905b81548152906001019060200180831161294d57829003601f168201915b5050505050815260200160018201805461298390615051565b80601f01602080910402602001604051908101604052809291908181526020018280546129af90615051565b80156129fc5780601f106129d1576101008083540402835291602001916129fc565b820191906000526020600020905b8154815290600101906020018083116129df57829003601f168201915b50505050508152602001600282018054612a1590615051565b80601f0160208091040260200160405190810160405280929190818152602001828054612a4190615051565b8015612a8e5780601f10612a6357610100808354040283529160200191612a8e565b820191906000526020600020905b815481529060010190602001808311612a7157829003601f168201915b50505050508152602001600382018054612aa790615051565b80601f0160208091040260200160405190810160405280929190818152602001828054612ad390615051565b8015612b205780601f10612af557610100808354040283529160200191612b20565b820191906000526020600020905b815481529060010190602001808311612b0357829003601f168201915b50505050508152602001600482018054612b3990615051565b80601f0160208091040260200160405190810160405280929190818152602001828054612b6590615051565b8015612bb25780601f10612b8757610100808354040283529160200191612bb2565b820191906000526020600020905b815481529060010190602001808311612b9557829003601f168201915b50505050508152602001600582018054612bcb90615051565b80601f0160208091040260200160405190810160405280929190818152602001828054612bf790615051565b8015612c445780601f10612c1957610100808354040283529160200191612c44565b820191906000526020600020905b815481529060010190602001808311612c2757829003601f168201915b50505050508152602001600682018054612c5d90615051565b80601f0160208091040260200160405190810160405280929190818152602001828054612c8990615051565b8015612cd65780601f10612cab57610100808354040283529160200191612cd6565b820191906000526020600020905b815481529060010190602001808311612cb957829003601f168201915b50505050508152602001600782018054612cef90615051565b80601f0160208091040260200160405190810160405280929190818152602001828054612d1b90615051565b8015612d685780601f10612d3d57610100808354040283529160200191612d68565b820191906000526020600020905b815481529060010190602001808311612d4b57829003601f168201915b50505050508152602001600882018054612d8190615051565b80601f0160208091040260200160405190810160405280929190818152602001828054612dad90615051565b8015612dfa5780601f10612dcf57610100808354040283529160200191612dfa565b820191906000526020600020905b815481529060010190602001808311612ddd57829003601f168201915b505050505081525050815260200190600101906128bd565b5050505081526020016007820160009054906101000a9004600160a060020a0316600160a060020a0316600160a060020a031681526020016007820160149054906101000a900460ff1615151515815250509050806000015181602001518260400151836060015184608001518560a001518660e00151876101000151995099509950995099509950995099505050919395975091939597565b600160a060020a03811660009081526007602052604090205460ff1615612f3e5760405160e560020a62461bcd02815260206004820152602560248201527f4d65646963616c20636f6d70616e7920697320616c726561647920726567697360448201527f746572656400000000000000000000000000000000000000000000000000000060648201526084016107c9565b600a805460018082019092557fc65a7bb8d6351c1cf70c95a316cc6a92839c986682d98bc35f958f4883f9d2a801805473ffffffffffffffffffffffffffffffffffffffff1916600160a060020a0384169081179091556000818152600760209081526040808320805460ff19168617905580516101008101825260065481528083018c81528183018c9052606082018b9052608082018a905260a0820189905260c0820186905260e08201879052948452600983529220825181559251805192946130129390850192919091019061455d565b506040820151805161302e91600284019160209091019061455d565b506060820151805161304a91600384019160209091019061455d565b506080820151805161306691600484019160209091019061455d565b5060a0820151805161308291600584019160209091019061455d565b5060c08201516006918201805460e0909401511515740100000000000000000000000000000000000000000274ffffffffffffffffffffffffffffffffffffffffff19909416600160a060020a039092169190911792909217909155546130ea9060016150c3565b600655505050505050565b600a818154811061310557600080fd5b600091825260209091200154600160a060020a0316905081565b600160a060020a03811660009081526007602052604081205460609081908190819081908690819060ff166131695760405160e560020a62461bcd0281526004016107c9906150db565b6000600960008b600160a060020a0316600160a060020a0316815260200190815260200160002060405180610100016040529081600082015481526020016001820180546131b690615051565b80601f01602080910402602001604051908101604052809291908181526020018280546131e290615051565b801561322f5780601f106132045761010080835404028352916020019161322f565b820191906000526020600020905b81548152906001019060200180831161321257829003601f168201915b5050505050815260200160028201805461324890615051565b80601f016020809104026020016040519081016040528092919081815260200182805461327490615051565b80156132c15780601f10613296576101008083540402835291602001916132c1565b820191906000526020600020905b8154815290600101906020018083116132a457829003601f168201915b505050505081526020016003820180546132da90615051565b80601f016020809104026020016040519081016040528092919081815260200182805461330690615051565b80156133535780601f1061332857610100808354040283529160200191613353565b820191906000526020600020905b81548152906001019060200180831161333657829003601f168201915b5050505050815260200160048201805461336c90615051565b80601f016020809104026020016040519081016040528092919081815260200182805461339890615051565b80156133e55780601f106133ba576101008083540402835291602001916133e5565b820191906000526020600020905b8154815290600101906020018083116133c857829003601f168201915b505050505081526020016005820180546133fe90615051565b80601f016020809104026020016040519081016040528092919081815260200182805461342a90615051565b80156134775780601f1061344c57610100808354040283529160200191613477565b820191906000526020600020905b81548152906001019060200180831161345a57829003601f168201915b505050918352505060069190910154600160a060020a03811660208084019190915260ff74010000000000000000000000000000000000000000909204919091161515604092830152825190830151918301516060840151608085015160a086015160c087015160e090970151949f50949d50919b5099509750909550909350915050919395975091939597565b6000606080606080606060008060005b600a54811015613579578960096000600a848154811061353757613537615038565b6000918252602080832090910154600160a060020a03168352820192909252604001902054141561356757613579565b80613571816150a8565b915050613515565b8960096000600a848154811061359157613591615038565b6000918252602080832090910154600160a060020a031683528201929092526040019020541461362c5760405160e560020a62461bcd02815260206004820152603360248201527f4d65646963616c436f6d70616e7920636f756c64206e6f7420626520666f756e60448201527f6420776974682074686520676976656e2049440000000000000000000000000060648201526084016107c9565b600060096000600a848154811061364557613645615038565b9060005260206000200160009054906101000a9004600160a060020a0316600160a060020a0316600160a060020a0316815260200190815260200160002060405180610100016040529081600082015481526020016001820180546136a990615051565b80601f01602080910402602001604051908101604052809291908181526020018280546136d590615051565b80156137225780601f106136f757610100808354040283529160200191613722565b820191906000526020600020905b81548152906001019060200180831161370557829003601f168201915b5050505050815260200160028201805461373b90615051565b80601f016020809104026020016040519081016040528092919081815260200182805461376790615051565b80156137b45780601f10613789576101008083540402835291602001916137b4565b820191906000526020600020905b81548152906001019060200180831161379757829003601f168201915b505050505081526020016003820180546137cd90615051565b80601f01602080910402602001604051908101604052809291908181526020018280546137f990615051565b80156138465780601f1061381b57610100808354040283529160200191613846565b820191906000526020600020905b81548152906001019060200180831161382957829003601f168201915b5050505050815260200160048201805461385f90615051565b80601f016020809104026020016040519081016040528092919081815260200182805461388b90615051565b80156138d85780601f106138ad576101008083540402835291602001916138d8565b820191906000526020600020905b8154815290600101906020018083116138bb57829003601f168201915b505050505081526020016005820180546138f190615051565b80601f016020809104026020016040519081016040528092919081815260200182805461391d90615051565b801561396a5780601f1061393f5761010080835404028352916020019161396a565b820191906000526020600020905b81548152906001019060200180831161394d57829003601f168201915b505050505081526020016006820160009054906101000a9004600160a060020a0316600160a060020a0316600160a060020a031681526020016006820160149054906101000a900460ff1615151515815250509050806000015181602001518260400151836060015184608001518560a001518660c001518760e00151995099509950995099509950995099505050919395975091939597565b336000908152600e602052604090205460ff1615613a675760405160e560020a62461bcd02815260206004820152601d60248201527f50617469656e7420697320616c7265616479207265676973746572656400000060448201526064016107c9565b600c805460018181019092557fdf6966c971051c3d54ec59162606531493a51404a002842f56009d7e5cf4a8c701805473ffffffffffffffffffffffffffffffffffffffff1916339081179091556000908152600e60209081526040808320805460ff191685179055600b54600d835292209182558a51613af0939290920191908b019061455d565b50336000908152600d602090815260409091208851613b17926002909201918a019061455d565b50336000908152600d602090815260409091208751613b3e9260039092019189019061455d565b50336000908152600d602090815260409091208651613b659260049092019188019061455d565b50336000908152600d602090815260409091208551613b8c9260059092019187019061455d565b50336000908152600d602090815260409091208451613bb39260069092019186019061455d565b50336000908152600d602090815260409091208351613bda9260079092019185019061455d565b50336000908152600d602090815260409091208251613c019260089092019184019061455d565b50336000818152600d60205260409020600901805473ffffffffffffffffffffffffffffffffffffffff19169091179055600b54613c409060016150c3565b600b555050505050505050565b600160a060020a038a1660009081526003602052604090205460ff16613cb85760405160e560020a62461bcd02815260206004820152601c60248201527f476f7665726e6d656e74206973206e6f7420726567697374657265640000000060448201526064016107c9565b600160a060020a038a16600090815260046020526040902060018054918101918b908110613ce857613ce8615038565b9060005260206000209060140201600a01600001908054613d0890615051565b613d139291906145e1565b508760018a81548110613d2857613d28615038565b9060005260206000209060140201600a016001019080519060200190613d4f92919061455d565b508660018a81548110613d6457613d64615038565b9060005260206000209060140201600a016002019080519060200190613d8b92919061455d565b508560018a81548110613da057613da0615038565b9060005260206000209060140201600a016003019080519060200190613dc792919061455d565b508460018a81548110613ddc57613ddc615038565b9060005260206000209060140201600a016004019080519060200190613e0392919061455d565b508360018a81548110613e1857613e18615038565b9060005260206000209060140201600a016005019080519060200190613e3f92919061455d565b508260018a81548110613e5457613e54615038565b9060005260206000209060140201600a016006019080519060200190613e7b92919061455d565b508160018a81548110613e9057613e90615038565b9060005260206000209060140201600a016007019080519060200190613eb792919061455d565b508060018a81548110613ecc57613ecc615038565b9060005260206000209060140201600a016008019080519060200190613ef392919061455d565b5050505050505050505050565b6060600c8054806020026020016040519081016040528092919081815260200182805480156109e757602002820191906000526020600020908154600160a060020a031681526001909101906020018083116109c9575050505050905090565b600160a060020a0388166000908152600e602052604090205460ff16613fcb5760405160e560020a62461bcd02815260206004820152601960248201527f50617469656e74206973206e6f7420726567697374657265640000000000000060448201526064016107c9565b60016040518061018001604052806000548152602001600d60008c600160a060020a0316600160a060020a03168152602001908152602001600020600101805461401490615051565b80601f016020809104026020016040519081016040528092919081815260200182805461404090615051565b801561408d5780601f106140625761010080835404028352916020019161408d565b820191906000526020600020905b81548152906001019060200180831161407057829003601f168201915b50505050508152602001600d60008c600160a060020a0316600160a060020a0316815260200190815260200160002060020180546140ca90615051565b80601f01602080910402602001604051908101604052809291908181526020018280546140f690615051565b80156141435780601f1061411857610100808354040283529160200191614143565b820191906000526020600020905b81548152906001019060200180831161412657829003601f168201915b505050918352505060208082018b905260408083018b905260608084018b905260808085018b905260a08086018b905260c08087018b905260e08088018b9052855161014081018752600061012080830182815283528851808b018a52828152838b01528851808b018a52828152838a01528851808b018a52828152978301979097528751808a01895281815295820195909552865180890188528581529381019390935285518088018752848152918301919091528451808701865283815290820152835180860190945281845261010081810194909452928501929092529092018290528354600181810186559483529181902083516014909302019182558281015180519394929361425f93850192919091019061455d565b506040820151805161427b91600284019160209091019061455d565b506060820151805161429791600384019160209091019061455d565b50608082015180516142b391600484019160209091019061455d565b5060a082015180516142cf91600584019160209091019061455d565b5060c082015180516142eb91600684019160209091019061455d565b5060e0820151805161430791600784019160209091019061455d565b50610100820151805161432491600884019160209091019061455d565b50610120820151805161434191600984019160209091019061455d565b5061014082015180518051600a8401916143609183916020019061455d565b506020828101518051614379926001850192019061455d565b506040820151805161439591600284019160209091019061455d565b50606082015180516143b191600384019160209091019061455d565b50608082015180516143cd91600484019160209091019061455d565b5060a082015180516143e991600584019160209091019061455d565b5060c0820151805161440591600684019160209091019061455d565b5060e0820151805161442191600784019160209091019061455d565b50610100820151805161443e91600884019160209091019061455d565b50505061016091909101516013909101805460ff191691151591909117905560005461446b9060016150c3565b6000555050505050505050565b600160a060020a03821660009081526007602052604090205460ff166144b35760405160e560020a62461bcd0281526004016107c9906150db565b60018082815481106144c7576144c7615038565b60009182526020909120601490910201601301805460ff19169115159190911790555050565b6005818154811061310557600080fd5b606060058054806020026020016040519081016040528092919081815260200182805480156109e757602002820191906000526020600020908154600160a060020a031681526001909101906020018083116109c9575050505050905090565b82805461456990615051565b90600052602060002090601f01602090048101928261458b57600085556145d1565b82601f106145a457805160ff19168380011785556145d1565b828001600101855582156145d1579182015b828111156145d15782518255916020019190600101906145b6565b506145dd92915061465c565b5090565b8280546145ed90615051565b90600052602060002090601f01602090048101928261460f57600085556145d1565b82601f1061462057805485556145d1565b828001600101855582156145d157600052602060002091601f016020900482015b828111156145d1578254825591600101919060010190614641565b5b808211156145dd576000815560010161465d565b8035600160a060020a038116811461468857600080fd5b919050565b60006020828403121561469f57600080fd5b6146a882614671565b9392505050565b6000815180845260005b818110156146d5576020818501810151868301820152016146b9565b818111156146e7576000602083870101525b50601f01601f19169290920160200192915050565b600081518084526020808501808196508284028101915082860160005b858110156147435782840389526147318483516146af565b98850198935090840190600101614719565b5091979650505050505050565b60608152600061476360608301866146fc565b828103602084015261477581866146fc565b9050828103604084015261478981856146fc565b9695505050505050565b60e060020a634e487b7102600052604160045260246000fd5b600082601f8301126147bd57600080fd5b813567ffffffffffffffff808211156147d8576147d8614793565b604051601f8301601f19908116603f0116810190828211818310171561480057614800614793565b8160405283815286602085880101111561481957600080fd5b836020870160208301376000602085830101528094505050505092915050565b60008060008060008060c0878903121561485257600080fd5b863567ffffffffffffffff8082111561486a57600080fd5b6148768a838b016147ac565b9750602089013591508082111561488c57600080fd5b6148988a838b016147ac565b965060408901359150808211156148ae57600080fd5b6148ba8a838b016147ac565b955060608901359150808211156148d057600080fd5b6148dc8a838b016147ac565b945060808901359150808211156148f257600080fd5b506148ff89828a016147ac565b92505061490e60a08801614671565b90509295509295509295565b6020808252825182820181905260009190848201906040850190845b8181101561495b578351600160a060020a031683529284019291840191600101614936565b50909695505050505050565b60006101008a83528060208401526149818184018b6146af565b90508281036040840152614995818a6146af565b905082810360608401526149a981896146af565b905082810360808401526149bd81886146af565b905082810360a08401526149d181876146af565b600160a060020a039590951660c0840152505090151560e0909101529695505050505050565b60006101208251818552614a0d828601826146af565b91505060208301518482036020860152614a2782826146af565b91505060408301518482036040860152614a4182826146af565b91505060608301518482036060860152614a5b82826146af565b91505060808301518482036080860152614a7582826146af565b91505060a083015184820360a0860152614a8f82826146af565b91505060c083015184820360c0860152614aa982826146af565b91505060e083015184820360e0860152614ac382826146af565b915050610100808401518583038287015261478983826146af565b60208082528251828201819052600091906040908185019080840286018301878501865b83811015614c5157603f1989840301855281516101808151855288820151818a870152614b31828701826146af565b9150508782015185820389870152614b4982826146af565b91505060608083015186830382880152614b6383826146af565b9250505060808083015186830382880152614b7e83826146af565b9250505060a08083015186830382880152614b9983826146af565b9250505060c08083015186830382880152614bb483826146af565b9250505060e08083015186830382880152614bcf83826146af565b925050506101008083015186830382880152614beb83826146af565b925050506101208083015186830382880152614c0783826146af565b925050506101408083015186830382880152614c2383826149f7565b92505050610160808301519250614c3d8187018415159052565b509588019593505090860190600101614b02565b509098975050505050505050565b60006101208b8352806020840152614c798184018c6146af565b90508281036040840152614c8d818b6146af565b90508281036060840152614ca1818a6146af565b90508281036080840152614cb581896146af565b905082810360a0840152614cc981886146af565b905082810360c0840152614cdd81876146af565b905082810360e0840152614cf181866146af565b9050828103610100840152614d0681856146af565b9c9b505050505050505050505050565b600060208284031215614d2857600080fd5b5035919050565b600080600080600080600080610100898b031215614d4c57600080fd5b883567ffffffffffffffff80821115614d6457600080fd5b614d708c838d016147ac565b995060208b0135915080821115614d8657600080fd5b614d928c838d016147ac565b985060408b0135915080821115614da857600080fd5b614db48c838d016147ac565b975060608b0135915080821115614dca57600080fd5b614dd68c838d016147ac565b965060808b0135915080821115614dec57600080fd5b614df88c838d016147ac565b955060a08b0135915080821115614e0e57600080fd5b614e1a8c838d016147ac565b945060c08b0135915080821115614e3057600080fd5b614e3c8c838d016147ac565b935060e08b0135915080821115614e5257600080fd5b50614e5f8b828c016147ac565b9150509295985092959890939650565b6000806000806000806000806000806101408b8d031215614e8f57600080fd5b614e988b614671565b995060208b0135985060408b013567ffffffffffffffff80821115614ebc57600080fd5b614ec88e838f016147ac565b995060608d0135915080821115614ede57600080fd5b614eea8e838f016147ac565b985060808d0135915080821115614f0057600080fd5b614f0c8e838f016147ac565b975060a08d0135915080821115614f2257600080fd5b614f2e8e838f016147ac565b965060c08d0135915080821115614f4457600080fd5b614f508e838f016147ac565b955060e08d0135915080821115614f6657600080fd5b614f728e838f016147ac565b94506101008d0135915080821115614f8957600080fd5b614f958e838f016147ac565b93506101208d0135915080821115614fac57600080fd5b50614fb98d828e016147ac565b9150509295989b9194979a5092959850565b600080600080600080600080610100898b031215614fe857600080fd5b614ff189614671565b9750602089013567ffffffffffffffff80821115614d8657600080fd5b6000806040838503121561502157600080fd5b61502a83614671565b946020939093013593505050565b60e060020a634e487b7102600052603260045260246000fd5b60028104600182168061506557607f821691505b602082108114156150895760e060020a634e487b7102600052602260045260246000fd5b50919050565b60e060020a634e487b7102600052601160045260246000fd5b60006000198214156150bc576150bc61508f565b5060010190565b600082198211156150d6576150d661508f565b500190565b60208082526021908201527f4d65646963616c20636f6d70616e79206973206e6f742072656769737465726560408201527f640000000000000000000000000000000000000000000000000000000000000060608201526080019056fea264697066735822122081fb1caac1fc54e1a41b4874b7de3e26d36636ea10ae3a47621cc44f68ad6a7064736f6c634300080b0033",
  "immutableReferences": {},
  "source": "pragma solidity ^0.8.0;\r\npragma experimental ABIEncoderV2;\r\n\r\ncontract Contract {\r\n  uint256 public reportIndex = 0;\r\n\r\n  struct ActionPlan {\r\n    string creator;\r\n    string actionPlanCreationDate;\r\n    string actionPlanDescription;\r\n    string clinicalOutcome;\r\n    string contributingFactors;\r\n    string suspectedMedication;\r\n    string actionToTake;\r\n    string medicalCompanyInvolved;\r\n    string ipfsHash;\r\n  }\r\n\r\n  struct Report {\r\n    uint256 reportId;\r\n    string reporterFirstName;\r\n    string reporterLastName;\r\n    string incidentDate;\r\n    string incidentDescription;\r\n    string incidentCategory;\r\n    string careSetting;\r\n    string medicationTaken;\r\n    string medicalCompanyInvolved;\r\n    string ipfsHash;\r\n    ActionPlan actionPlan;\r\n    bool isResolved;\r\n  }\r\n\r\n  Report[] reports;\r\n\r\n  uint256 public governmentListIndex = 0;\r\n  mapping(address => bool) isGovernment;\r\n\r\n  struct government {\r\n    uint256 id;\r\n    string name;\r\n    string country;\r\n    string phone;\r\n    string email;\r\n    string locationAddress;\r\n    ActionPlan[] actionPlans;\r\n    address addr;\r\n    bool isApproved;\r\n  }\r\n\r\n  mapping(address => government) governments;\r\n  address[] public governmentList;\r\n\r\n  function addGovernment(\r\n    string memory _name,\r\n    string memory _country,\r\n    string memory _phone,\r\n    string memory _email,\r\n    string memory _locationAddress,\r\n    address _addr\r\n  ) public {\r\n    require(!isGovernment[_addr], \"Government is already registered\");\r\n    governmentList.push(_addr);\r\n    isGovernment[_addr] = true;\r\n    governments[_addr].id = governmentListIndex;\r\n    governments[_addr].name = _name;\r\n    governments[_addr].country = _country;\r\n    governments[_addr].phone = _phone;\r\n    governments[_addr].email = _email;\r\n    governments[_addr].locationAddress = _locationAddress;\r\n    governments[_addr].addr = _addr;\r\n    governments[_addr].isApproved = true;\r\n    governmentListIndex = governmentListIndex + 1;\r\n  }\r\n\r\n  function getAllGovernmentAddresses() public view returns (address[] memory) {\r\n    return governmentList;\r\n  }\r\n\r\n  function getGovernmentById(uint256 _id)\r\n    public\r\n    view\r\n    returns (\r\n      uint256 id,\r\n      string memory name,\r\n      string memory country,\r\n      string memory phone,\r\n      string memory email,\r\n      string memory locationAddress,\r\n      address addr,\r\n      bool isApproved\r\n    )\r\n  {\r\n    uint256 i = 0;\r\n    for (; i < governmentList.length; i++) {\r\n      if (governments[governmentList[i]].id == _id) {\r\n        break;\r\n      }\r\n    }\r\n    require(\r\n      governments[governmentList[i]].id == _id,\r\n      \"Government could not be found with the given ID\"\r\n    );\r\n    government memory matchedEntry = governments[governmentList[i]];\r\n    return (\r\n      matchedEntry.id,\r\n      matchedEntry.name,\r\n      matchedEntry.country,\r\n      matchedEntry.phone,\r\n      matchedEntry.email,\r\n      matchedEntry.locationAddress,\r\n      matchedEntry.addr,\r\n      matchedEntry.isApproved\r\n    );\r\n  }\r\n\r\n  function getGovernmentProfile(address _address)\r\n    public\r\n    view\r\n    returns (\r\n      uint256 id,\r\n      string memory name,\r\n      string memory country,\r\n      string memory phone,\r\n      string memory email,\r\n      string memory locationAddress,\r\n      address addr,\r\n      bool isApproved\r\n    )\r\n  {\r\n    require(isGovernment[_address], \"Government is not registered\");\r\n    government memory matchedEntry = governments[_address];\r\n    return (\r\n      matchedEntry.id,\r\n      matchedEntry.name,\r\n      matchedEntry.country,\r\n      matchedEntry.phone,\r\n      matchedEntry.email,\r\n      matchedEntry.locationAddress,\r\n      matchedEntry.addr,\r\n      matchedEntry.isApproved\r\n    );\r\n  }\r\n\r\n  function addGovernmentActionPlan(\r\n    address _addr,\r\n    uint256 _reportId,\r\n    string memory _actionPlanCreationDate,\r\n    string memory _actionPlanDescription,\r\n    string memory _clinicalOutcome,\r\n    string memory _contributingFactors,\r\n    string memory _suspectedMedication,\r\n    string memory _actionToTake,\r\n    string memory _medicalCompanyInvolved,\r\n    string memory _ipfsHash\r\n  ) public {\r\n    require(isGovernment[_addr], \"Government is not registered\");\r\n    reports[_reportId].actionPlan.creator = governments[_addr].name;\r\n    reports[_reportId]\r\n      .actionPlan\r\n      .actionPlanCreationDate = _actionPlanCreationDate;\r\n    reports[_reportId]\r\n      .actionPlan\r\n      .actionPlanDescription = _actionPlanDescription;\r\n    reports[_reportId].actionPlan.clinicalOutcome = _clinicalOutcome;\r\n    reports[_reportId].actionPlan.contributingFactors = _contributingFactors;\r\n    reports[_reportId].actionPlan.suspectedMedication = _suspectedMedication;\r\n    reports[_reportId].actionPlan.actionToTake = _actionToTake;\r\n    reports[_reportId]\r\n      .actionPlan\r\n      .medicalCompanyInvolved = _medicalCompanyInvolved;\r\n    reports[_reportId].actionPlan.ipfsHash = _ipfsHash;\r\n  }\r\n\r\n  uint256 public medicalCompanyListIndex;\r\n\r\n  mapping(address => bool) isMedicalCompany;\r\n\r\n  mapping(string => bool) resolvedActionPlans;\r\n\r\n  struct medicalCompany {\r\n    uint256 id;\r\n    string companyName;\r\n    string companyType;\r\n    string phone;\r\n    string email;\r\n    string locationAddress;\r\n    address addr;\r\n    bool isApproved;\r\n  }\r\n\r\n  mapping(address => medicalCompany) medicalCompanies;\r\n  address[] public medicalCompanyList;\r\n\r\n  function addMedicalCompany(\r\n    string memory _companyName,\r\n    string memory _companyType,\r\n    string memory _phone,\r\n    string memory _email,\r\n    string memory _locationAddress,\r\n    address _addr\r\n  ) public {\r\n    require(!isMedicalCompany[_addr], \"Medical company is already registered\");\r\n    medicalCompanyList.push(_addr);\r\n    isMedicalCompany[_addr] = true;\r\n    medicalCompanies[_addr] = medicalCompany(\r\n      medicalCompanyListIndex,\r\n      _companyName,\r\n      _companyType,\r\n      _phone,\r\n      _email,\r\n      _locationAddress,\r\n      _addr,\r\n      true\r\n    );\r\n    medicalCompanyListIndex = medicalCompanyListIndex + 1;\r\n  }\r\n\r\n  function getAllMedicalCompanyAddresses()\r\n    public\r\n    view\r\n    returns (address[] memory)\r\n  {\r\n    return medicalCompanyList;\r\n  }\r\n\r\n  function getMedicalCompanyById(uint256 _id)\r\n    public\r\n    view\r\n    returns (\r\n      uint256 id,\r\n      string memory companyName,\r\n      string memory companyType,\r\n      string memory phone,\r\n      string memory email,\r\n      string memory locationAddress,\r\n      address addr,\r\n      bool isApproved\r\n    )\r\n  {\r\n    uint256 i = 0;\r\n    for (; i < medicalCompanyList.length; i++) {\r\n      if (medicalCompanies[medicalCompanyList[i]].id == _id) {\r\n        break;\r\n      }\r\n    }\r\n    require(\r\n      medicalCompanies[medicalCompanyList[i]].id == _id,\r\n      \"MedicalCompany could not be found with the given ID\"\r\n    );\r\n    medicalCompany memory matchedEntry = medicalCompanies[\r\n      medicalCompanyList[i]\r\n    ];\r\n    return (\r\n      matchedEntry.id,\r\n      matchedEntry.companyName,\r\n      matchedEntry.companyType,\r\n      matchedEntry.phone,\r\n      matchedEntry.email,\r\n      matchedEntry.locationAddress,\r\n      matchedEntry.addr,\r\n      matchedEntry.isApproved\r\n    );\r\n  }\r\n\r\n  function getMedicalCompanyProfile(address _address)\r\n    public\r\n    view\r\n    returns (\r\n      uint256 id,\r\n      string memory companyName,\r\n      string memory companyType,\r\n      string memory phone,\r\n      string memory email,\r\n      string memory locationAddress,\r\n      address addr,\r\n      bool isApproved\r\n    )\r\n  {\r\n    require(isMedicalCompany[_address], \"Medical company is not registered\");\r\n    medicalCompany memory matchedEntry = medicalCompanies[_address];\r\n    return (\r\n      matchedEntry.id,\r\n      matchedEntry.companyName,\r\n      matchedEntry.companyType,\r\n      matchedEntry.phone,\r\n      matchedEntry.email,\r\n      matchedEntry.locationAddress,\r\n      matchedEntry.addr,\r\n      matchedEntry.isApproved\r\n    );\r\n  }\r\n\r\n  function resolveActionPlan(address _address, uint256 _reportId) public {\r\n    require(isMedicalCompany[_address], \"Medical company is not registered\");\r\n    reports[_reportId].isResolved = true;\r\n  }\r\n\r\n  uint256 public patientListIndex = 0;\r\n\r\n  struct patient {\r\n    uint256 id;\r\n    string firstName;\r\n    string lastName;\r\n    string phone;\r\n    string email;\r\n    string gender;\r\n    string dateOfBirth;\r\n    string bloodType;\r\n    string homeAddress;\r\n    address addr;\r\n  }\r\n\r\n  address[] private patientList;\r\n  mapping(address => patient) patients;\r\n  mapping(address => bool) isPatient;\r\n\r\n  function addPatient(\r\n    string memory _firstName,\r\n    string memory _lastName,\r\n    string memory _phone,\r\n    string memory _email,\r\n    string memory _gender,\r\n    string memory _dateOfBirth,\r\n    string memory _bloodType,\r\n    string memory _homeAddress\r\n  ) public {\r\n    require(!isPatient[msg.sender], \"Patient is already registered\");\r\n    patientList.push(msg.sender);\r\n    isPatient[msg.sender] = true;\r\n    patients[msg.sender].id = patientListIndex;\r\n    patients[msg.sender].firstName = _firstName;\r\n    patients[msg.sender].lastName = _lastName;\r\n    patients[msg.sender].phone = _phone;\r\n    patients[msg.sender].email = _email;\r\n    patients[msg.sender].gender = _gender;\r\n    patients[msg.sender].dateOfBirth = _dateOfBirth;\r\n    patients[msg.sender].bloodType = _bloodType;\r\n    patients[msg.sender].homeAddress = _homeAddress;\r\n    patients[msg.sender].addr = msg.sender;\r\n    patientListIndex = patientListIndex + 1;\r\n  }\r\n\r\n  function getAllPatientAddresses() public view returns (address[] memory) {\r\n    return patientList;\r\n  }\r\n\r\n  function getPatientProfile(address _addr)\r\n    public\r\n    view\r\n    returns (\r\n      uint256 _id,\r\n      string memory _firstName,\r\n      string memory _lastName,\r\n      string memory _phone,\r\n      string memory _email,\r\n      string memory _gender,\r\n      string memory _dateOfBirth,\r\n      string memory _bloodType,\r\n      string memory _homeAddress\r\n    )\r\n  {\r\n    require(isPatient[_addr], \"Patient is not registered\");\r\n    patient memory matchedEntry = patients[_addr];\r\n    return (\r\n      matchedEntry.id,\r\n      matchedEntry.firstName,\r\n      matchedEntry.lastName,\r\n      matchedEntry.phone,\r\n      matchedEntry.email,\r\n      matchedEntry.gender,\r\n      matchedEntry.dateOfBirth,\r\n      matchedEntry.bloodType,\r\n      matchedEntry.homeAddress\r\n    );\r\n  }\r\n\r\n  function addPatientReport(\r\n    address _addr,\r\n    string memory _incidentDate,\r\n    string memory _incidentDescription,\r\n    string memory _incidentCategory,\r\n    string memory _careSetting,\r\n    string memory _medicationTaken,\r\n    string memory _medicalCompanyInvolved,\r\n    string memory _ipfsHash\r\n  ) public {\r\n    require(isPatient[_addr], \"Patient is not registered\");\r\n    reports.push(\r\n      Report(\r\n        reportIndex,\r\n        patients[_addr].firstName,\r\n        patients[_addr].lastName,\r\n        _incidentDate,\r\n        _incidentDescription,\r\n        _incidentCategory,\r\n        _careSetting,\r\n        _medicationTaken,\r\n        _medicalCompanyInvolved,\r\n        _ipfsHash,\r\n        ActionPlan(\"\", \"\", \"\", \"\", \"\", \"\", \"\", \"\", \"\"),\r\n        false\r\n      )\r\n    );\r\n    reportIndex = reportIndex + 1;\r\n  }\r\n\r\n  function getReports(address _addr)\r\n    public\r\n    view\r\n    returns (Report[] memory _reports)\r\n  {\r\n    return reports;\r\n  }\r\n\r\n  function getAllNames(address _addr)\r\n    public\r\n    view\r\n    returns (\r\n      string[] memory _patientNames,\r\n      string[] memory _medicalCompanyNames,\r\n      string[] memory _governmentNames\r\n    )\r\n  {\r\n    string[] memory patientNames = new string[](patientList.length);\r\n    string[] memory medicalCompanyNames = new string[](\r\n      medicalCompanyList.length\r\n    );\r\n    string[] memory governmentNames = new string[](governmentList.length);\r\n    for (uint256 i = 0; i < patientList.length; i++) {\r\n      patientNames[i] = patients[patientList[i]].firstName;\r\n    }\r\n\r\n    for (uint256 i = 0; i < medicalCompanyList.length; i++) {\r\n      medicalCompanyNames[i] = medicalCompanies[medicalCompanyList[i]]\r\n        .companyName;\r\n    }\r\n\r\n    for (uint256 i = 0; i < governmentList.length; i++) {\r\n      governmentNames[i] = governments[governmentList[i]].name;\r\n    }\r\n    return (patientNames, medicalCompanyNames, governmentNames);\r\n  }\r\n}\r\n",
  "sourcePath": "C:\\Users\\Phillip\\Documents\\GitHub\\blockchain-in-phr\\contracts\\Contract.sol",
  "compiler": {
    "name": "solc",
    "version": "0.8.11+commit.d7f03943.Emscripten.clang"
  },
  "schemaVersion": "3.4.4",
  "updatedAt": "2022-11-21T01:53:48.382Z",
  "networkType": "ethereum",
  "devdoc": {
    "kind": "dev",
    "methods": {},
    "version": 1
  },
  "userdoc": {
    "kind": "user",
    "methods": {},
    "version": 1
  }
}