{
  "contractName": "Contract",
  "abi": [
    {
      "inputs": [
        {
          "internalType": "uint256",
          "name": "",
          "type": "uint256"
        }
      ],
      "name": "governmentList",
      "outputs": [
        {
          "internalType": "address",
          "name": "",
          "type": "address"
        }
      ],
      "stateMutability": "view",
      "type": "function",
      "constant": true
    },
    {
      "inputs": [],
      "name": "governmentListIndex",
      "outputs": [
        {
          "internalType": "uint256",
          "name": "",
          "type": "uint256"
        }
      ],
      "stateMutability": "view",
      "type": "function",
      "constant": true
    },
    {
      "inputs": [
        {
          "internalType": "uint256",
          "name": "",
          "type": "uint256"
        }
      ],
      "name": "medicalCompanyList",
      "outputs": [
        {
          "internalType": "address",
          "name": "",
          "type": "address"
        }
      ],
      "stateMutability": "view",
      "type": "function",
      "constant": true
    },
    {
      "inputs": [],
      "name": "medicalCompanyListIndex",
      "outputs": [
        {
          "internalType": "uint256",
          "name": "",
          "type": "uint256"
        }
      ],
      "stateMutability": "view",
      "type": "function",
      "constant": true
    },
    {
      "inputs": [],
      "name": "patientListIndex",
      "outputs": [
        {
          "internalType": "uint256",
          "name": "",
          "type": "uint256"
        }
      ],
      "stateMutability": "view",
      "type": "function",
      "constant": true
    },
    {
      "inputs": [],
      "name": "reportIndex",
      "outputs": [
        {
          "internalType": "uint256",
          "name": "",
          "type": "uint256"
        }
      ],
      "stateMutability": "view",
      "type": "function",
      "constant": true
    },
    {
      "inputs": [
        {
          "internalType": "address",
          "name": "_addr",
          "type": "address"
        }
      ],
      "name": "getUserType",
      "outputs": [
        {
          "internalType": "string",
          "name": "userType",
          "type": "string"
        }
      ],
      "stateMutability": "view",
      "type": "function",
      "constant": true
    },
    {
      "inputs": [
        {
          "internalType": "string",
          "name": "_name",
          "type": "string"
        },
        {
          "internalType": "string",
          "name": "_country",
          "type": "string"
        },
        {
          "internalType": "string",
          "name": "_phone",
          "type": "string"
        },
        {
          "internalType": "string",
          "name": "_email",
          "type": "string"
        },
        {
          "internalType": "string",
          "name": "_locationAddress",
          "type": "string"
        },
        {
          "internalType": "address",
          "name": "_addr",
          "type": "address"
        }
      ],
      "name": "addGovernment",
      "outputs": [],
      "stateMutability": "nonpayable",
      "type": "function"
    },
    {
      "inputs": [
        {
          "internalType": "address",
          "name": "_address",
          "type": "address"
        }
      ],
      "name": "getGovernmentProfile",
      "outputs": [
        {
          "internalType": "uint256",
          "name": "id",
          "type": "uint256"
        },
        {
          "internalType": "string",
          "name": "name",
          "type": "string"
        },
        {
          "internalType": "string",
          "name": "country",
          "type": "string"
        },
        {
          "internalType": "string",
          "name": "phone",
          "type": "string"
        },
        {
          "internalType": "string",
          "name": "email",
          "type": "string"
        },
        {
          "internalType": "string",
          "name": "locationAddress",
          "type": "string"
        },
        {
          "internalType": "address",
          "name": "addr",
          "type": "address"
        },
        {
          "internalType": "bool",
          "name": "isApproved",
          "type": "bool"
        }
      ],
      "stateMutability": "view",
      "type": "function",
      "constant": true
    },
    {
      "inputs": [
        {
          "internalType": "address",
          "name": "_addr",
          "type": "address"
        },
        {
          "internalType": "uint256",
          "name": "_reportId",
          "type": "uint256"
        },
        {
          "internalType": "string",
          "name": "_actionPlanCreationDate",
          "type": "string"
        },
        {
          "internalType": "string",
          "name": "_actionPlanDescription",
          "type": "string"
        },
        {
          "internalType": "string",
          "name": "_clinicalOutcome",
          "type": "string"
        },
        {
          "internalType": "string",
          "name": "_contributingFactors",
          "type": "string"
        },
        {
          "internalType": "string",
          "name": "_suspectedMedication",
          "type": "string"
        },
        {
          "internalType": "string",
          "name": "_actionToTake",
          "type": "string"
        },
        {
          "internalType": "string",
          "name": "_medicalCompanyInvolved",
          "type": "string"
        },
        {
          "internalType": "string",
          "name": "_ipfsHash",
          "type": "string"
        }
      ],
      "name": "addGovernmentActionPlan",
      "outputs": [],
      "stateMutability": "nonpayable",
      "type": "function"
    },
    {
      "inputs": [
        {
          "internalType": "string",
          "name": "_companyName",
          "type": "string"
        },
        {
          "internalType": "string",
          "name": "_companyType",
          "type": "string"
        },
        {
          "internalType": "string",
          "name": "_phone",
          "type": "string"
        },
        {
          "internalType": "string",
          "name": "_email",
          "type": "string"
        },
        {
          "internalType": "string",
          "name": "_locationAddress",
          "type": "string"
        },
        {
          "internalType": "address",
          "name": "_addr",
          "type": "address"
        }
      ],
      "name": "addMedicalCompany",
      "outputs": [],
      "stateMutability": "nonpayable",
      "type": "function"
    },
    {
      "inputs": [
        {
          "internalType": "address",
          "name": "_address",
          "type": "address"
        }
      ],
      "name": "getMedicalCompanyProfile",
      "outputs": [
        {
          "internalType": "uint256",
          "name": "id",
          "type": "uint256"
        },
        {
          "internalType": "string",
          "name": "companyName",
          "type": "string"
        },
        {
          "internalType": "string",
          "name": "companyType",
          "type": "string"
        },
        {
          "internalType": "string",
          "name": "phone",
          "type": "string"
        },
        {
          "internalType": "string",
          "name": "email",
          "type": "string"
        },
        {
          "internalType": "string",
          "name": "locationAddress",
          "type": "string"
        },
        {
          "internalType": "address",
          "name": "addr",
          "type": "address"
        },
        {
          "internalType": "bool",
          "name": "isApproved",
          "type": "bool"
        }
      ],
      "stateMutability": "view",
      "type": "function",
      "constant": true
    },
    {
      "inputs": [
        {
          "internalType": "address",
          "name": "_address",
          "type": "address"
        },
        {
          "internalType": "uint256",
          "name": "_reportId",
          "type": "uint256"
        }
      ],
      "name": "resolveActionPlan",
      "outputs": [],
      "stateMutability": "nonpayable",
      "type": "function"
    },
    {
      "inputs": [
        {
          "internalType": "string",
          "name": "_firstName",
          "type": "string"
        },
        {
          "internalType": "string",
          "name": "_lastName",
          "type": "string"
        },
        {
          "internalType": "string",
          "name": "_phone",
          "type": "string"
        },
        {
          "internalType": "string",
          "name": "_email",
          "type": "string"
        },
        {
          "internalType": "string",
          "name": "_gender",
          "type": "string"
        },
        {
          "internalType": "string",
          "name": "_dateOfBirth",
          "type": "string"
        },
        {
          "internalType": "string",
          "name": "_bloodType",
          "type": "string"
        },
        {
          "internalType": "string",
          "name": "_homeAddress",
          "type": "string"
        }
      ],
      "name": "addPatient",
      "outputs": [],
      "stateMutability": "nonpayable",
      "type": "function"
    },
    {
      "inputs": [
        {
          "internalType": "address",
          "name": "_addr",
          "type": "address"
        }
      ],
      "name": "getPatientProfile",
      "outputs": [
        {
          "internalType": "uint256",
          "name": "_id",
          "type": "uint256"
        },
        {
          "internalType": "string",
          "name": "_firstName",
          "type": "string"
        },
        {
          "internalType": "string",
          "name": "_lastName",
          "type": "string"
        },
        {
          "internalType": "string",
          "name": "_phone",
          "type": "string"
        },
        {
          "internalType": "string",
          "name": "_email",
          "type": "string"
        },
        {
          "internalType": "string",
          "name": "_gender",
          "type": "string"
        },
        {
          "internalType": "string",
          "name": "_dateOfBirth",
          "type": "string"
        },
        {
          "internalType": "string",
          "name": "_bloodType",
          "type": "string"
        },
        {
          "internalType": "string",
          "name": "_homeAddress",
          "type": "string"
        }
      ],
      "stateMutability": "view",
      "type": "function",
      "constant": true
    },
    {
      "inputs": [
        {
          "internalType": "address",
          "name": "_addr",
          "type": "address"
        },
        {
          "internalType": "string",
          "name": "_incidentDate",
          "type": "string"
        },
        {
          "internalType": "string",
          "name": "_incidentDescription",
          "type": "string"
        },
        {
          "internalType": "string",
          "name": "_incidentCategory",
          "type": "string"
        },
        {
          "internalType": "string",
          "name": "_careSetting",
          "type": "string"
        },
        {
          "internalType": "string",
          "name": "_medicationTaken",
          "type": "string"
        },
        {
          "internalType": "string",
          "name": "_medicalCompanyInvolved",
          "type": "string"
        },
        {
          "internalType": "string",
          "name": "_ipfsHash",
          "type": "string"
        }
      ],
      "name": "addPatientReport",
      "outputs": [],
      "stateMutability": "nonpayable",
      "type": "function"
    },
    {
      "inputs": [
        {
          "internalType": "address",
          "name": "_addr",
          "type": "address"
        }
      ],
      "name": "getReports",
      "outputs": [
        {
          "components": [
            {
              "internalType": "uint256",
              "name": "reportId",
              "type": "uint256"
            },
            {
              "internalType": "string",
              "name": "reporterFirstName",
              "type": "string"
            },
            {
              "internalType": "string",
              "name": "reporterLastName",
              "type": "string"
            },
            {
              "internalType": "string",
              "name": "incidentDate",
              "type": "string"
            },
            {
              "internalType": "string",
              "name": "incidentDescription",
              "type": "string"
            },
            {
              "internalType": "string",
              "name": "incidentCategory",
              "type": "string"
            },
            {
              "internalType": "string",
              "name": "careSetting",
              "type": "string"
            },
            {
              "internalType": "string",
              "name": "medicationTaken",
              "type": "string"
            },
            {
              "internalType": "string",
              "name": "medicalCompanyInvolved",
              "type": "string"
            },
            {
              "internalType": "string",
              "name": "ipfsHash",
              "type": "string"
            },
            {
              "components": [
                {
                  "internalType": "string",
                  "name": "creator",
                  "type": "string"
                },
                {
                  "internalType": "string",
                  "name": "actionPlanCreationDate",
                  "type": "string"
                },
                {
                  "internalType": "string",
                  "name": "actionPlanDescription",
                  "type": "string"
                },
                {
                  "internalType": "string",
                  "name": "clinicalOutcome",
                  "type": "string"
                },
                {
                  "internalType": "string",
                  "name": "contributingFactors",
                  "type": "string"
                },
                {
                  "internalType": "string",
                  "name": "suspectedMedication",
                  "type": "string"
                },
                {
                  "internalType": "string",
                  "name": "actionToTake",
                  "type": "string"
                },
                {
                  "internalType": "string",
                  "name": "medicalCompanyInvolved",
                  "type": "string"
                },
                {
                  "internalType": "string",
                  "name": "ipfsHash",
                  "type": "string"
                }
              ],
              "internalType": "struct Contract.ActionPlan",
              "name": "actionPlan",
              "type": "tuple"
            },
            {
              "internalType": "bool",
              "name": "isResolved",
              "type": "bool"
            }
          ],
          "internalType": "struct Contract.Report[]",
          "name": "_reports",
          "type": "tuple[]"
        }
      ],
      "stateMutability": "view",
      "type": "function",
      "constant": true
    },
    {
      "inputs": [
        {
          "internalType": "address",
          "name": "_addr",
          "type": "address"
        },
        {
          "internalType": "uint256",
          "name": "_reportId",
          "type": "uint256"
        }
      ],
      "name": "getReportById",
      "outputs": [
        {
          "components": [
            {
              "internalType": "uint256",
              "name": "reportId",
              "type": "uint256"
            },
            {
              "internalType": "string",
              "name": "reporterFirstName",
              "type": "string"
            },
            {
              "internalType": "string",
              "name": "reporterLastName",
              "type": "string"
            },
            {
              "internalType": "string",
              "name": "incidentDate",
              "type": "string"
            },
            {
              "internalType": "string",
              "name": "incidentDescription",
              "type": "string"
            },
            {
              "internalType": "string",
              "name": "incidentCategory",
              "type": "string"
            },
            {
              "internalType": "string",
              "name": "careSetting",
              "type": "string"
            },
            {
              "internalType": "string",
              "name": "medicationTaken",
              "type": "string"
            },
            {
              "internalType": "string",
              "name": "medicalCompanyInvolved",
              "type": "string"
            },
            {
              "internalType": "string",
              "name": "ipfsHash",
              "type": "string"
            },
            {
              "components": [
                {
                  "internalType": "string",
                  "name": "creator",
                  "type": "string"
                },
                {
                  "internalType": "string",
                  "name": "actionPlanCreationDate",
                  "type": "string"
                },
                {
                  "internalType": "string",
                  "name": "actionPlanDescription",
                  "type": "string"
                },
                {
                  "internalType": "string",
                  "name": "clinicalOutcome",
                  "type": "string"
                },
                {
                  "internalType": "string",
                  "name": "contributingFactors",
                  "type": "string"
                },
                {
                  "internalType": "string",
                  "name": "suspectedMedication",
                  "type": "string"
                },
                {
                  "internalType": "string",
                  "name": "actionToTake",
                  "type": "string"
                },
                {
                  "internalType": "string",
                  "name": "medicalCompanyInvolved",
                  "type": "string"
                },
                {
                  "internalType": "string",
                  "name": "ipfsHash",
                  "type": "string"
                }
              ],
              "internalType": "struct Contract.ActionPlan",
              "name": "actionPlan",
              "type": "tuple"
            },
            {
              "internalType": "bool",
              "name": "isResolved",
              "type": "bool"
            }
          ],
          "internalType": "struct Contract.Report",
          "name": "_report",
          "type": "tuple"
        }
      ],
      "stateMutability": "view",
      "type": "function",
      "constant": true
    },
    {
      "inputs": [
        {
          "internalType": "address",
          "name": "_addr",
          "type": "address"
        },
        {
          "internalType": "uint256",
          "name": "_reportId",
          "type": "uint256"
        },
        {
          "internalType": "string",
          "name": "_incidentDate",
          "type": "string"
        },
        {
          "internalType": "string",
          "name": "_incidentDescription",
          "type": "string"
        },
        {
          "internalType": "string",
          "name": "_incidentCategory",
          "type": "string"
        },
        {
          "internalType": "string",
          "name": "_careSetting",
          "type": "string"
        },
        {
          "internalType": "string",
          "name": "_medicationTaken",
          "type": "string"
        },
        {
          "internalType": "string",
          "name": "_medicalCompanyInvolved",
          "type": "string"
        },
        {
          "internalType": "string",
          "name": "_ipfsHash",
          "type": "string"
        }
      ],
      "name": "editPatientReport",
      "outputs": [],
      "stateMutability": "nonpayable",
      "type": "function"
    },
    {
      "inputs": [
        {
          "internalType": "address",
          "name": "_addr",
          "type": "address"
        }
      ],
      "name": "getAllNames",
      "outputs": [
        {
          "internalType": "string[]",
          "name": "_patientFirstNames",
          "type": "string[]"
        },
        {
          "internalType": "string[]",
          "name": "_patientLastNames",
          "type": "string[]"
        },
        {
          "internalType": "string[]",
          "name": "_medicalCompanyNames",
          "type": "string[]"
        },
        {
          "internalType": "string[]",
          "name": "_governmentNames",
          "type": "string[]"
        }
      ],
      "stateMutability": "view",
      "type": "function",
      "constant": true
    }
  ],
  "bytecode": "0x6080604052600060015560006003556000600c5534801561001f57600080fd5b506152028061002f6000396000f3fe608060405234801561001057600080fd5b5060043610610149576000357c010000000000000000000000000000000000000000000000000000000090048063699d347d116100ca5780638b626fb51161008e5780638b626fb5146102de5780639312a9ec146102f15780639930b398146103045780639b9831ed14610317578063ea1cb8531461032a57600080fd5b8063699d347d1461024d5780637658d6c3146102785780637d0f98bb1461028b57806385b86ab71461029e5780638b3f863f146102be57600080fd5b8063461a208211610111578063461a2082146101ed5780634e405989146102155780634e528f2814610228578063564905971461023b57806358a8c7da1461024457600080fd5b8063067dcc321461014e57806315414aee1461017a578063307c2c0e1461018f5780633242948e146101a65780633d3d7182146101cd575b600080fd5b61016161015c3660046145a8565b610333565b604051610171949392919061466e565b60405180910390f35b61018d61018836600461476c565b610890565b005b61019860015481565b604051908152602001610171565b6101b96101b43660046145a8565b610b1d565b60405161017198979695949392919061484d565b6101e06101db3660046145a8565b6114b7565b6040516101719190614aff565b6102006101fb3660046145a8565b611f8e565b60405161017199989796959493929190614b60565b61018d610223366004614c17565b612526565b61018d61023636600461476c565b6126f2565b610198600c5481565b61019860075481565b61026061025b366004614d4d565b61299d565b604051600160a060020a039091168152602001610171565b6101b96102863660046145a8565b6129c7565b61018d610299366004614d66565b612dad565b6102b16102ac366004614ea6565b61304c565b6040516101719190614ed0565b6102d16102cc3660046145a8565b613afc565b6040516101719190614ee3565b61018d6102ec366004614ef6565b613ba8565b61018d6102ff366004615052565b613e5d565b61018d610312366004614ea6565b614344565b610260610325366004614d4d565b6143ba565b61019860035481565b6060806060806000600d8054905067ffffffffffffffff811115610359576103596146c6565b60405190808252806020026020018201604052801561038c57816020015b60608152602001906001900390816103775790505b50600d5490915060009067ffffffffffffffff8111156103ae576103ae6146c6565b6040519080825280602002602001820160405280156103e157816020015b60608152602001906001900390816103cc5790505b50600b5490915060009067ffffffffffffffff811115610403576104036146c6565b60405190808252806020026020018201604052801561043657816020015b60608152602001906001900390816104215790505b5060065490915060009067ffffffffffffffff811115610458576104586146c6565b60405190808252806020026020018201604052801561048b57816020015b60608152602001906001900390816104765790505b50905060005b600d5481101561067657600e6000600d83815481106104b2576104b2615095565b6000918252602080832090910154600160a060020a03168352820192909252604001902060010180546104e4906150ae565b80601f0160208091040260200160405190810160405280929190818152602001828054610510906150ae565b801561055d5780601f106105325761010080835404028352916020019161055d565b820191906000526020600020905b81548152906001019060200180831161054057829003601f168201915b505050505085828151811061057457610574615095565b6020026020010181905250600e6000600d838154811061059657610596615095565b6000918252602080832090910154600160a060020a03168352820192909252604001902060020180546105c8906150ae565b80601f01602080910402602001604051908101604052809291908181526020018280546105f4906150ae565b80156106415780601f1061061657610100808354040283529160200191610641565b820191906000526020600020905b81548152906001019060200180831161062457829003601f168201915b505050505084828151811061065857610658615095565b6020026020010181905250808061066e90615105565b915050610491565b5060005b600b5481101561077b57600a6000600b838154811061069b5761069b615095565b6000918252602080832090910154600160a060020a03168352820192909252604001902060010180546106cd906150ae565b80601f01602080910402602001604051908101604052809291908181526020018280546106f9906150ae565b80156107465780601f1061071b57610100808354040283529160200191610746565b820191906000526020600020905b81548152906001019060200180831161072957829003601f168201915b505050505083828151811061075d5761075d615095565b6020026020010181905250808061077390615105565b91505061067a565b5060005b6006548110156108805760056000600683815481106107a0576107a0615095565b6000918252602080832090910154600160a060020a03168352820192909252604001902060010180546107d2906150ae565b80601f01602080910402602001604051908101604052809291908181526020018280546107fe906150ae565b801561084b5780601f106108205761010080835404028352916020019161084b565b820191906000526020600020905b81548152906001019060200180831161082e57829003601f168201915b505050505082828151811061086257610862615095565b6020026020010181905250808061087890615105565b91505061077f565b5092989197509550909350915050565b600160a060020a03811660009081526004602052604090205460ff16156109015760405160e560020a62461bcd02815260206004820181905260248201527f476f7665726e6d656e7420697320616c7265616479207265676973746572656460448201526064015b60405180910390fd5b6006805460018082019092557ff652222313e28459528d920b65115c16c04f3efc82aaedc97be59f3f377c0d3f01805473ffffffffffffffffffffffffffffffffffffffff1916600160a060020a0384169081179091556000818152600460209081526040808320805460ff191690951790945583518085018552600a81527f676f7665726e6d656e74000000000000000000000000000000000000000000008183019081529383529082905292902091516109be9291906143ca565b50600354600160a060020a038216600090815260056020908152604090912091825587516109f292600101918901906143ca565b50600160a060020a03811660009081526005602090815260409091208651610a22926002909201918801906143ca565b50600160a060020a03811660009081526005602090815260409091208551610a52926003909201918701906143ca565b50600160a060020a03811660009081526005602090815260409091208451610a82926004909201918601906143ca565b50600160a060020a03811660009081526005602081815260409092208451610ab2939190920191908501906143ca565b50600160a060020a0381166000818152600560205260409020600701805474ffffffffffffffffffffffffffffffffffffffffff191690911774010000000000000000000000000000000000000000179055600354610b12906001615120565b600355505050505050565b600160a060020a03811660009081526004602052604081205460609081908190819081908690819060ff16610b975760405160e560020a62461bcd02815260206004820152601c60248201527f476f7665726e6d656e74206973206e6f7420726567697374657265640000000060448201526064016108f8565b6000600560008b600160a060020a0316600160a060020a031681526020019081526020016000206040518061012001604052908160008201548152602001600182018054610be4906150ae565b80601f0160208091040260200160405190810160405280929190818152602001828054610c10906150ae565b8015610c5d5780601f10610c3257610100808354040283529160200191610c5d565b820191906000526020600020905b815481529060010190602001808311610c4057829003601f168201915b50505050508152602001600282018054610c76906150ae565b80601f0160208091040260200160405190810160405280929190818152602001828054610ca2906150ae565b8015610cef5780601f10610cc457610100808354040283529160200191610cef565b820191906000526020600020905b815481529060010190602001808311610cd257829003601f168201915b50505050508152602001600382018054610d08906150ae565b80601f0160208091040260200160405190810160405280929190818152602001828054610d34906150ae565b8015610d815780601f10610d5657610100808354040283529160200191610d81565b820191906000526020600020905b815481529060010190602001808311610d6457829003601f168201915b50505050508152602001600482018054610d9a906150ae565b80601f0160208091040260200160405190810160405280929190818152602001828054610dc6906150ae565b8015610e135780601f10610de857610100808354040283529160200191610e13565b820191906000526020600020905b815481529060010190602001808311610df657829003601f168201915b50505050508152602001600582018054610e2c906150ae565b80601f0160208091040260200160405190810160405280929190818152602001828054610e58906150ae565b8015610ea55780601f10610e7a57610100808354040283529160200191610ea5565b820191906000526020600020905b815481529060010190602001808311610e8857829003601f168201915b5050505050815260200160068201805480602002602001604051908101604052809291908181526020016000905b82821015611428578382906000526020600020906009020160405180610120016040529081600082018054610f07906150ae565b80601f0160208091040260200160405190810160405280929190818152602001828054610f33906150ae565b8015610f805780601f10610f5557610100808354040283529160200191610f80565b820191906000526020600020905b815481529060010190602001808311610f6357829003601f168201915b50505050508152602001600182018054610f99906150ae565b80601f0160208091040260200160405190810160405280929190818152602001828054610fc5906150ae565b80156110125780601f10610fe757610100808354040283529160200191611012565b820191906000526020600020905b815481529060010190602001808311610ff557829003601f168201915b5050505050815260200160028201805461102b906150ae565b80601f0160208091040260200160405190810160405280929190818152602001828054611057906150ae565b80156110a45780601f10611079576101008083540402835291602001916110a4565b820191906000526020600020905b81548152906001019060200180831161108757829003601f168201915b505050505081526020016003820180546110bd906150ae565b80601f01602080910402602001604051908101604052809291908181526020018280546110e9906150ae565b80156111365780601f1061110b57610100808354040283529160200191611136565b820191906000526020600020905b81548152906001019060200180831161111957829003601f168201915b5050505050815260200160048201805461114f906150ae565b80601f016020809104026020016040519081016040528092919081815260200182805461117b906150ae565b80156111c85780601f1061119d576101008083540402835291602001916111c8565b820191906000526020600020905b8154815290600101906020018083116111ab57829003601f168201915b505050505081526020016005820180546111e1906150ae565b80601f016020809104026020016040519081016040528092919081815260200182805461120d906150ae565b801561125a5780601f1061122f5761010080835404028352916020019161125a565b820191906000526020600020905b81548152906001019060200180831161123d57829003601f168201915b50505050508152602001600682018054611273906150ae565b80601f016020809104026020016040519081016040528092919081815260200182805461129f906150ae565b80156112ec5780601f106112c1576101008083540402835291602001916112ec565b820191906000526020600020905b8154815290600101906020018083116112cf57829003601f168201915b50505050508152602001600782018054611305906150ae565b80601f0160208091040260200160405190810160405280929190818152602001828054611331906150ae565b801561137e5780601f106113535761010080835404028352916020019161137e565b820191906000526020600020905b81548152906001019060200180831161136157829003601f168201915b50505050508152602001600882018054611397906150ae565b80601f01602080910402602001604051908101604052809291908181526020018280546113c3906150ae565b80156114105780601f106113e557610100808354040283529160200191611410565b820191906000526020600020905b8154815290600101906020018083116113f357829003601f168201915b50505050508152505081526020019060010190610ed3565b5050509082525060079190910154600160a060020a03811660208084019190915260ff74010000000000000000000000000000000000000000909204919091161515604092830152825190830151918301516060840151608085015160a086015160e08701516101009790970151949f50949d50919b5099509750909550909350915050919395975091939597565b60606002805480602002602001604051908101604052809291908181526020016000905b82821015611f8357838290600052602060002090601402016040518061018001604052908160008201548152602001600182018054611519906150ae565b80601f0160208091040260200160405190810160405280929190818152602001828054611545906150ae565b80156115925780601f1061156757610100808354040283529160200191611592565b820191906000526020600020905b81548152906001019060200180831161157557829003601f168201915b505050505081526020016002820180546115ab906150ae565b80601f01602080910402602001604051908101604052809291908181526020018280546115d7906150ae565b80156116245780601f106115f957610100808354040283529160200191611624565b820191906000526020600020905b81548152906001019060200180831161160757829003601f168201915b5050505050815260200160038201805461163d906150ae565b80601f0160208091040260200160405190810160405280929190818152602001828054611669906150ae565b80156116b65780601f1061168b576101008083540402835291602001916116b6565b820191906000526020600020905b81548152906001019060200180831161169957829003601f168201915b505050505081526020016004820180546116cf906150ae565b80601f01602080910402602001604051908101604052809291908181526020018280546116fb906150ae565b80156117485780601f1061171d57610100808354040283529160200191611748565b820191906000526020600020905b81548152906001019060200180831161172b57829003601f168201915b50505050508152602001600582018054611761906150ae565b80601f016020809104026020016040519081016040528092919081815260200182805461178d906150ae565b80156117da5780601f106117af576101008083540402835291602001916117da565b820191906000526020600020905b8154815290600101906020018083116117bd57829003601f168201915b505050505081526020016006820180546117f3906150ae565b80601f016020809104026020016040519081016040528092919081815260200182805461181f906150ae565b801561186c5780601f106118415761010080835404028352916020019161186c565b820191906000526020600020905b81548152906001019060200180831161184f57829003601f168201915b50505050508152602001600782018054611885906150ae565b80601f01602080910402602001604051908101604052809291908181526020018280546118b1906150ae565b80156118fe5780601f106118d3576101008083540402835291602001916118fe565b820191906000526020600020905b8154815290600101906020018083116118e157829003601f168201915b50505050508152602001600882018054611917906150ae565b80601f0160208091040260200160405190810160405280929190818152602001828054611943906150ae565b80156119905780601f1061196557610100808354040283529160200191611990565b820191906000526020600020905b81548152906001019060200180831161197357829003601f168201915b505050505081526020016009820180546119a9906150ae565b80601f01602080910402602001604051908101604052809291908181526020018280546119d5906150ae565b8015611a225780601f106119f757610100808354040283529160200191611a22565b820191906000526020600020905b815481529060010190602001808311611a0557829003601f168201915b50505050508152602001600a820160405180610120016040529081600082018054611a4c906150ae565b80601f0160208091040260200160405190810160405280929190818152602001828054611a78906150ae565b8015611ac55780601f10611a9a57610100808354040283529160200191611ac5565b820191906000526020600020905b815481529060010190602001808311611aa857829003601f168201915b50505050508152602001600182018054611ade906150ae565b80601f0160208091040260200160405190810160405280929190818152602001828054611b0a906150ae565b8015611b575780601f10611b2c57610100808354040283529160200191611b57565b820191906000526020600020905b815481529060010190602001808311611b3a57829003601f168201915b50505050508152602001600282018054611b70906150ae565b80601f0160208091040260200160405190810160405280929190818152602001828054611b9c906150ae565b8015611be95780601f10611bbe57610100808354040283529160200191611be9565b820191906000526020600020905b815481529060010190602001808311611bcc57829003601f168201915b50505050508152602001600382018054611c02906150ae565b80601f0160208091040260200160405190810160405280929190818152602001828054611c2e906150ae565b8015611c7b5780601f10611c5057610100808354040283529160200191611c7b565b820191906000526020600020905b815481529060010190602001808311611c5e57829003601f168201915b50505050508152602001600482018054611c94906150ae565b80601f0160208091040260200160405190810160405280929190818152602001828054611cc0906150ae565b8015611d0d5780601f10611ce257610100808354040283529160200191611d0d565b820191906000526020600020905b815481529060010190602001808311611cf057829003601f168201915b50505050508152602001600582018054611d26906150ae565b80601f0160208091040260200160405190810160405280929190818152602001828054611d52906150ae565b8015611d9f5780601f10611d7457610100808354040283529160200191611d9f565b820191906000526020600020905b815481529060010190602001808311611d8257829003601f168201915b50505050508152602001600682018054611db8906150ae565b80601f0160208091040260200160405190810160405280929190818152602001828054611de4906150ae565b8015611e315780601f10611e0657610100808354040283529160200191611e31565b820191906000526020600020905b815481529060010190602001808311611e1457829003601f168201915b50505050508152602001600782018054611e4a906150ae565b80601f0160208091040260200160405190810160405280929190818152602001828054611e76906150ae565b8015611ec35780601f10611e9857610100808354040283529160200191611ec3565b820191906000526020600020905b815481529060010190602001808311611ea657829003601f168201915b50505050508152602001600882018054611edc906150ae565b80601f0160208091040260200160405190810160405280929190818152602001828054611f08906150ae565b8015611f555780601f10611f2a57610100808354040283529160200191611f55565b820191906000526020600020905b815481529060010190602001808311611f3857829003601f168201915b5050509190925250505081526013919091015460ff16151560209182015290825260019290920191016114db565b505050509050919050565b600160a060020a0381166000908152600f6020526040812054606090819081908190819081908190819060ff16611fda5760405160e560020a62461bcd0281526004016108f890615138565b6000600e60008c600160a060020a0316600160a060020a031681526020019081526020016000206040518061014001604052908160008201548152602001600182018054612027906150ae565b80601f0160208091040260200160405190810160405280929190818152602001828054612053906150ae565b80156120a05780601f10612075576101008083540402835291602001916120a0565b820191906000526020600020905b81548152906001019060200180831161208357829003601f168201915b505050505081526020016002820180546120b9906150ae565b80601f01602080910402602001604051908101604052809291908181526020018280546120e5906150ae565b80156121325780601f1061210757610100808354040283529160200191612132565b820191906000526020600020905b81548152906001019060200180831161211557829003601f168201915b5050505050815260200160038201805461214b906150ae565b80601f0160208091040260200160405190810160405280929190818152602001828054612177906150ae565b80156121c45780601f10612199576101008083540402835291602001916121c4565b820191906000526020600020905b8154815290600101906020018083116121a757829003601f168201915b505050505081526020016004820180546121dd906150ae565b80601f0160208091040260200160405190810160405280929190818152602001828054612209906150ae565b80156122565780601f1061222b57610100808354040283529160200191612256565b820191906000526020600020905b81548152906001019060200180831161223957829003601f168201915b5050505050815260200160058201805461226f906150ae565b80601f016020809104026020016040519081016040528092919081815260200182805461229b906150ae565b80156122e85780601f106122bd576101008083540402835291602001916122e8565b820191906000526020600020905b8154815290600101906020018083116122cb57829003601f168201915b50505050508152602001600682018054612301906150ae565b80601f016020809104026020016040519081016040528092919081815260200182805461232d906150ae565b801561237a5780601f1061234f5761010080835404028352916020019161237a565b820191906000526020600020905b81548152906001019060200180831161235d57829003601f168201915b50505050508152602001600782018054612393906150ae565b80601f01602080910402602001604051908101604052809291908181526020018280546123bf906150ae565b801561240c5780601f106123e15761010080835404028352916020019161240c565b820191906000526020600020905b8154815290600101906020018083116123ef57829003601f168201915b50505050508152602001600882018054612425906150ae565b80601f0160208091040260200160405190810160405280929190818152602001828054612451906150ae565b801561249e5780601f106124735761010080835404028352916020019161249e565b820191906000526020600020905b81548152906001019060200180831161248157829003601f168201915b505050505081526020016009820160009054906101000a9004600160a060020a0316600160a060020a0316600160a060020a0316815250509050806000015181602001518260400151836060015184608001518560a001518660c001518760e00151886101000151995099509950995099509950995099509950509193959799909294969850565b336000908152600f602052604090205460ff166125585760405160e560020a62461bcd0281526004016108f890615138565b866002898154811061256c5761256c615095565b906000526020600020906014020160030190805190602001906125909291906143ca565b5085600289815481106125a5576125a5615095565b906000526020600020906014020160040190805190602001906125c99291906143ca565b5084600289815481106125de576125de615095565b906000526020600020906014020160050190805190602001906126029291906143ca565b50836002898154811061261757612617615095565b9060005260206000209060140201600601908051906020019061263b9291906143ca565b50826002898154811061265057612650615095565b906000526020600020906014020160070190805190602001906126749291906143ca565b50816002898154811061268957612689615095565b906000526020600020906014020160080190805190602001906126ad9291906143ca565b5080600289815481106126c2576126c2615095565b906000526020600020906014020160090190805190602001906126e69291906143ca565b50505050505050505050565b600160a060020a03811660009081526008602052604090205460ff16156127845760405160e560020a62461bcd02815260206004820152602560248201527f4d65646963616c20636f6d70616e7920697320616c726561647920726567697360448201527f746572656400000000000000000000000000000000000000000000000000000060648201526084016108f8565b600b805460018082019092557f0175b7a638427703f0dbe7bb9bbf987a2551717b34e79f33b5b1008d1fa01db901805473ffffffffffffffffffffffffffffffffffffffff1916600160a060020a0384169081179091556000818152600860209081526040808320805460ff191690951790945583518085018552600e81527f6d65646963616c436f6d70616e790000000000000000000000000000000000008183019081529383529082905292902091516128419291906143ca565b50604080516101008101825260075481526020808201898152828401899052606083018890526080830187905260a08301869052600160a060020a03851660c08401819052600160e085018190526000918252600a84529490208351815590518051939491936128b9939285019291909101906143ca565b50604082015180516128d59160028401916020909101906143ca565b50606082015180516128f19160038401916020909101906143ca565b506080820151805161290d9160048401916020909101906143ca565b5060a082015180516129299160058401916020909101906143ca565b5060c08201516006909101805460e0909301511515740100000000000000000000000000000000000000000274ffffffffffffffffffffffffffffffffffffffffff19909316600160a060020a0390921691909117919091179055600754612992906001615120565b600755505050505050565b600b81815481106129ad57600080fd5b600091825260209091200154600160a060020a0316905081565b600160a060020a03811660009081526008602052604081205460609081908190819081908690819060ff16612a115760405160e560020a62461bcd0281526004016108f89061516f565b6000600a60008b600160a060020a0316600160a060020a031681526020019081526020016000206040518061010001604052908160008201548152602001600182018054612a5e906150ae565b80601f0160208091040260200160405190810160405280929190818152602001828054612a8a906150ae565b8015612ad75780601f10612aac57610100808354040283529160200191612ad7565b820191906000526020600020905b815481529060010190602001808311612aba57829003601f168201915b50505050508152602001600282018054612af0906150ae565b80601f0160208091040260200160405190810160405280929190818152602001828054612b1c906150ae565b8015612b695780601f10612b3e57610100808354040283529160200191612b69565b820191906000526020600020905b815481529060010190602001808311612b4c57829003601f168201915b50505050508152602001600382018054612b82906150ae565b80601f0160208091040260200160405190810160405280929190818152602001828054612bae906150ae565b8015612bfb5780601f10612bd057610100808354040283529160200191612bfb565b820191906000526020600020905b815481529060010190602001808311612bde57829003601f168201915b50505050508152602001600482018054612c14906150ae565b80601f0160208091040260200160405190810160405280929190818152602001828054612c40906150ae565b8015612c8d5780601f10612c6257610100808354040283529160200191612c8d565b820191906000526020600020905b815481529060010190602001808311612c7057829003601f168201915b50505050508152602001600582018054612ca6906150ae565b80601f0160208091040260200160405190810160405280929190818152602001828054612cd2906150ae565b8015612d1f5780601f10612cf457610100808354040283529160200191612d1f565b820191906000526020600020905b815481529060010190602001808311612d0257829003601f168201915b505050918352505060069190910154600160a060020a03811660208084019190915260ff74010000000000000000000000000000000000000000909204919091161515604092830152825190830151918301516060840151608085015160a086015160c087015160e090970151949f50949d50919b5099509750909550909350915050919395975091939597565b336000908152600f602052604090205460ff1615612e105760405160e560020a62461bcd02815260206004820152601d60248201527f50617469656e7420697320616c7265616479207265676973746572656400000060448201526064016108f8565b600d805460018181019092557fd7b6990105719101dabeb77144f2a3385c8033acd3af97e9423a695e81ad1eb501805473ffffffffffffffffffffffffffffffffffffffff1916339081179091556000818152600f60209081526040808320805460ff191690951790945583518085018552600781527f70617469656e7400000000000000000000000000000000000000000000000000818301908152938352908290529290209151612ec49291906143ca565b50600c54336000908152600e602090815260409091209182558951612eef92600101918b01906143ca565b50336000908152600e602090815260409091208851612f16926002909201918a01906143ca565b50336000908152600e602090815260409091208751612f3d926003909201918901906143ca565b50336000908152600e602090815260409091208651612f64926004909201918801906143ca565b50336000908152600e602090815260409091208551612f8b926005909201918701906143ca565b50336000908152600e602090815260409091208451612fb2926006909201918601906143ca565b50336000908152600e602090815260409091208351612fd9926007909201918501906143ca565b50336000908152600e602090815260409091208251613000926008909201918401906143ca565b50336000818152600e60205260409020600901805473ffffffffffffffffffffffffffffffffffffffff19169091179055600c5461303f906001615120565b600c555050505050505050565b61305461444e565b6002828154811061306757613067615095565b9060005260206000209060140201604051806101800160405290816000820154815260200160018201805461309b906150ae565b80601f01602080910402602001604051908101604052809291908181526020018280546130c7906150ae565b80156131145780601f106130e957610100808354040283529160200191613114565b820191906000526020600020905b8154815290600101906020018083116130f757829003601f168201915b5050505050815260200160028201805461312d906150ae565b80601f0160208091040260200160405190810160405280929190818152602001828054613159906150ae565b80156131a65780601f1061317b576101008083540402835291602001916131a6565b820191906000526020600020905b81548152906001019060200180831161318957829003601f168201915b505050505081526020016003820180546131bf906150ae565b80601f01602080910402602001604051908101604052809291908181526020018280546131eb906150ae565b80156132385780601f1061320d57610100808354040283529160200191613238565b820191906000526020600020905b81548152906001019060200180831161321b57829003601f168201915b50505050508152602001600482018054613251906150ae565b80601f016020809104026020016040519081016040528092919081815260200182805461327d906150ae565b80156132ca5780601f1061329f576101008083540402835291602001916132ca565b820191906000526020600020905b8154815290600101906020018083116132ad57829003601f168201915b505050505081526020016005820180546132e3906150ae565b80601f016020809104026020016040519081016040528092919081815260200182805461330f906150ae565b801561335c5780601f106133315761010080835404028352916020019161335c565b820191906000526020600020905b81548152906001019060200180831161333f57829003601f168201915b50505050508152602001600682018054613375906150ae565b80601f01602080910402602001604051908101604052809291908181526020018280546133a1906150ae565b80156133ee5780601f106133c3576101008083540402835291602001916133ee565b820191906000526020600020905b8154815290600101906020018083116133d157829003601f168201915b50505050508152602001600782018054613407906150ae565b80601f0160208091040260200160405190810160405280929190818152602001828054613433906150ae565b80156134805780601f1061345557610100808354040283529160200191613480565b820191906000526020600020905b81548152906001019060200180831161346357829003601f168201915b50505050508152602001600882018054613499906150ae565b80601f01602080910402602001604051908101604052809291908181526020018280546134c5906150ae565b80156135125780601f106134e757610100808354040283529160200191613512565b820191906000526020600020905b8154815290600101906020018083116134f557829003601f168201915b5050505050815260200160098201805461352b906150ae565b80601f0160208091040260200160405190810160405280929190818152602001828054613557906150ae565b80156135a45780601f10613579576101008083540402835291602001916135a4565b820191906000526020600020905b81548152906001019060200180831161358757829003601f168201915b50505050508152602001600a8201604051806101200160405290816000820180546135ce906150ae565b80601f01602080910402602001604051908101604052809291908181526020018280546135fa906150ae565b80156136475780601f1061361c57610100808354040283529160200191613647565b820191906000526020600020905b81548152906001019060200180831161362a57829003601f168201915b50505050508152602001600182018054613660906150ae565b80601f016020809104026020016040519081016040528092919081815260200182805461368c906150ae565b80156136d95780601f106136ae576101008083540402835291602001916136d9565b820191906000526020600020905b8154815290600101906020018083116136bc57829003601f168201915b505050505081526020016002820180546136f2906150ae565b80601f016020809104026020016040519081016040528092919081815260200182805461371e906150ae565b801561376b5780601f106137405761010080835404028352916020019161376b565b820191906000526020600020905b81548152906001019060200180831161374e57829003601f168201915b50505050508152602001600382018054613784906150ae565b80601f01602080910402602001604051908101604052809291908181526020018280546137b0906150ae565b80156137fd5780601f106137d2576101008083540402835291602001916137fd565b820191906000526020600020905b8154815290600101906020018083116137e057829003601f168201915b50505050508152602001600482018054613816906150ae565b80601f0160208091040260200160405190810160405280929190818152602001828054613842906150ae565b801561388f5780601f106138645761010080835404028352916020019161388f565b820191906000526020600020905b81548152906001019060200180831161387257829003601f168201915b505050505081526020016005820180546138a8906150ae565b80601f01602080910402602001604051908101604052809291908181526020018280546138d4906150ae565b80156139215780601f106138f657610100808354040283529160200191613921565b820191906000526020600020905b81548152906001019060200180831161390457829003601f168201915b5050505050815260200160068201805461393a906150ae565b80601f0160208091040260200160405190810160405280929190818152602001828054613966906150ae565b80156139b35780601f10613988576101008083540402835291602001916139b3565b820191906000526020600020905b81548152906001019060200180831161399657829003601f168201915b505050505081526020016007820180546139cc906150ae565b80601f01602080910402602001604051908101604052809291908181526020018280546139f8906150ae565b8015613a455780601f10613a1a57610100808354040283529160200191613a45565b820191906000526020600020905b815481529060010190602001808311613a2857829003601f168201915b50505050508152602001600882018054613a5e906150ae565b80601f0160208091040260200160405190810160405280929190818152602001828054613a8a906150ae565b8015613ad75780601f10613aac57610100808354040283529160200191613ad7565b820191906000526020600020905b815481529060010190602001808311613aba57829003601f168201915b5050509190925250505081526013919091015460ff1615156020909101529392505050565b600160a060020a0381166000908152602081905260409020805460609190613b23906150ae565b80601f0160208091040260200160405190810160405280929190818152602001828054613b4f906150ae565b8015613b9c5780601f10613b7157610100808354040283529160200191613b9c565b820191906000526020600020905b815481529060010190602001808311613b7f57829003601f168201915b50505050509050919050565b600160a060020a038a1660009081526004602052604090205460ff16613c135760405160e560020a62461bcd02815260206004820152601c60248201527f476f7665726e6d656e74206973206e6f7420726567697374657265640000000060448201526064016108f8565b600160a060020a038a166000908152600560205260409020600280546001909201918b908110613c4557613c45615095565b9060005260206000209060140201600a01600001908054613c65906150ae565b613c709291906144fc565b508760028a81548110613c8557613c85615095565b9060005260206000209060140201600a016001019080519060200190613cac9291906143ca565b508660028a81548110613cc157613cc1615095565b9060005260206000209060140201600a016002019080519060200190613ce89291906143ca565b508560028a81548110613cfd57613cfd615095565b9060005260206000209060140201600a016003019080519060200190613d249291906143ca565b508460028a81548110613d3957613d39615095565b9060005260206000209060140201600a016004019080519060200190613d609291906143ca565b508360028a81548110613d7557613d75615095565b9060005260206000209060140201600a016005019080519060200190613d9c9291906143ca565b508260028a81548110613db157613db1615095565b9060005260206000209060140201600a016006019080519060200190613dd89291906143ca565b508160028a81548110613ded57613ded615095565b9060005260206000209060140201600a016007019080519060200190613e149291906143ca565b508060028a81548110613e2957613e29615095565b9060005260206000209060140201600a016008019080519060200190613e509291906143ca565b5050505050505050505050565b600160a060020a0388166000908152600f602052604090205460ff16613e985760405160e560020a62461bcd0281526004016108f890615138565b60026040518061018001604052806001548152602001600e60008c600160a060020a0316600160a060020a031681526020019081526020016000206001018054613ee1906150ae565b80601f0160208091040260200160405190810160405280929190818152602001828054613f0d906150ae565b8015613f5a5780601f10613f2f57610100808354040283529160200191613f5a565b820191906000526020600020905b815481529060010190602001808311613f3d57829003601f168201915b50505050508152602001600e60008c600160a060020a0316600160a060020a031681526020019081526020016000206002018054613f97906150ae565b80601f0160208091040260200160405190810160405280929190818152602001828054613fc3906150ae565b80156140105780601f10613fe557610100808354040283529160200191614010565b820191906000526020600020905b815481529060010190602001808311613ff357829003601f168201915b505050918352505060208082018b905260408083018b905260608084018b905260808085018b905260a08086018b905260c08087018b905260e08088018b9052855161014081018752600061012080830182815283528851808b018a52828152838b01528851808b018a52828152838a01528851808b018a52828152978301979097528751808a01895281815295820195909552865180890188528581529381019390935285518088018752848152918301919091528451808701865283815290820152835180860190945281845261010081810194909452928501929092529092018290528354600181810186559483529181902083516014909302019182558281015180519394929361412c9385019291909101906143ca565b50604082015180516141489160028401916020909101906143ca565b50606082015180516141649160038401916020909101906143ca565b50608082015180516141809160048401916020909101906143ca565b5060a0820151805161419c9160058401916020909101906143ca565b5060c082015180516141b89160068401916020909101906143ca565b5060e082015180516141d49160078401916020909101906143ca565b5061010082015180516141f19160088401916020909101906143ca565b50610120820151805161420e9160098401916020909101906143ca565b5061014082015180518051600a84019161422d918391602001906143ca565b50602082810151805161424692600185019201906143ca565b50604082015180516142629160028401916020909101906143ca565b506060820151805161427e9160038401916020909101906143ca565b506080820151805161429a9160048401916020909101906143ca565b5060a082015180516142b69160058401916020909101906143ca565b5060c082015180516142d29160068401916020909101906143ca565b5060e082015180516142ee9160078401916020909101906143ca565b50610100820151805161430b9160088401916020909101906143ca565b50505061016091909101516013909101805460ff19169115159190911790556001805461433791615120565b6001555050505050505050565b600160a060020a03821660009081526008602052604090205460ff1661437f5760405160e560020a62461bcd0281526004016108f89061516f565b60016002828154811061439457614394615095565b60009182526020909120601490910201601301805460ff19169115159190911790555050565b600681815481106129ad57600080fd5b8280546143d6906150ae565b90600052602060002090601f0160209004810192826143f8576000855561443e565b82601f1061441157805160ff191683800117855561443e565b8280016001018555821561443e579182015b8281111561443e578251825591602001919060010190614423565b5061444a929150614577565b5090565b604051806101800160405280600081526020016060815260200160608152602001606081526020016060815260200160608152602001606081526020016060815260200160608152602001606081526020016144ef6040518061012001604052806060815260200160608152602001606081526020016060815260200160608152602001606081526020016060815260200160608152602001606081525090565b8152600060209091015290565b828054614508906150ae565b90600052602060002090601f01602090048101928261452a576000855561443e565b82601f1061453b578054855561443e565b8280016001018555821561443e57600052602060002091601f016020900482015b8281111561443e57825482559160010191906001019061455c565b5b8082111561444a5760008155600101614578565b8035600160a060020a03811681146145a357600080fd5b919050565b6000602082840312156145ba57600080fd5b6145c38261458c565b9392505050565b6000815180845260005b818110156145f0576020818501810151868301820152016145d4565b81811115614602576000602083870101525b50601f01601f19169290920160200192915050565b6000828251808552602080860195508081830284010181860160005b8481101561466157601f1986840301895261464f8383516145ca565b98840198925090830190600101614633565b5090979650505050505050565b6080815260006146816080830187614617565b82810360208401526146938187614617565b905082810360408401526146a78186614617565b905082810360608401526146bb8185614617565b979650505050505050565b60e060020a634e487b7102600052604160045260246000fd5b600082601f8301126146f057600080fd5b813567ffffffffffffffff8082111561470b5761470b6146c6565b604051601f8301601f19908116603f01168101908282118183101715614733576147336146c6565b8160405283815286602085880101111561474c57600080fd5b836020870160208301376000602085830101528094505050505092915050565b60008060008060008060c0878903121561478557600080fd5b863567ffffffffffffffff8082111561479d57600080fd5b6147a98a838b016146df565b975060208901359150808211156147bf57600080fd5b6147cb8a838b016146df565b965060408901359150808211156147e157600080fd5b6147ed8a838b016146df565b9550606089013591508082111561480357600080fd5b61480f8a838b016146df565b9450608089013591508082111561482557600080fd5b5061483289828a016146df565b92505061484160a0880161458c565b90509295509295509295565b60006101008a83528060208401526148678184018b6145ca565b9050828103604084015261487b818a6145ca565b9050828103606084015261488f81896145ca565b905082810360808401526148a381886145ca565b905082810360a08401526148b781876145ca565b600160a060020a039590951660c0840152505090151560e0909101529695505050505050565b600061012082518185526148f3828601826145ca565b9150506020830151848203602086015261490d82826145ca565b9150506040830151848203604086015261492782826145ca565b9150506060830151848203606086015261494182826145ca565b9150506080830151848203608086015261495b82826145ca565b91505060a083015184820360a086015261497582826145ca565b91505060c083015184820360c086015261498f82826145ca565b91505060e083015184820360e08601526149a982826145ca565b91505061010080840151858303828701526149c483826145ca565b9695505050505050565b60006101808251845260208301518160208601526149ee828601826145ca565b91505060408301518482036040860152614a0882826145ca565b91505060608301518482036060860152614a2282826145ca565b91505060808301518482036080860152614a3c82826145ca565b91505060a083015184820360a0860152614a5682826145ca565b91505060c083015184820360c0860152614a7082826145ca565b91505060e083015184820360e0860152614a8a82826145ca565b9150506101008084015185830382870152614aa583826145ca565b925050506101208084015185830382870152614ac183826145ca565b925050506101408084015185830382870152614add83826148dd565b9250505061016080840151614af58287018215159052565b5090949350505050565b600060208083018184528085518083526040860191506040848202870101925083870160005b82811015614b5357603f19888603018452614b418583516149ce565b94509285019290850190600101614b25565b5092979650505050505050565b60006101208b8352806020840152614b7a8184018c6145ca565b90508281036040840152614b8e818b6145ca565b90508281036060840152614ba2818a6145ca565b90508281036080840152614bb681896145ca565b905082810360a0840152614bca81886145ca565b905082810360c0840152614bde81876145ca565b905082810360e0840152614bf281866145ca565b9050828103610100840152614c0781856145ca565b9c9b505050505050505050505050565b60008060008060008060008060006101208a8c031215614c3657600080fd5b614c3f8a61458c565b985060208a0135975060408a013567ffffffffffffffff80821115614c6357600080fd5b614c6f8d838e016146df565b985060608c0135915080821115614c8557600080fd5b614c918d838e016146df565b975060808c0135915080821115614ca757600080fd5b614cb38d838e016146df565b965060a08c0135915080821115614cc957600080fd5b614cd58d838e016146df565b955060c08c0135915080821115614ceb57600080fd5b614cf78d838e016146df565b945060e08c0135915080821115614d0d57600080fd5b614d198d838e016146df565b93506101008c0135915080821115614d3057600080fd5b50614d3d8c828d016146df565b9150509295985092959850929598565b600060208284031215614d5f57600080fd5b5035919050565b600080600080600080600080610100898b031215614d8357600080fd5b883567ffffffffffffffff80821115614d9b57600080fd5b614da78c838d016146df565b995060208b0135915080821115614dbd57600080fd5b614dc98c838d016146df565b985060408b0135915080821115614ddf57600080fd5b614deb8c838d016146df565b975060608b0135915080821115614e0157600080fd5b614e0d8c838d016146df565b965060808b0135915080821115614e2357600080fd5b614e2f8c838d016146df565b955060a08b0135915080821115614e4557600080fd5b614e518c838d016146df565b945060c08b0135915080821115614e6757600080fd5b614e738c838d016146df565b935060e08b0135915080821115614e8957600080fd5b50614e968b828c016146df565b9150509295985092959890939650565b60008060408385031215614eb957600080fd5b614ec28361458c565b946020939093013593505050565b6020815260006145c360208301846149ce565b6020815260006145c360208301846145ca565b6000806000806000806000806000806101408b8d031215614f1657600080fd5b614f1f8b61458c565b995060208b0135985060408b013567ffffffffffffffff80821115614f4357600080fd5b614f4f8e838f016146df565b995060608d0135915080821115614f6557600080fd5b614f718e838f016146df565b985060808d0135915080821115614f8757600080fd5b614f938e838f016146df565b975060a08d0135915080821115614fa957600080fd5b614fb58e838f016146df565b965060c08d0135915080821115614fcb57600080fd5b614fd78e838f016146df565b955060e08d0135915080821115614fed57600080fd5b614ff98e838f016146df565b94506101008d013591508082111561501057600080fd5b61501c8e838f016146df565b93506101208d013591508082111561503357600080fd5b506150408d828e016146df565b9150509295989b9194979a5092959850565b600080600080600080600080610100898b03121561506f57600080fd5b6150788961458c565b9750602089013567ffffffffffffffff80821115614dbd57600080fd5b60e060020a634e487b7102600052603260045260246000fd5b6002810460018216806150c257607f821691505b602082108114156150e65760e060020a634e487b7102600052602260045260246000fd5b50919050565b60e060020a634e487b7102600052601160045260246000fd5b6000600019821415615119576151196150ec565b5060010190565b60008219821115615133576151336150ec565b500190565b60208082526019908201527f50617469656e74206973206e6f74207265676973746572656400000000000000604082015260600190565b60208082526021908201527f4d65646963616c20636f6d70616e79206973206e6f742072656769737465726560408201527f640000000000000000000000000000000000000000000000000000000000000060608201526080019056fea2646970667358221220eb46b057e630ebd24016906eb454b7de3becc45a19800649ce9704a97e7d107664736f6c634300080b0033",
  "immutableReferences": {},
  "source": "pragma solidity ^0.8.0;\r\npragma experimental ABIEncoderV2;\r\n\r\ncontract Contract {\r\n  mapping(address => string) userTypes;\r\n\r\n  function getUserType(address _addr)\r\n    public\r\n    view\r\n    returns (string memory userType)\r\n  {\r\n    return userTypes[_addr];\r\n  }\r\n\r\n  uint256 public reportIndex = 0;\r\n\r\n  struct ActionPlan {\r\n    string creator;\r\n    string actionPlanCreationDate;\r\n    string actionPlanDescription;\r\n    string clinicalOutcome;\r\n    string contributingFactors;\r\n    string suspectedMedication;\r\n    string actionToTake;\r\n    string medicalCompanyInvolved;\r\n    string ipfsHash;\r\n  }\r\n\r\n  struct Report {\r\n    uint256 reportId;\r\n    string reporterFirstName;\r\n    string reporterLastName;\r\n    string incidentDate;\r\n    string incidentDescription;\r\n    string incidentCategory;\r\n    string careSetting;\r\n    string medicationTaken;\r\n    string medicalCompanyInvolved;\r\n    string ipfsHash;\r\n    ActionPlan actionPlan;\r\n    bool isResolved;\r\n  }\r\n\r\n  Report[] reports;\r\n\r\n  uint256 public governmentListIndex = 0;\r\n  mapping(address => bool) isGovernment;\r\n\r\n  struct government {\r\n    uint256 id;\r\n    string name;\r\n    string country;\r\n    string phone;\r\n    string email;\r\n    string locationAddress;\r\n    ActionPlan[] actionPlans;\r\n    address addr;\r\n    bool isApproved;\r\n  }\r\n\r\n  mapping(address => government) governments;\r\n  address[] public governmentList;\r\n\r\n  function addGovernment(\r\n    string memory _name,\r\n    string memory _country,\r\n    string memory _phone,\r\n    string memory _email,\r\n    string memory _locationAddress,\r\n    address _addr\r\n  ) public {\r\n    require(!isGovernment[_addr], \"Government is already registered\");\r\n    governmentList.push(_addr);\r\n    isGovernment[_addr] = true;\r\n    userTypes[_addr] = \"government\";\r\n    governments[_addr].id = governmentListIndex;\r\n    governments[_addr].name = _name;\r\n    governments[_addr].country = _country;\r\n    governments[_addr].phone = _phone;\r\n    governments[_addr].email = _email;\r\n    governments[_addr].locationAddress = _locationAddress;\r\n    governments[_addr].addr = _addr;\r\n    governments[_addr].isApproved = true;\r\n    governmentListIndex = governmentListIndex + 1;\r\n  }\r\n\r\n  // function getGovernmentById(uint256 _id)\r\n  //   public\r\n  //   view\r\n  //   returns (\r\n  //     uint256 id,\r\n  //     string memory name,\r\n  //     string memory country,\r\n  //     string memory phone,\r\n  //     string memory email,\r\n  //     string memory locationAddress,\r\n  //     address addr,\r\n  //     bool isApproved\r\n  //   )\r\n  // {\r\n  //   uint256 i = 0;\r\n  //   for (; i < governmentList.length; i++) {\r\n  //     if (governments[governmentList[i]].id == _id) {\r\n  //       break;\r\n  //     }\r\n  //   }\r\n  //   require(\r\n  //     governments[governmentList[i]].id == _id,\r\n  //     \"Government could not be found with the given ID\"\r\n  //   );\r\n  //   government memory matchedEntry = governments[governmentList[i]];\r\n  //   return (\r\n  //     matchedEntry.id,\r\n  //     matchedEntry.name,\r\n  //     matchedEntry.country,\r\n  //     matchedEntry.phone,\r\n  //     matchedEntry.email,\r\n  //     matchedEntry.locationAddress,\r\n  //     matchedEntry.addr,\r\n  //     matchedEntry.isApproved\r\n  //   );\r\n  // }\r\n\r\n  function getGovernmentProfile(address _address)\r\n    public\r\n    view\r\n    returns (\r\n      uint256 id,\r\n      string memory name,\r\n      string memory country,\r\n      string memory phone,\r\n      string memory email,\r\n      string memory locationAddress,\r\n      address addr,\r\n      bool isApproved\r\n    )\r\n  {\r\n    require(isGovernment[_address], \"Government is not registered\");\r\n    government memory matchedEntry = governments[_address];\r\n    return (\r\n      matchedEntry.id,\r\n      matchedEntry.name,\r\n      matchedEntry.country,\r\n      matchedEntry.phone,\r\n      matchedEntry.email,\r\n      matchedEntry.locationAddress,\r\n      matchedEntry.addr,\r\n      matchedEntry.isApproved\r\n    );\r\n  }\r\n\r\n  function addGovernmentActionPlan(\r\n    address _addr,\r\n    uint256 _reportId,\r\n    string memory _actionPlanCreationDate,\r\n    string memory _actionPlanDescription,\r\n    string memory _clinicalOutcome,\r\n    string memory _contributingFactors,\r\n    string memory _suspectedMedication,\r\n    string memory _actionToTake,\r\n    string memory _medicalCompanyInvolved,\r\n    string memory _ipfsHash\r\n  ) public {\r\n    require(isGovernment[_addr], \"Government is not registered\");\r\n    reports[_reportId].actionPlan.creator = governments[_addr].name;\r\n    reports[_reportId]\r\n      .actionPlan\r\n      .actionPlanCreationDate = _actionPlanCreationDate;\r\n    reports[_reportId]\r\n      .actionPlan\r\n      .actionPlanDescription = _actionPlanDescription;\r\n    reports[_reportId].actionPlan.clinicalOutcome = _clinicalOutcome;\r\n    reports[_reportId].actionPlan.contributingFactors = _contributingFactors;\r\n    reports[_reportId].actionPlan.suspectedMedication = _suspectedMedication;\r\n    reports[_reportId].actionPlan.actionToTake = _actionToTake;\r\n    reports[_reportId]\r\n      .actionPlan\r\n      .medicalCompanyInvolved = _medicalCompanyInvolved;\r\n    reports[_reportId].actionPlan.ipfsHash = _ipfsHash;\r\n  }\r\n\r\n  uint256 public medicalCompanyListIndex;\r\n\r\n  mapping(address => bool) isMedicalCompany;\r\n\r\n  mapping(string => bool) resolvedActionPlans;\r\n\r\n  struct medicalCompany {\r\n    uint256 id;\r\n    string companyName;\r\n    string companyType;\r\n    string phone;\r\n    string email;\r\n    string locationAddress;\r\n    address addr;\r\n    bool isApproved;\r\n  }\r\n\r\n  mapping(address => medicalCompany) medicalCompanies;\r\n  address[] public medicalCompanyList;\r\n\r\n  function addMedicalCompany(\r\n    string memory _companyName,\r\n    string memory _companyType,\r\n    string memory _phone,\r\n    string memory _email,\r\n    string memory _locationAddress,\r\n    address _addr\r\n  ) public {\r\n    require(!isMedicalCompany[_addr], \"Medical company is already registered\");\r\n    medicalCompanyList.push(_addr);\r\n    isMedicalCompany[_addr] = true;\r\n    userTypes[_addr] = \"medicalCompany\";\r\n    medicalCompanies[_addr] = medicalCompany(\r\n      medicalCompanyListIndex,\r\n      _companyName,\r\n      _companyType,\r\n      _phone,\r\n      _email,\r\n      _locationAddress,\r\n      _addr,\r\n      true\r\n    );\r\n    medicalCompanyListIndex = medicalCompanyListIndex + 1;\r\n  }\r\n\r\n  // function getMedicalCompanyById(uint256 _id)\r\n  //   public\r\n  //   view\r\n  //   returns (\r\n  //     uint256 id,\r\n  //     string memory companyName,\r\n  //     string memory companyType,\r\n  //     string memory phone,\r\n  //     string memory email,\r\n  //     string memory locationAddress,\r\n  //     address addr,\r\n  //     bool isApproved\r\n  //   )\r\n  // {\r\n  //   uint256 i = 0;\r\n  //   for (; i < medicalCompanyList.length; i++) {\r\n  //     if (medicalCompanies[medicalCompanyList[i]].id == _id) {\r\n  //       break;\r\n  //     }\r\n  //   }\r\n  //   require(\r\n  //     medicalCompanies[medicalCompanyList[i]].id == _id,\r\n  //     \"MedicalCompany could not be found with the given ID\"\r\n  //   );\r\n  //   medicalCompany memory matchedEntry = medicalCompanies[\r\n  //     medicalCompanyList[i]\r\n  //   ];\r\n  //   return (\r\n  //     matchedEntry.id,\r\n  //     matchedEntry.companyName,\r\n  //     matchedEntry.companyType,\r\n  //     matchedEntry.phone,\r\n  //     matchedEntry.email,\r\n  //     matchedEntry.locationAddress,\r\n  //     matchedEntry.addr,\r\n  //     matchedEntry.isApproved\r\n  //   );\r\n  // }\r\n\r\n  function getMedicalCompanyProfile(address _address)\r\n    public\r\n    view\r\n    returns (\r\n      uint256 id,\r\n      string memory companyName,\r\n      string memory companyType,\r\n      string memory phone,\r\n      string memory email,\r\n      string memory locationAddress,\r\n      address addr,\r\n      bool isApproved\r\n    )\r\n  {\r\n    require(isMedicalCompany[_address], \"Medical company is not registered\");\r\n    medicalCompany memory matchedEntry = medicalCompanies[_address];\r\n    return (\r\n      matchedEntry.id,\r\n      matchedEntry.companyName,\r\n      matchedEntry.companyType,\r\n      matchedEntry.phone,\r\n      matchedEntry.email,\r\n      matchedEntry.locationAddress,\r\n      matchedEntry.addr,\r\n      matchedEntry.isApproved\r\n    );\r\n  }\r\n\r\n  function resolveActionPlan(address _address, uint256 _reportId) public {\r\n    require(isMedicalCompany[_address], \"Medical company is not registered\");\r\n    reports[_reportId].isResolved = true;\r\n  }\r\n\r\n  uint256 public patientListIndex = 0;\r\n\r\n  struct patient {\r\n    uint256 id;\r\n    string firstName;\r\n    string lastName;\r\n    string phone;\r\n    string email;\r\n    string gender;\r\n    string dateOfBirth;\r\n    string bloodType;\r\n    string homeAddress;\r\n    address addr;\r\n  }\r\n\r\n  address[] private patientList;\r\n  mapping(address => patient) patients;\r\n  mapping(address => bool) isPatient;\r\n\r\n  function addPatient(\r\n    string memory _firstName,\r\n    string memory _lastName,\r\n    string memory _phone,\r\n    string memory _email,\r\n    string memory _gender,\r\n    string memory _dateOfBirth,\r\n    string memory _bloodType,\r\n    string memory _homeAddress\r\n  ) public {\r\n    require(!isPatient[msg.sender], \"Patient is already registered\");\r\n    patientList.push(msg.sender);\r\n    isPatient[msg.sender] = true;\r\n    userTypes[msg.sender] = \"patient\";\r\n    patients[msg.sender].id = patientListIndex;\r\n    patients[msg.sender].firstName = _firstName;\r\n    patients[msg.sender].lastName = _lastName;\r\n    patients[msg.sender].phone = _phone;\r\n    patients[msg.sender].email = _email;\r\n    patients[msg.sender].gender = _gender;\r\n    patients[msg.sender].dateOfBirth = _dateOfBirth;\r\n    patients[msg.sender].bloodType = _bloodType;\r\n    patients[msg.sender].homeAddress = _homeAddress;\r\n    patients[msg.sender].addr = msg.sender;\r\n    patientListIndex = patientListIndex + 1;\r\n  }\r\n\r\n  function getPatientProfile(address _addr)\r\n    public\r\n    view\r\n    returns (\r\n      uint256 _id,\r\n      string memory _firstName,\r\n      string memory _lastName,\r\n      string memory _phone,\r\n      string memory _email,\r\n      string memory _gender,\r\n      string memory _dateOfBirth,\r\n      string memory _bloodType,\r\n      string memory _homeAddress\r\n    )\r\n  {\r\n    require(isPatient[_addr], \"Patient is not registered\");\r\n    patient memory matchedEntry = patients[_addr];\r\n    return (\r\n      matchedEntry.id,\r\n      matchedEntry.firstName,\r\n      matchedEntry.lastName,\r\n      matchedEntry.phone,\r\n      matchedEntry.email,\r\n      matchedEntry.gender,\r\n      matchedEntry.dateOfBirth,\r\n      matchedEntry.bloodType,\r\n      matchedEntry.homeAddress\r\n    );\r\n  }\r\n\r\n  function addPatientReport(\r\n    address _addr,\r\n    string memory _incidentDate,\r\n    string memory _incidentDescription,\r\n    string memory _incidentCategory,\r\n    string memory _careSetting,\r\n    string memory _medicationTaken,\r\n    string memory _medicalCompanyInvolved,\r\n    string memory _ipfsHash\r\n  ) public {\r\n    require(isPatient[_addr], \"Patient is not registered\");\r\n    reports.push(\r\n      Report(\r\n        reportIndex,\r\n        patients[_addr].firstName,\r\n        patients[_addr].lastName,\r\n        _incidentDate,\r\n        _incidentDescription,\r\n        _incidentCategory,\r\n        _careSetting,\r\n        _medicationTaken,\r\n        _medicalCompanyInvolved,\r\n        _ipfsHash,\r\n        ActionPlan(\"\", \"\", \"\", \"\", \"\", \"\", \"\", \"\", \"\"),\r\n        false\r\n      )\r\n    );\r\n    reportIndex = reportIndex + 1;\r\n  }\r\n\r\n  function getReports(address _addr)\r\n    public\r\n    view\r\n    returns (Report[] memory _reports)\r\n  {\r\n    return reports;\r\n  }\r\n\r\n  function getReportById(address _addr, uint256 _reportId)\r\n    public\r\n    view\r\n    returns (Report memory _report)\r\n  {\r\n    return reports[_reportId];\r\n  }\r\n\r\n  function editPatientReport(\r\n    address _addr,\r\n    uint256 _reportId,\r\n    string memory _incidentDate,\r\n    string memory _incidentDescription,\r\n    string memory _incidentCategory,\r\n    string memory _careSetting,\r\n    string memory _medicationTaken,\r\n    string memory _medicalCompanyInvolved,\r\n    string memory _ipfsHash\r\n  ) public {\r\n    require(isPatient[msg.sender], \"Patient is not registered\");\r\n    reports[_reportId].incidentDate = _incidentDate;\r\n    reports[_reportId].incidentDescription = _incidentDescription;\r\n    reports[_reportId].incidentCategory = _incidentCategory;\r\n    reports[_reportId].careSetting = _careSetting;\r\n    reports[_reportId].medicationTaken = _medicationTaken;\r\n    reports[_reportId].medicalCompanyInvolved = _medicalCompanyInvolved;\r\n    reports[_reportId].ipfsHash = _ipfsHash;\r\n  }\r\n\r\n  function getAllNames(address _addr)\r\n    public\r\n    view\r\n    returns (\r\n      string[] memory _patientFirstNames,\r\n      string[] memory _patientLastNames,\r\n      string[] memory _medicalCompanyNames,\r\n      string[] memory _governmentNames\r\n    )\r\n  {\r\n    string[] memory patientFirstNames = new string[](patientList.length);\r\n    string[] memory patientLastNames = new string[](patientList.length);\r\n    string[] memory medicalCompanyNames = new string[](\r\n      medicalCompanyList.length\r\n    );\r\n    string[] memory governmentNames = new string[](governmentList.length);\r\n    for (uint256 i = 0; i < patientList.length; i++) {\r\n      patientFirstNames[i] = patients[patientList[i]].firstName;\r\n      patientLastNames[i] = patients[patientList[i]].lastName;\r\n    }\r\n\r\n    for (uint256 i = 0; i < medicalCompanyList.length; i++) {\r\n      medicalCompanyNames[i] = medicalCompanies[medicalCompanyList[i]]\r\n        .companyName;\r\n    }\r\n\r\n    for (uint256 i = 0; i < governmentList.length; i++) {\r\n      governmentNames[i] = governments[governmentList[i]].name;\r\n    }\r\n    return (\r\n      patientFirstNames,\r\n      patientLastNames,\r\n      medicalCompanyNames,\r\n      governmentNames\r\n    );\r\n  }\r\n}\r\n",
  "sourcePath": "C:\\Users\\Phillip\\Documents\\GitHub\\blockchain-in-phr\\contracts\\Contract.sol",
  "compiler": {
    "name": "solc",
    "version": "0.8.11+commit.d7f03943.Emscripten.clang"
  },
  "schemaVersion": "3.4.4",
  "updatedAt": "2022-11-22T03:14:18.223Z",
  "networkType": "ethereum",
  "devdoc": {
    "kind": "dev",
    "methods": {},
    "version": 1
  },
  "userdoc": {
    "kind": "user",
    "methods": {},
    "version": 1
  }
}