{
  "contractName": "Government",
  "abi": [
    {
      "inputs": [
        {
          "internalType": "uint256",
          "name": "",
          "type": "uint256"
        }
      ],
      "name": "governmentList",
      "outputs": [
        {
          "internalType": "address",
          "name": "",
          "type": "address"
        }
      ],
      "stateMutability": "view",
      "type": "function"
    },
    {
      "inputs": [],
      "name": "governmentListIndex",
      "outputs": [
        {
          "internalType": "uint256",
          "name": "",
          "type": "uint256"
        }
      ],
      "stateMutability": "view",
      "type": "function"
    },
    {
      "inputs": [
        {
          "internalType": "string",
          "name": "_name",
          "type": "string"
        },
        {
          "internalType": "string",
          "name": "_country",
          "type": "string"
        },
        {
          "internalType": "string",
          "name": "_phone",
          "type": "string"
        },
        {
          "internalType": "string",
          "name": "_email",
          "type": "string"
        },
        {
          "internalType": "string",
          "name": "_locationAddress",
          "type": "string"
        },
        {
          "internalType": "address",
          "name": "_addr",
          "type": "address"
        }
      ],
      "name": "addGovernment",
      "outputs": [],
      "stateMutability": "nonpayable",
      "type": "function"
    },
    {
      "inputs": [],
      "name": "getAllGovernmentAddresses",
      "outputs": [
        {
          "internalType": "address[]",
          "name": "",
          "type": "address[]"
        }
      ],
      "stateMutability": "view",
      "type": "function"
    },
    {
      "inputs": [
        {
          "internalType": "uint256",
          "name": "_id",
          "type": "uint256"
        }
      ],
      "name": "getGovernmentById",
      "outputs": [
        {
          "internalType": "uint256",
          "name": "id",
          "type": "uint256"
        },
        {
          "internalType": "string",
          "name": "name",
          "type": "string"
        },
        {
          "internalType": "string",
          "name": "country",
          "type": "string"
        },
        {
          "internalType": "string",
          "name": "phone",
          "type": "string"
        },
        {
          "internalType": "string",
          "name": "email",
          "type": "string"
        },
        {
          "internalType": "string",
          "name": "locationAddress",
          "type": "string"
        },
        {
          "internalType": "address",
          "name": "addr",
          "type": "address"
        },
        {
          "internalType": "bool",
          "name": "isApproved",
          "type": "bool"
        }
      ],
      "stateMutability": "view",
      "type": "function"
    },
    {
      "inputs": [
        {
          "internalType": "address",
          "name": "_address",
          "type": "address"
        }
      ],
      "name": "getGovernmentProfile",
      "outputs": [
        {
          "internalType": "uint256",
          "name": "id",
          "type": "uint256"
        },
        {
          "internalType": "string",
          "name": "name",
          "type": "string"
        },
        {
          "internalType": "string",
          "name": "country",
          "type": "string"
        },
        {
          "internalType": "string",
          "name": "phone",
          "type": "string"
        },
        {
          "internalType": "string",
          "name": "email",
          "type": "string"
        },
        {
          "internalType": "string",
          "name": "locationAddress",
          "type": "string"
        },
        {
          "internalType": "address",
          "name": "addr",
          "type": "address"
        },
        {
          "internalType": "bool",
          "name": "isApproved",
          "type": "bool"
        }
      ],
      "stateMutability": "view",
      "type": "function"
    },
    {
      "inputs": [
        {
          "internalType": "address",
          "name": "_addr",
          "type": "address"
        },
        {
          "internalType": "string",
          "name": "_reportId",
          "type": "string"
        },
        {
          "internalType": "string",
          "name": "_actionPlanCreationDate",
          "type": "string"
        },
        {
          "internalType": "string",
          "name": "_actionPlanDescription",
          "type": "string"
        },
        {
          "internalType": "string",
          "name": "_clinicalOutcome",
          "type": "string"
        },
        {
          "internalType": "string",
          "name": "_contributingFactors",
          "type": "string"
        },
        {
          "internalType": "string",
          "name": "_suspectedMedication",
          "type": "string"
        },
        {
          "internalType": "string",
          "name": "_actionToTake",
          "type": "string"
        },
        {
          "internalType": "string",
          "name": "_medicalCompanyInvolved",
          "type": "string"
        },
        {
          "internalType": "string",
          "name": "_ipfsHash",
          "type": "string"
        }
      ],
      "name": "addGovernmentActionPlan",
      "outputs": [],
      "stateMutability": "nonpayable",
      "type": "function"
    },
    {
      "inputs": [
        {
          "internalType": "address",
          "name": "_addr",
          "type": "address"
        }
      ],
      "name": "getGovernmentActionPlans",
      "outputs": [
        {
          "components": [
            {
              "internalType": "string",
              "name": "creator",
              "type": "string"
            },
            {
              "internalType": "string",
              "name": "reportId",
              "type": "string"
            },
            {
              "internalType": "string",
              "name": "actionPlanCreationDate",
              "type": "string"
            },
            {
              "internalType": "string",
              "name": "actionPlanDescription",
              "type": "string"
            },
            {
              "internalType": "string",
              "name": "clinicalOutcome",
              "type": "string"
            },
            {
              "internalType": "string",
              "name": "contributingFactors",
              "type": "string"
            },
            {
              "internalType": "string",
              "name": "suspectedMedication",
              "type": "string"
            },
            {
              "internalType": "string",
              "name": "actionToTake",
              "type": "string"
            },
            {
              "internalType": "string",
              "name": "medicalCompanyInvolved",
              "type": "string"
            },
            {
              "internalType": "string",
              "name": "ipfsHash",
              "type": "string"
            },
            {
              "internalType": "bool",
              "name": "resolved",
              "type": "bool"
            }
          ],
          "internalType": "struct Government.ActionPlan[]",
          "name": "_actionPlans",
          "type": "tuple[]"
        }
      ],
      "stateMutability": "view",
      "type": "function"
    }
  ],
  "bytecode": "0x608060405234801561001057600080fd5b50613734806100206000396000f3fe608060405234801561001057600080fd5b50600436106100885760003560e01c80639b9831ed1161005b5780639b9831ed14610147578063ad6b896914610177578063de7359f614610193578063ea1cb853146101b157610088565b806315414aee1461008d5780633242948e146100a957806347f43744146100e05780634e99b2bc14610117575b600080fd5b6100a760048036038101906100a29190612aab565b6101cf565b005b6100c360048036038101906100be9190612bc4565b61060b565b6040516100d7989796959493929190612cbc565b60405180910390f35b6100fa60048036038101906100f59190612d89565b6110bf565b60405161010e989796959493929190612cbc565b60405180910390f35b610131600480360381019061012c9190612bc4565b611c95565b60405161013e9190612fff565b60405180910390f35b610161600480360381019061015c9190612d89565b61241a565b60405161016e9190613021565b60405180910390f35b610191600480360381019061018c919061303c565b612459565b005b61019b6127bc565b6040516101a891906132d5565b60405180910390f35b6101b961284a565b6040516101c691906132f7565b60405180910390f35b600160008273ffffffffffffffffffffffffffffffffffffffff1673ffffffffffffffffffffffffffffffffffffffff16815260200190815260200160002060009054906101000a900460ff161561025c576040517f08c379a00000000000000000000000000000000000000000000000000000000081526004016102539061335e565b60405180910390fd5b6003819080600181540180825580915050600190039060005260206000200160009091909190916101000a81548173ffffffffffffffffffffffffffffffffffffffff021916908373ffffffffffffffffffffffffffffffffffffffff16021790555060016000546102ce91906133ad565b60008190555060018060008373ffffffffffffffffffffffffffffffffffffffff1673ffffffffffffffffffffffffffffffffffffffff16815260200190815260200160002060006101000a81548160ff021916908315150217905550600054600260008373ffffffffffffffffffffffffffffffffffffffff1673ffffffffffffffffffffffffffffffffffffffff1681526020019081526020016000206000018190555085600260008373ffffffffffffffffffffffffffffffffffffffff1673ffffffffffffffffffffffffffffffffffffffff16815260200190815260200160002060010190805190602001906103ca929190612850565b5084600260008373ffffffffffffffffffffffffffffffffffffffff1673ffffffffffffffffffffffffffffffffffffffff1681526020019081526020016000206002019080519060200190610421929190612850565b5083600260008373ffffffffffffffffffffffffffffffffffffffff1673ffffffffffffffffffffffffffffffffffffffff1681526020019081526020016000206003019080519060200190610478929190612850565b5082600260008373ffffffffffffffffffffffffffffffffffffffff1673ffffffffffffffffffffffffffffffffffffffff16815260200190815260200160002060040190805190602001906104cf929190612850565b5081600260008373ffffffffffffffffffffffffffffffffffffffff1673ffffffffffffffffffffffffffffffffffffffff1681526020019081526020016000206005019080519060200190610526929190612850565b5080600260008373ffffffffffffffffffffffffffffffffffffffff1673ffffffffffffffffffffffffffffffffffffffff16815260200190815260200160002060070160006101000a81548173ffffffffffffffffffffffffffffffffffffffff021916908373ffffffffffffffffffffffffffffffffffffffff1602179055506001600260008373ffffffffffffffffffffffffffffffffffffffff1673ffffffffffffffffffffffffffffffffffffffff16815260200190815260200160002060070160146101000a81548160ff021916908315150217905550505050505050565b60006060806060806060600080600260008a73ffffffffffffffffffffffffffffffffffffffff1673ffffffffffffffffffffffffffffffffffffffff16815260200190815260200160002060070160149054906101000a900460ff166106a7576040517f08c379a000000000000000000000000000000000000000000000000000000000815260040161069e90613475565b60405180910390fd5b6000600260008b73ffffffffffffffffffffffffffffffffffffffff1673ffffffffffffffffffffffffffffffffffffffff168152602001908152602001600020604051806101200160405290816000820154815260200160018201805461070e906134c4565b80601f016020809104026020016040519081016040528092919081815260200182805461073a906134c4565b80156107875780601f1061075c57610100808354040283529160200191610787565b820191906000526020600020905b81548152906001019060200180831161076a57829003601f168201915b505050505081526020016002820180546107a0906134c4565b80601f01602080910402602001604051908101604052809291908181526020018280546107cc906134c4565b80156108195780601f106107ee57610100808354040283529160200191610819565b820191906000526020600020905b8154815290600101906020018083116107fc57829003601f168201915b50505050508152602001600382018054610832906134c4565b80601f016020809104026020016040519081016040528092919081815260200182805461085e906134c4565b80156108ab5780601f10610880576101008083540402835291602001916108ab565b820191906000526020600020905b81548152906001019060200180831161088e57829003601f168201915b505050505081526020016004820180546108c4906134c4565b80601f01602080910402602001604051908101604052809291908181526020018280546108f0906134c4565b801561093d5780601f106109125761010080835404028352916020019161093d565b820191906000526020600020905b81548152906001019060200180831161092057829003601f168201915b50505050508152602001600582018054610956906134c4565b80601f0160208091040260200160405190810160405280929190818152602001828054610982906134c4565b80156109cf5780601f106109a4576101008083540402835291602001916109cf565b820191906000526020600020905b8154815290600101906020018083116109b257829003601f168201915b5050505050815260200160068201805480602002602001604051908101604052809291908181526020016000905b82821015610fff57838290600052602060002090600b020160405180610160016040529081600082018054610a31906134c4565b80601f0160208091040260200160405190810160405280929190818152602001828054610a5d906134c4565b8015610aaa5780601f10610a7f57610100808354040283529160200191610aaa565b820191906000526020600020905b815481529060010190602001808311610a8d57829003601f168201915b50505050508152602001600182018054610ac3906134c4565b80601f0160208091040260200160405190810160405280929190818152602001828054610aef906134c4565b8015610b3c5780601f10610b1157610100808354040283529160200191610b3c565b820191906000526020600020905b815481529060010190602001808311610b1f57829003601f168201915b50505050508152602001600282018054610b55906134c4565b80601f0160208091040260200160405190810160405280929190818152602001828054610b81906134c4565b8015610bce5780601f10610ba357610100808354040283529160200191610bce565b820191906000526020600020905b815481529060010190602001808311610bb157829003601f168201915b50505050508152602001600382018054610be7906134c4565b80601f0160208091040260200160405190810160405280929190818152602001828054610c13906134c4565b8015610c605780601f10610c3557610100808354040283529160200191610c60565b820191906000526020600020905b815481529060010190602001808311610c4357829003601f168201915b50505050508152602001600482018054610c79906134c4565b80601f0160208091040260200160405190810160405280929190818152602001828054610ca5906134c4565b8015610cf25780601f10610cc757610100808354040283529160200191610cf2565b820191906000526020600020905b815481529060010190602001808311610cd557829003601f168201915b50505050508152602001600582018054610d0b906134c4565b80601f0160208091040260200160405190810160405280929190818152602001828054610d37906134c4565b8015610d845780601f10610d5957610100808354040283529160200191610d84565b820191906000526020600020905b815481529060010190602001808311610d6757829003601f168201915b50505050508152602001600682018054610d9d906134c4565b80601f0160208091040260200160405190810160405280929190818152602001828054610dc9906134c4565b8015610e165780601f10610deb57610100808354040283529160200191610e16565b820191906000526020600020905b815481529060010190602001808311610df957829003601f168201915b50505050508152602001600782018054610e2f906134c4565b80601f0160208091040260200160405190810160405280929190818152602001828054610e5b906134c4565b8015610ea85780601f10610e7d57610100808354040283529160200191610ea8565b820191906000526020600020905b815481529060010190602001808311610e8b57829003601f168201915b50505050508152602001600882018054610ec1906134c4565b80601f0160208091040260200160405190810160405280929190818152602001828054610eed906134c4565b8015610f3a5780601f10610f0f57610100808354040283529160200191610f3a565b820191906000526020600020905b815481529060010190602001808311610f1d57829003601f168201915b50505050508152602001600982018054610f53906134c4565b80601f0160208091040260200160405190810160405280929190818152602001828054610f7f906134c4565b8015610fcc5780601f10610fa157610100808354040283529160200191610fcc565b820191906000526020600020905b815481529060010190602001808311610faf57829003601f168201915b50505050508152602001600a820160009054906101000a900460ff161515151581525050815260200190600101906109fd565b5050505081526020016007820160009054906101000a900473ffffffffffffffffffffffffffffffffffffffff1673ffffffffffffffffffffffffffffffffffffffff1673ffffffffffffffffffffffffffffffffffffffff1681526020016007820160149054906101000a900460ff1615151515815250509050806000015181602001518260400151836060015184608001518560a001518660e001518761010001519850985098509850985098509850985050919395975091939597565b6000606080606080606060008060005b60038054905081101561117c578960026000600384815481106110f5576110f46134f6565b5b9060005260206000200160009054906101000a900473ffffffffffffffffffffffffffffffffffffffff1673ffffffffffffffffffffffffffffffffffffffff1673ffffffffffffffffffffffffffffffffffffffff1681526020019081526020016000206000015414156111695761117c565b808061117490613525565b9150506110cf565b896002600060038481548110611195576111946134f6565b5b9060005260206000200160009054906101000a900473ffffffffffffffffffffffffffffffffffffffff1673ffffffffffffffffffffffffffffffffffffffff1673ffffffffffffffffffffffffffffffffffffffff168152602001908152602001600020600001541461123e576040517f08c379a0000000000000000000000000000000000000000000000000000000008152600401611235906135e0565b60405180910390fd5b60006002600060038481548110611258576112576134f6565b5b9060005260206000200160009054906101000a900473ffffffffffffffffffffffffffffffffffffffff1673ffffffffffffffffffffffffffffffffffffffff1673ffffffffffffffffffffffffffffffffffffffff16815260200190815260200160002060405180610120016040529081600082015481526020016001820180546112e3906134c4565b80601f016020809104026020016040519081016040528092919081815260200182805461130f906134c4565b801561135c5780601f106113315761010080835404028352916020019161135c565b820191906000526020600020905b81548152906001019060200180831161133f57829003601f168201915b50505050508152602001600282018054611375906134c4565b80601f01602080910402602001604051908101604052809291908181526020018280546113a1906134c4565b80156113ee5780601f106113c3576101008083540402835291602001916113ee565b820191906000526020600020905b8154815290600101906020018083116113d157829003601f168201915b50505050508152602001600382018054611407906134c4565b80601f0160208091040260200160405190810160405280929190818152602001828054611433906134c4565b80156114805780601f1061145557610100808354040283529160200191611480565b820191906000526020600020905b81548152906001019060200180831161146357829003601f168201915b50505050508152602001600482018054611499906134c4565b80601f01602080910402602001604051908101604052809291908181526020018280546114c5906134c4565b80156115125780601f106114e757610100808354040283529160200191611512565b820191906000526020600020905b8154815290600101906020018083116114f557829003601f168201915b5050505050815260200160058201805461152b906134c4565b80601f0160208091040260200160405190810160405280929190818152602001828054611557906134c4565b80156115a45780601f10611579576101008083540402835291602001916115a4565b820191906000526020600020905b81548152906001019060200180831161158757829003601f168201915b5050505050815260200160068201805480602002602001604051908101604052809291908181526020016000905b82821015611bd457838290600052602060002090600b020160405180610160016040529081600082018054611606906134c4565b80601f0160208091040260200160405190810160405280929190818152602001828054611632906134c4565b801561167f5780601f106116545761010080835404028352916020019161167f565b820191906000526020600020905b81548152906001019060200180831161166257829003601f168201915b50505050508152602001600182018054611698906134c4565b80601f01602080910402602001604051908101604052809291908181526020018280546116c4906134c4565b80156117115780601f106116e657610100808354040283529160200191611711565b820191906000526020600020905b8154815290600101906020018083116116f457829003601f168201915b5050505050815260200160028201805461172a906134c4565b80601f0160208091040260200160405190810160405280929190818152602001828054611756906134c4565b80156117a35780601f10611778576101008083540402835291602001916117a3565b820191906000526020600020905b81548152906001019060200180831161178657829003601f168201915b505050505081526020016003820180546117bc906134c4565b80601f01602080910402602001604051908101604052809291908181526020018280546117e8906134c4565b80156118355780601f1061180a57610100808354040283529160200191611835565b820191906000526020600020905b81548152906001019060200180831161181857829003601f168201915b5050505050815260200160048201805461184e906134c4565b80601f016020809104026020016040519081016040528092919081815260200182805461187a906134c4565b80156118c75780601f1061189c576101008083540402835291602001916118c7565b820191906000526020600020905b8154815290600101906020018083116118aa57829003601f168201915b505050505081526020016005820180546118e0906134c4565b80601f016020809104026020016040519081016040528092919081815260200182805461190c906134c4565b80156119595780601f1061192e57610100808354040283529160200191611959565b820191906000526020600020905b81548152906001019060200180831161193c57829003601f168201915b50505050508152602001600682018054611972906134c4565b80601f016020809104026020016040519081016040528092919081815260200182805461199e906134c4565b80156119eb5780601f106119c0576101008083540402835291602001916119eb565b820191906000526020600020905b8154815290600101906020018083116119ce57829003601f168201915b50505050508152602001600782018054611a04906134c4565b80601f0160208091040260200160405190810160405280929190818152602001828054611a30906134c4565b8015611a7d5780601f10611a5257610100808354040283529160200191611a7d565b820191906000526020600020905b815481529060010190602001808311611a6057829003601f168201915b50505050508152602001600882018054611a96906134c4565b80601f0160208091040260200160405190810160405280929190818152602001828054611ac2906134c4565b8015611b0f5780601f10611ae457610100808354040283529160200191611b0f565b820191906000526020600020905b815481529060010190602001808311611af257829003601f168201915b50505050508152602001600982018054611b28906134c4565b80601f0160208091040260200160405190810160405280929190818152602001828054611b54906134c4565b8015611ba15780601f10611b7657610100808354040283529160200191611ba1565b820191906000526020600020905b815481529060010190602001808311611b8457829003601f168201915b50505050508152602001600a820160009054906101000a900460ff161515151581525050815260200190600101906115d2565b5050505081526020016007820160009054906101000a900473ffffffffffffffffffffffffffffffffffffffff1673ffffffffffffffffffffffffffffffffffffffff1673ffffffffffffffffffffffffffffffffffffffff1681526020016007820160149054906101000a900460ff1615151515815250509050806000015181602001518260400151836060015184608001518560a001518660e00151876101000151995099509950995099509950995099505050919395975091939597565b6060600160008373ffffffffffffffffffffffffffffffffffffffff1673ffffffffffffffffffffffffffffffffffffffff16815260200190815260200160002060009054906101000a900460ff16611d23576040517f08c379a0000000000000000000000000000000000000000000000000000000008152600401611d1a9061364c565b60405180910390fd5b6000600260008473ffffffffffffffffffffffffffffffffffffffff1673ffffffffffffffffffffffffffffffffffffffff1681526020019081526020016000206006018054905011611dab576040517f08c379a0000000000000000000000000000000000000000000000000000000008152600401611da2906136de565b60405180910390fd5b600260008373ffffffffffffffffffffffffffffffffffffffff1673ffffffffffffffffffffffffffffffffffffffff168152602001908152602001600020600601805480602002602001604051908101604052809291908181526020016000905b8282101561240f57838290600052602060002090600b020160405180610160016040529081600082018054611e41906134c4565b80601f0160208091040260200160405190810160405280929190818152602001828054611e6d906134c4565b8015611eba5780601f10611e8f57610100808354040283529160200191611eba565b820191906000526020600020905b815481529060010190602001808311611e9d57829003601f168201915b50505050508152602001600182018054611ed3906134c4565b80601f0160208091040260200160405190810160405280929190818152602001828054611eff906134c4565b8015611f4c5780601f10611f2157610100808354040283529160200191611f4c565b820191906000526020600020905b815481529060010190602001808311611f2f57829003601f168201915b50505050508152602001600282018054611f65906134c4565b80601f0160208091040260200160405190810160405280929190818152602001828054611f91906134c4565b8015611fde5780601f10611fb357610100808354040283529160200191611fde565b820191906000526020600020905b815481529060010190602001808311611fc157829003601f168201915b50505050508152602001600382018054611ff7906134c4565b80601f0160208091040260200160405190810160405280929190818152602001828054612023906134c4565b80156120705780601f1061204557610100808354040283529160200191612070565b820191906000526020600020905b81548152906001019060200180831161205357829003601f168201915b50505050508152602001600482018054612089906134c4565b80601f01602080910402602001604051908101604052809291908181526020018280546120b5906134c4565b80156121025780601f106120d757610100808354040283529160200191612102565b820191906000526020600020905b8154815290600101906020018083116120e557829003601f168201915b5050505050815260200160058201805461211b906134c4565b80601f0160208091040260200160405190810160405280929190818152602001828054612147906134c4565b80156121945780601f1061216957610100808354040283529160200191612194565b820191906000526020600020905b81548152906001019060200180831161217757829003601f168201915b505050505081526020016006820180546121ad906134c4565b80601f01602080910402602001604051908101604052809291908181526020018280546121d9906134c4565b80156122265780601f106121fb57610100808354040283529160200191612226565b820191906000526020600020905b81548152906001019060200180831161220957829003601f168201915b5050505050815260200160078201805461223f906134c4565b80601f016020809104026020016040519081016040528092919081815260200182805461226b906134c4565b80156122b85780601f1061228d576101008083540402835291602001916122b8565b820191906000526020600020905b81548152906001019060200180831161229b57829003601f168201915b505050505081526020016008820180546122d1906134c4565b80601f01602080910402602001604051908101604052809291908181526020018280546122fd906134c4565b801561234a5780601f1061231f5761010080835404028352916020019161234a565b820191906000526020600020905b81548152906001019060200180831161232d57829003601f168201915b50505050508152602001600982018054612363906134c4565b80601f016020809104026020016040519081016040528092919081815260200182805461238f906134c4565b80156123dc5780601f106123b1576101008083540402835291602001916123dc565b820191906000526020600020905b8154815290600101906020018083116123bf57829003601f168201915b50505050508152602001600a820160009054906101000a900460ff16151515158152505081526020019060010190611e0d565b505050509050919050565b6003818154811061242a57600080fd5b906000526020600020016000915054906101000a900473ffffffffffffffffffffffffffffffffffffffff1681565b600160008b73ffffffffffffffffffffffffffffffffffffffff1673ffffffffffffffffffffffffffffffffffffffff16815260200190815260200160002060009054906101000a900460ff166124e5576040517f08c379a00000000000000000000000000000000000000000000000000000000081526004016124dc9061364c565b60405180910390fd5b600260008b73ffffffffffffffffffffffffffffffffffffffff1673ffffffffffffffffffffffffffffffffffffffff168152602001908152602001600020600601604051806101600160405280600260008e73ffffffffffffffffffffffffffffffffffffffff1673ffffffffffffffffffffffffffffffffffffffff1681526020019081526020016000206001018054612580906134c4565b80601f01602080910402602001604051908101604052809291908181526020018280546125ac906134c4565b80156125f95780601f106125ce576101008083540402835291602001916125f9565b820191906000526020600020905b8154815290600101906020018083116125dc57829003601f168201915b505050505081526020018b81526020018a81526020018981526020018881526020018781526020018681526020018581526020018481526020018381526020016000151581525090806001815401808255809150506001900390600052602060002090600b02016000909190919091506000820151816000019080519060200190612685929190612850565b5060208201518160010190805190602001906126a2929190612850565b5060408201518160020190805190602001906126bf929190612850565b5060608201518160030190805190602001906126dc929190612850565b5060808201518160040190805190602001906126f9929190612850565b5060a0820151816005019080519060200190612716929190612850565b5060c0820151816006019080519060200190612733929190612850565b5060e0820151816007019080519060200190612750929190612850565b5061010082015181600801908051906020019061276e929190612850565b5061012082015181600901908051906020019061278c929190612850565b5061014082015181600a0160006101000a81548160ff021916908315150217905550505050505050505050505050565b6060600380548060200260200160405190810160405280929190818152602001828054801561284057602002820191906000526020600020905b8160009054906101000a900473ffffffffffffffffffffffffffffffffffffffff1673ffffffffffffffffffffffffffffffffffffffff16815260200190600101908083116127f6575b5050505050905090565b60005481565b82805461285c906134c4565b90600052602060002090601f01602090048101928261287e57600085556128c5565b82601f1061289757805160ff19168380011785556128c5565b828001600101855582156128c5579182015b828111156128c45782518255916020019190600101906128a9565b5b5090506128d291906128d6565b5090565b5b808211156128ef5760008160009055506001016128d7565b5090565b6000604051905090565b600080fd5b600080fd5b600080fd5b600080fd5b6000601f19601f8301169050919050565b7f4e487b7100000000000000000000000000000000000000000000000000000000600052604160045260246000fd5b61295a82612911565b810181811067ffffffffffffffff8211171561297957612978612922565b5b80604052505050565b600061298c6128f3565b90506129988282612951565b919050565b600067ffffffffffffffff8211156129b8576129b7612922565b5b6129c182612911565b9050602081019050919050565b82818337600083830152505050565b60006129f06129eb8461299d565b612982565b905082815260208101848484011115612a0c57612a0b61290c565b5b612a178482856129ce565b509392505050565b600082601f830112612a3457612a33612907565b5b8135612a448482602086016129dd565b91505092915050565b600073ffffffffffffffffffffffffffffffffffffffff82169050919050565b6000612a7882612a4d565b9050919050565b612a8881612a6d565b8114612a9357600080fd5b50565b600081359050612aa581612a7f565b92915050565b60008060008060008060c08789031215612ac857612ac76128fd565b5b600087013567ffffffffffffffff811115612ae657612ae5612902565b5b612af289828a01612a1f565b965050602087013567ffffffffffffffff811115612b1357612b12612902565b5b612b1f89828a01612a1f565b955050604087013567ffffffffffffffff811115612b4057612b3f612902565b5b612b4c89828a01612a1f565b945050606087013567ffffffffffffffff811115612b6d57612b6c612902565b5b612b7989828a01612a1f565b935050608087013567ffffffffffffffff811115612b9a57612b99612902565b5b612ba689828a01612a1f565b92505060a0612bb789828a01612a96565b9150509295509295509295565b600060208284031215612bda57612bd96128fd565b5b6000612be884828501612a96565b91505092915050565b6000819050919050565b612c0481612bf1565b82525050565b600081519050919050565b600082825260208201905092915050565b60005b83811015612c44578082015181840152602081019050612c29565b83811115612c53576000848401525b50505050565b6000612c6482612c0a565b612c6e8185612c15565b9350612c7e818560208601612c26565b612c8781612911565b840191505092915050565b612c9b81612a6d565b82525050565b60008115159050919050565b612cb681612ca1565b82525050565b600061010082019050612cd2600083018b612bfb565b8181036020830152612ce4818a612c59565b90508181036040830152612cf88189612c59565b90508181036060830152612d0c8188612c59565b90508181036080830152612d208187612c59565b905081810360a0830152612d348186612c59565b9050612d4360c0830185612c92565b612d5060e0830184612cad565b9998505050505050505050565b612d6681612bf1565b8114612d7157600080fd5b50565b600081359050612d8381612d5d565b92915050565b600060208284031215612d9f57612d9e6128fd565b5b6000612dad84828501612d74565b91505092915050565b600081519050919050565b600082825260208201905092915050565b6000819050602082019050919050565b600082825260208201905092915050565b6000612dfe82612c0a565b612e088185612de2565b9350612e18818560208601612c26565b612e2181612911565b840191505092915050565b612e3581612ca1565b82525050565b6000610160830160008301518482036000860152612e598282612df3565b91505060208301518482036020860152612e738282612df3565b91505060408301518482036040860152612e8d8282612df3565b91505060608301518482036060860152612ea78282612df3565b91505060808301518482036080860152612ec18282612df3565b91505060a083015184820360a0860152612edb8282612df3565b91505060c083015184820360c0860152612ef58282612df3565b91505060e083015184820360e0860152612f0f8282612df3565b915050610100830151848203610100860152612f2b8282612df3565b915050610120830151848203610120860152612f478282612df3565b915050610140830151612f5e610140860182612e2c565b508091505092915050565b6000612f758383612e3b565b905092915050565b6000602082019050919050565b6000612f9582612db6565b612f9f8185612dc1565b935083602082028501612fb185612dd2565b8060005b85811015612fed5784840389528151612fce8582612f69565b9450612fd983612f7d565b925060208a01995050600181019050612fb5565b50829750879550505050505092915050565b600060208201905081810360008301526130198184612f8a565b905092915050565b60006020820190506130366000830184612c92565b92915050565b6000806000806000806000806000806101408b8d0312156130605761305f6128fd565b5b600061306e8d828e01612a96565b9a505060208b013567ffffffffffffffff81111561308f5761308e612902565b5b61309b8d828e01612a1f565b99505060408b013567ffffffffffffffff8111156130bc576130bb612902565b5b6130c88d828e01612a1f565b98505060608b013567ffffffffffffffff8111156130e9576130e8612902565b5b6130f58d828e01612a1f565b97505060808b013567ffffffffffffffff81111561311657613115612902565b5b6131228d828e01612a1f565b96505060a08b013567ffffffffffffffff81111561314357613142612902565b5b61314f8d828e01612a1f565b95505060c08b013567ffffffffffffffff8111156131705761316f612902565b5b61317c8d828e01612a1f565b94505060e08b013567ffffffffffffffff81111561319d5761319c612902565b5b6131a98d828e01612a1f565b9350506101008b013567ffffffffffffffff8111156131cb576131ca612902565b5b6131d78d828e01612a1f565b9250506101208b013567ffffffffffffffff8111156131f9576131f8612902565b5b6132058d828e01612a1f565b9150509295989b9194979a5092959850565b600081519050919050565b600082825260208201905092915050565b6000819050602082019050919050565b61324c81612a6d565b82525050565b600061325e8383613243565b60208301905092915050565b6000602082019050919050565b600061328282613217565b61328c8185613222565b935061329783613233565b8060005b838110156132c85781516132af8882613252565b97506132ba8361326a565b92505060018101905061329b565b5085935050505092915050565b600060208201905081810360008301526132ef8184613277565b905092915050565b600060208201905061330c6000830184612bfb565b92915050565b7f476f7665726e6d656e7420697320616c72656164792072656769737465726564600082015250565b6000613348602083612c15565b915061335382613312565b602082019050919050565b600060208201905081810360008301526133778161333b565b9050919050565b7f4e487b7100000000000000000000000000000000000000000000000000000000600052601160045260246000fd5b60006133b882612bf1565b91506133c383612bf1565b9250827fffffffffffffffffffffffffffffffffffffffffffffffffffffffffffffffff038211156133f8576133f761337e565b5b828201905092915050565b7f476f7665726e6d656e74206973206e6f7420617070726f766564206f7220676f60008201527f7665726e6d656e7420646f6573206e6f74206578697374000000000000000000602082015250565b600061345f603783612c15565b915061346a82613403565b604082019050919050565b6000602082019050818103600083015261348e81613452565b9050919050565b7f4e487b7100000000000000000000000000000000000000000000000000000000600052602260045260246000fd5b600060028204905060018216806134dc57607f821691505b602082108114156134f0576134ef613495565b5b50919050565b7f4e487b7100000000000000000000000000000000000000000000000000000000600052603260045260246000fd5b600061353082612bf1565b91507fffffffffffffffffffffffffffffffffffffffffffffffffffffffffffffffff8214156135635761356261337e565b5b600182019050919050565b7f476f7665726e6d656e7420636f756c64206e6f7420626520666f756e6420776960008201527f74682074686520676976656e2049440000000000000000000000000000000000602082015250565b60006135ca602f83612c15565b91506135d58261356e565b604082019050919050565b600060208201905081810360008301526135f9816135bd565b9050919050565b7f476f7665726e6d656e74206973206e6f74207265676973746572656400000000600082015250565b6000613636601c83612c15565b915061364182613600565b602082019050919050565b6000602082019050818103600083015261366581613629565b9050919050565b7f476f7665726e6d656e7420646f6573206e6f74206861766520616e792061637460008201527f696f6e20706c616e730000000000000000000000000000000000000000000000602082015250565b60006136c8602983612c15565b91506136d38261366c565b604082019050919050565b600060208201905081810360008301526136f7816136bb565b905091905056fea2646970667358221220342b0bd3f743ea2f70155350c4db6fcb5a55926e45c99db50b587cc94fd54f7164736f6c634300080b0033",
  "immutableReferences": {},
  "source": "pragma solidity ^0.8.0;\r\npragma experimental ABIEncoderV2;\r\n\r\ncontract Government {\r\n  uint256 public governmentListIndex;\r\n  mapping(address => bool) isGovernment;\r\n\r\n  struct ActionPlan {\r\n    string creator;\r\n    string reportId;\r\n    string actionPlanCreationDate;\r\n    string actionPlanDescription;\r\n    string clinicalOutcome;\r\n    string contributingFactors;\r\n    string suspectedMedication;\r\n    string actionToTake;\r\n    string medicalCompanyInvolved;\r\n    string ipfsHash;\r\n    bool resolved;\r\n  }\r\n\r\n  struct government {\r\n    uint256 id;\r\n    string name;\r\n    string country;\r\n    string phone;\r\n    string email;\r\n    string locationAddress;\r\n    ActionPlan[] actionPlans;\r\n    address addr;\r\n    bool isApproved;\r\n  }\r\n\r\n  mapping(address => government) governments;\r\n  address[] public governmentList;\r\n\r\n  function addGovernment(\r\n    string memory _name,\r\n    string memory _country,\r\n    string memory _phone,\r\n    string memory _email,\r\n    string memory _locationAddress,\r\n    address _addr\r\n  ) public {\r\n    require(!isGovernment[_addr], \"Government is already registered\");\r\n    governmentList.push(_addr);\r\n    governmentListIndex = governmentListIndex + 1;\r\n    isGovernment[_addr] = true;\r\n    governments[_addr].id = governmentListIndex;\r\n    governments[_addr].name = _name;\r\n    governments[_addr].country = _country;\r\n    governments[_addr].phone = _phone;\r\n    governments[_addr].email = _email;\r\n    governments[_addr].locationAddress = _locationAddress;\r\n    governments[_addr].addr = _addr;\r\n    governments[_addr].isApproved = true;\r\n  }\r\n\r\n  function getAllGovernmentAddresses() public view returns (address[] memory) {\r\n    return governmentList;\r\n  }\r\n\r\n  function getGovernmentById(uint256 _id)\r\n    public\r\n    view\r\n    returns (\r\n      uint256 id,\r\n      string memory name,\r\n      string memory country,\r\n      string memory phone,\r\n      string memory email,\r\n      string memory locationAddress,\r\n      address addr,\r\n      bool isApproved\r\n    )\r\n  {\r\n    uint256 i = 0;\r\n    for (; i < governmentList.length; i++) {\r\n      if (governments[governmentList[i]].id == _id) {\r\n        break;\r\n      }\r\n    }\r\n    require(\r\n      governments[governmentList[i]].id == _id,\r\n      \"Government could not be found with the given ID\"\r\n    );\r\n    government memory matchedEntry = governments[governmentList[i]];\r\n    return (\r\n      matchedEntry.id,\r\n      matchedEntry.name,\r\n      matchedEntry.country,\r\n      matchedEntry.phone,\r\n      matchedEntry.email,\r\n      matchedEntry.locationAddress,\r\n      matchedEntry.addr,\r\n      matchedEntry.isApproved\r\n    );\r\n  }\r\n\r\n  function getGovernmentProfile(address _address)\r\n    public\r\n    view\r\n    returns (\r\n      uint256 id,\r\n      string memory name,\r\n      string memory country,\r\n      string memory phone,\r\n      string memory email,\r\n      string memory locationAddress,\r\n      address addr,\r\n      bool isApproved\r\n    )\r\n  {\r\n    require(\r\n      governments[_address].isApproved,\r\n      \"Government is not approved or government does not exist\"\r\n    );\r\n    government memory matchedEntry = governments[_address];\r\n    return (\r\n      matchedEntry.id,\r\n      matchedEntry.name,\r\n      matchedEntry.country,\r\n      matchedEntry.phone,\r\n      matchedEntry.email,\r\n      matchedEntry.locationAddress,\r\n      matchedEntry.addr,\r\n      matchedEntry.isApproved\r\n    );\r\n  }\r\n\r\n  function addGovernmentActionPlan(\r\n    address _addr,\r\n    string memory _reportId,\r\n    string memory _actionPlanCreationDate,\r\n    string memory _actionPlanDescription,\r\n    string memory _clinicalOutcome,\r\n    string memory _contributingFactors,\r\n    string memory _suspectedMedication,\r\n    string memory _actionToTake,\r\n    string memory _medicalCompanyInvolved,\r\n    string memory _ipfsHash\r\n  ) public {\r\n    require(isGovernment[_addr], \"Government is not registered\");\r\n    governments[_addr].actionPlans.push(\r\n      ActionPlan(\r\n        governments[_addr].name,\r\n        _reportId,\r\n        _actionPlanCreationDate,\r\n        _actionPlanDescription,\r\n        _clinicalOutcome,\r\n        _contributingFactors,\r\n        _suspectedMedication,\r\n        _actionToTake,\r\n        _medicalCompanyInvolved,\r\n        _ipfsHash,\r\n        false\r\n      )\r\n    );\r\n  }\r\n\r\n  function getGovernmentActionPlans(address _addr)\r\n    public\r\n    view\r\n    returns (ActionPlan[] memory _actionPlans)\r\n  {\r\n    require(isGovernment[_addr], \"Government is not registered\");\r\n    require(\r\n      governments[_addr].actionPlans.length > 0,\r\n      \"Government does not have any action plans\"\r\n    );\r\n    return (governments[_addr].actionPlans);\r\n  }\r\n}\r\n\r\ncontract MedicalCompany {\r\n  uint256 public medicalCompanyListIndex;\r\n\r\n  mapping(address => bool) isMedicalCompany;\r\n\r\n  struct medicalCompany {\r\n    uint256 id;\r\n    string companyName;\r\n    string companyType;\r\n    string phone;\r\n    string email;\r\n    string locationAddress;\r\n    address addr;\r\n    bool isApproved;\r\n  }\r\n\r\n  mapping(address => medicalCompany) medicalCompanies;\r\n  address[] public medicalCompanyList;\r\n\r\n  function addMedicalCompany(\r\n    string memory _companyName,\r\n    string memory _companyType,\r\n    string memory _phone,\r\n    string memory _email,\r\n    string memory _locationAddress,\r\n    address _addr\r\n  ) public {\r\n    require(!isMedicalCompany[_addr], \"MedicalCompany is already registered\");\r\n    medicalCompanyList.push(_addr);\r\n    medicalCompanyListIndex = medicalCompanyListIndex + 1;\r\n    isMedicalCompany[_addr] = true;\r\n    medicalCompanies[_addr] = medicalCompany(\r\n      medicalCompanyListIndex,\r\n      _companyName,\r\n      _companyType,\r\n      _phone,\r\n      _email,\r\n      _locationAddress,\r\n      _addr,\r\n      true\r\n    );\r\n  }\r\n\r\n  function getAllMedicalCompanyAddresses()\r\n    public\r\n    view\r\n    returns (address[] memory)\r\n  {\r\n    return medicalCompanyList;\r\n  }\r\n\r\n  function getMedicalCompanyById(uint256 _id)\r\n    public\r\n    view\r\n    returns (\r\n      uint256 id,\r\n      string memory companyName,\r\n      string memory companyType,\r\n      string memory phone,\r\n      string memory email,\r\n      string memory locationAddress,\r\n      address addr,\r\n      bool isApproved\r\n    )\r\n  {\r\n    uint256 i = 0;\r\n    for (; i < medicalCompanyList.length; i++) {\r\n      if (medicalCompanies[medicalCompanyList[i]].id == _id) {\r\n        break;\r\n      }\r\n    }\r\n    require(\r\n      medicalCompanies[medicalCompanyList[i]].id == _id,\r\n      \"MedicalCompany could not be found with the given ID\"\r\n    );\r\n    medicalCompany memory matchedEntry = medicalCompanies[\r\n      medicalCompanyList[i]\r\n    ];\r\n    return (\r\n      matchedEntry.id,\r\n      matchedEntry.companyName,\r\n      matchedEntry.companyType,\r\n      matchedEntry.phone,\r\n      matchedEntry.email,\r\n      matchedEntry.locationAddress,\r\n      matchedEntry.addr,\r\n      matchedEntry.isApproved\r\n    );\r\n  }\r\n\r\n  function getMedicalCompanyProfile(address _address)\r\n    public\r\n    view\r\n    returns (\r\n      uint256 id,\r\n      string memory companyName,\r\n      string memory companyType,\r\n      string memory phone,\r\n      string memory email,\r\n      string memory locationAddress,\r\n      address addr,\r\n      bool isApproved\r\n    )\r\n  {\r\n    require(\r\n      medicalCompanies[_address].isApproved,\r\n      \"MedicalCompany is not approved or medicalCompany does not exist\"\r\n    );\r\n    medicalCompany memory matchedEntry = medicalCompanies[_address];\r\n    return (\r\n      matchedEntry.id,\r\n      matchedEntry.companyName,\r\n      matchedEntry.companyType,\r\n      matchedEntry.phone,\r\n      matchedEntry.email,\r\n      matchedEntry.locationAddress,\r\n      matchedEntry.addr,\r\n      matchedEntry.isApproved\r\n    );\r\n  }\r\n}\r\n\r\ncontract Patient {\r\n  uint256 public patientListIndex = 0;\r\n  uint256 public reportIndex = 0;\r\n\r\n  struct Report {\r\n    uint256 reportId;\r\n    string reporterFirstName;\r\n    string reporterLastName;\r\n    string incidentDate;\r\n    string incidentDescription;\r\n    string incidentCategory;\r\n    string careSetting;\r\n    string medicationTaken;\r\n    string medicalCompanyInvolved;\r\n    string ipfsHash;\r\n  }\r\n\r\n  struct patient {\r\n    uint256 id;\r\n    string firstName;\r\n    string lastName;\r\n    string phone;\r\n    string email;\r\n    string gender;\r\n    string dateOfBirth;\r\n    string bloodType;\r\n    string homeAddress;\r\n    Report[] reports;\r\n    address addr;\r\n  }\r\n\r\n  address[] private patientList;\r\n  // mapping(address => mapping(address => bool)) isAuth;\r\n  mapping(address => patient) patients;\r\n  mapping(address => bool) isPatient;\r\n\r\n  function addPatient(\r\n    string memory _firstName,\r\n    string memory _lastName,\r\n    string memory _phone,\r\n    string memory _email,\r\n    string memory _gender,\r\n    string memory _dateOfBirth,\r\n    string memory _bloodType,\r\n    string memory _homeAddress\r\n  ) public {\r\n    require(!isPatient[msg.sender], \"Patient is already registered\");\r\n    patientList.push(msg.sender);\r\n    patientListIndex = patientListIndex + 1;\r\n    isPatient[msg.sender] = true;\r\n    patients[msg.sender].id = patientListIndex;\r\n    patients[msg.sender].firstName = _firstName;\r\n    patients[msg.sender].lastName = _lastName;\r\n    patients[msg.sender].phone = _phone;\r\n    patients[msg.sender].email = _email;\r\n    patients[msg.sender].gender = _gender;\r\n    patients[msg.sender].dateOfBirth = _dateOfBirth;\r\n    patients[msg.sender].bloodType = _bloodType;\r\n    patients[msg.sender].homeAddress = _homeAddress;\r\n    patients[msg.sender].addr = msg.sender;\r\n  }\r\n\r\n  function getAllPatientAddresses() public view returns (address[] memory) {\r\n    return patientList;\r\n  }\r\n\r\n  function getPatientProfile(address _addr)\r\n    public\r\n    view\r\n    returns (\r\n      uint256 _id,\r\n      string memory _firstName,\r\n      string memory _lastName,\r\n      string memory _phone,\r\n      string memory _email,\r\n      string memory _gender,\r\n      string memory _dateOfBirth,\r\n      string memory _bloodType,\r\n      string memory _homeAddress\r\n    )\r\n  {\r\n    require(isPatient[_addr], \"Patient is not registered\");\r\n    patient memory matchedEntry = patients[_addr];\r\n    return (\r\n      matchedEntry.id,\r\n      matchedEntry.firstName,\r\n      matchedEntry.lastName,\r\n      matchedEntry.phone,\r\n      matchedEntry.email,\r\n      matchedEntry.gender,\r\n      matchedEntry.dateOfBirth,\r\n      matchedEntry.bloodType,\r\n      matchedEntry.homeAddress\r\n    );\r\n  }\r\n\r\n  function addPatientReport(\r\n    address _addr,\r\n    string memory _incidentDate,\r\n    string memory _incidentDescription,\r\n    string memory _incidentCategory,\r\n    string memory _careSetting,\r\n    string memory _medicationTaken,\r\n    string memory _medicalCompanyInvolved,\r\n    string memory _ipfsHash\r\n  ) public {\r\n    require(isPatient[_addr], \"Patient is not registered\");\r\n    reportIndex = reportIndex + 1;\r\n    patients[_addr].reports.push(\r\n      Report(\r\n        reportIndex,\r\n        patients[_addr].firstName,\r\n        patients[_addr].lastName,\r\n        _incidentDate,\r\n        _incidentDescription,\r\n        _incidentCategory,\r\n        _careSetting,\r\n        _medicationTaken,\r\n        _medicalCompanyInvolved,\r\n        _ipfsHash\r\n      )\r\n    );\r\n  }\r\n\r\n  function getPatientReports(address _addr)\r\n    public\r\n    view\r\n    returns (Report[] memory _reports)\r\n  {\r\n    require(isPatient[_addr], \"Patient is not registered\");\r\n    require(\r\n      patients[_addr].reports.length > 0,\r\n      \"Patient does not have any reports\"\r\n    );\r\n    return (patients[_addr].reports);\r\n  }\r\n}\r\n",
  "sourcePath": "C:\\Users\\Phillip\\Documents\\GitHub\\blockchain-in-phr\\contracts\\Contract.sol",
  "compiler": {
    "name": "solc",
    "version": "0.8.11+commit.d7f03943.Emscripten.clang"
  },
  "schemaVersion": "3.4.4",
  "updatedAt": "2022-11-20T06:06:26.863Z",
  "devdoc": {
    "kind": "dev",
    "methods": {},
    "version": 1
  },
  "userdoc": {
    "kind": "user",
    "methods": {},
    "version": 1
  }
}