{
  "contractName": "MedicalCompany",
  "abi": [
    {
      "inputs": [
        {
          "internalType": "uint256",
          "name": "",
          "type": "uint256"
        }
      ],
      "name": "medicalCompanyList",
      "outputs": [
        {
          "internalType": "address",
          "name": "",
          "type": "address"
        }
      ],
      "stateMutability": "view",
      "type": "function",
      "constant": true
    },
    {
      "inputs": [],
      "name": "medicalCompanyListIndex",
      "outputs": [
        {
          "internalType": "uint256",
          "name": "",
          "type": "uint256"
        }
      ],
      "stateMutability": "view",
      "type": "function",
      "constant": true
    },
    {
      "inputs": [
        {
          "internalType": "string",
          "name": "_companyName",
          "type": "string"
        },
        {
          "internalType": "string",
          "name": "_companyType",
          "type": "string"
        },
        {
          "internalType": "string",
          "name": "_phone",
          "type": "string"
        },
        {
          "internalType": "string",
          "name": "_email",
          "type": "string"
        },
        {
          "internalType": "string",
          "name": "_locationAddress",
          "type": "string"
        },
        {
          "internalType": "address",
          "name": "_addr",
          "type": "address"
        }
      ],
      "name": "addMedicalCompany",
      "outputs": [],
      "stateMutability": "nonpayable",
      "type": "function"
    },
    {
      "inputs": [
        {
          "internalType": "uint256",
          "name": "_id",
          "type": "uint256"
        }
      ],
      "name": "getMedicalCompanyById",
      "outputs": [
        {
          "internalType": "uint256",
          "name": "id",
          "type": "uint256"
        },
        {
          "internalType": "string",
          "name": "companyName",
          "type": "string"
        },
        {
          "internalType": "string",
          "name": "companyType",
          "type": "string"
        },
        {
          "internalType": "string",
          "name": "phone",
          "type": "string"
        },
        {
          "internalType": "string",
          "name": "email",
          "type": "string"
        },
        {
          "internalType": "string",
          "name": "locationAddress",
          "type": "string"
        },
        {
          "internalType": "address",
          "name": "addr",
          "type": "address"
        },
        {
          "internalType": "bool",
          "name": "isApproved",
          "type": "bool"
        }
      ],
      "stateMutability": "view",
      "type": "function",
      "constant": true
    },
    {
      "inputs": [
        {
          "internalType": "address",
          "name": "_address",
          "type": "address"
        }
      ],
      "name": "getMedicalCompanyProfile",
      "outputs": [
        {
          "internalType": "uint256",
          "name": "id",
          "type": "uint256"
        },
        {
          "internalType": "string",
          "name": "companyName",
          "type": "string"
        },
        {
          "internalType": "string",
          "name": "companyType",
          "type": "string"
        },
        {
          "internalType": "string",
          "name": "phone",
          "type": "string"
        },
        {
          "internalType": "string",
          "name": "email",
          "type": "string"
        },
        {
          "internalType": "string",
          "name": "locationAddress",
          "type": "string"
        },
        {
          "internalType": "address",
          "name": "addr",
          "type": "address"
        },
        {
          "internalType": "bool",
          "name": "isApproved",
          "type": "bool"
        }
      ],
      "stateMutability": "view",
      "type": "function",
      "constant": true
    }
  ],
  "bytecode": "0x608060405234801561001057600080fd5b50611786806100206000396000f3fe608060405234801561001057600080fd5b50600436106100575760003560e01c80634e528f281461005c57806358a8c7da14610078578063699d347d146100965780637658d6c3146100c65780637b406946146100fd575b600080fd5b610076600480360381019061007191906110fb565b610134565b005b610080610431565b60405161008d919061122d565b60405180910390f35b6100b060048036038101906100ab9190611274565b610437565b6040516100bd91906112b0565b60405180910390f35b6100e060048036038101906100db91906112cb565b610476565b6040516100f498979695949392919061139b565b60405180910390f35b61011760048036038101906101129190611274565b6108fa565b60405161012b98979695949392919061139b565b60405180910390f35b600160008273ffffffffffffffffffffffffffffffffffffffff1673ffffffffffffffffffffffffffffffffffffffff16815260200190815260200160002060009054906101000a900460ff16156101c1576040517f08c379a00000000000000000000000000000000000000000000000000000000081526004016101b8906114ae565b60405180910390fd5b6003819080600181540180825580915050600190039060005260206000200160009091909190916101000a81548173ffffffffffffffffffffffffffffffffffffffff021916908373ffffffffffffffffffffffffffffffffffffffff160217905550600160005461023391906114fd565b60008190555060018060008373ffffffffffffffffffffffffffffffffffffffff1673ffffffffffffffffffffffffffffffffffffffff16815260200190815260200160002060006101000a81548160ff02191690831515021790555060405180610100016040528060005481526020018781526020018681526020018581526020018481526020018381526020018273ffffffffffffffffffffffffffffffffffffffff16815260200160011515815250600260008373ffffffffffffffffffffffffffffffffffffffff1673ffffffffffffffffffffffffffffffffffffffff16815260200190815260200160002060008201518160000155602082015181600101908051906020019061034a929190610ea0565b506040820151816002019080519060200190610367929190610ea0565b506060820151816003019080519060200190610384929190610ea0565b5060808201518160040190805190602001906103a1929190610ea0565b5060a08201518160050190805190602001906103be929190610ea0565b5060c08201518160060160006101000a81548173ffffffffffffffffffffffffffffffffffffffff021916908373ffffffffffffffffffffffffffffffffffffffff16021790555060e08201518160060160146101000a81548160ff021916908315150217905550905050505050505050565b60005481565b6003818154811061044757600080fd5b906000526020600020016000915054906101000a900473ffffffffffffffffffffffffffffffffffffffff1681565b60006060806060806060600080600260008a73ffffffffffffffffffffffffffffffffffffffff1673ffffffffffffffffffffffffffffffffffffffff16815260200190815260200160002060060160149054906101000a900460ff16610512576040517f08c379a0000000000000000000000000000000000000000000000000000000008152600401610509906115c5565b60405180910390fd5b6000600260008b73ffffffffffffffffffffffffffffffffffffffff1673ffffffffffffffffffffffffffffffffffffffff168152602001908152602001600020604051806101000160405290816000820154815260200160018201805461057990611614565b80601f01602080910402602001604051908101604052809291908181526020018280546105a590611614565b80156105f25780601f106105c7576101008083540402835291602001916105f2565b820191906000526020600020905b8154815290600101906020018083116105d557829003601f168201915b5050505050815260200160028201805461060b90611614565b80601f016020809104026020016040519081016040528092919081815260200182805461063790611614565b80156106845780601f1061065957610100808354040283529160200191610684565b820191906000526020600020905b81548152906001019060200180831161066757829003601f168201915b5050505050815260200160038201805461069d90611614565b80601f01602080910402602001604051908101604052809291908181526020018280546106c990611614565b80156107165780601f106106eb57610100808354040283529160200191610716565b820191906000526020600020905b8154815290600101906020018083116106f957829003601f168201915b5050505050815260200160048201805461072f90611614565b80601f016020809104026020016040519081016040528092919081815260200182805461075b90611614565b80156107a85780601f1061077d576101008083540402835291602001916107a8565b820191906000526020600020905b81548152906001019060200180831161078b57829003601f168201915b505050505081526020016005820180546107c190611614565b80601f01602080910402602001604051908101604052809291908181526020018280546107ed90611614565b801561083a5780601f1061080f5761010080835404028352916020019161083a565b820191906000526020600020905b81548152906001019060200180831161081d57829003601f168201915b505050505081526020016006820160009054906101000a900473ffffffffffffffffffffffffffffffffffffffff1673ffffffffffffffffffffffffffffffffffffffff1673ffffffffffffffffffffffffffffffffffffffff1681526020016006820160149054906101000a900460ff1615151515815250509050806000015181602001518260400151836060015184608001518560a001518660c001518760e001519850985098509850985098509850985050919395975091939597565b6000606080606080606060008060005b6003805490508110156109b7578960026000600384815481106109305761092f611646565b5b9060005260206000200160009054906101000a900473ffffffffffffffffffffffffffffffffffffffff1673ffffffffffffffffffffffffffffffffffffffff1673ffffffffffffffffffffffffffffffffffffffff1681526020019081526020016000206000015414156109a4576109b7565b80806109af90611675565b91505061090a565b8960026000600384815481106109d0576109cf611646565b5b9060005260206000200160009054906101000a900473ffffffffffffffffffffffffffffffffffffffff1673ffffffffffffffffffffffffffffffffffffffff1673ffffffffffffffffffffffffffffffffffffffff1681526020019081526020016000206000015414610a79576040517f08c379a0000000000000000000000000000000000000000000000000000000008152600401610a7090611730565b60405180910390fd5b60006002600060038481548110610a9357610a92611646565b5b9060005260206000200160009054906101000a900473ffffffffffffffffffffffffffffffffffffffff1673ffffffffffffffffffffffffffffffffffffffff1673ffffffffffffffffffffffffffffffffffffffff1681526020019081526020016000206040518061010001604052908160008201548152602001600182018054610b1e90611614565b80601f0160208091040260200160405190810160405280929190818152602001828054610b4a90611614565b8015610b975780601f10610b6c57610100808354040283529160200191610b97565b820191906000526020600020905b815481529060010190602001808311610b7a57829003601f168201915b50505050508152602001600282018054610bb090611614565b80601f0160208091040260200160405190810160405280929190818152602001828054610bdc90611614565b8015610c295780601f10610bfe57610100808354040283529160200191610c29565b820191906000526020600020905b815481529060010190602001808311610c0c57829003601f168201915b50505050508152602001600382018054610c4290611614565b80601f0160208091040260200160405190810160405280929190818152602001828054610c6e90611614565b8015610cbb5780601f10610c9057610100808354040283529160200191610cbb565b820191906000526020600020905b815481529060010190602001808311610c9e57829003601f168201915b50505050508152602001600482018054610cd490611614565b80601f0160208091040260200160405190810160405280929190818152602001828054610d0090611614565b8015610d4d5780601f10610d2257610100808354040283529160200191610d4d565b820191906000526020600020905b815481529060010190602001808311610d3057829003601f168201915b50505050508152602001600582018054610d6690611614565b80601f0160208091040260200160405190810160405280929190818152602001828054610d9290611614565b8015610ddf5780601f10610db457610100808354040283529160200191610ddf565b820191906000526020600020905b815481529060010190602001808311610dc257829003601f168201915b505050505081526020016006820160009054906101000a900473ffffffffffffffffffffffffffffffffffffffff1673ffffffffffffffffffffffffffffffffffffffff1673ffffffffffffffffffffffffffffffffffffffff1681526020016006820160149054906101000a900460ff1615151515815250509050806000015181602001518260400151836060015184608001518560a001518660c001518760e00151995099509950995099509950995099505050919395975091939597565b828054610eac90611614565b90600052602060002090601f016020900481019282610ece5760008555610f15565b82601f10610ee757805160ff1916838001178555610f15565b82800160010185558215610f15579182015b82811115610f14578251825591602001919060010190610ef9565b5b509050610f229190610f26565b5090565b5b80821115610f3f576000816000905550600101610f27565b5090565b6000604051905090565b600080fd5b600080fd5b600080fd5b600080fd5b6000601f19601f8301169050919050565b7f4e487b7100000000000000000000000000000000000000000000000000000000600052604160045260246000fd5b610faa82610f61565b810181811067ffffffffffffffff82111715610fc957610fc8610f72565b5b80604052505050565b6000610fdc610f43565b9050610fe88282610fa1565b919050565b600067ffffffffffffffff82111561100857611007610f72565b5b61101182610f61565b9050602081019050919050565b82818337600083830152505050565b600061104061103b84610fed565b610fd2565b90508281526020810184848401111561105c5761105b610f5c565b5b61106784828561101e565b509392505050565b600082601f83011261108457611083610f57565b5b813561109484826020860161102d565b91505092915050565b600073ffffffffffffffffffffffffffffffffffffffff82169050919050565b60006110c88261109d565b9050919050565b6110d8816110bd565b81146110e357600080fd5b50565b6000813590506110f5816110cf565b92915050565b60008060008060008060c0878903121561111857611117610f4d565b5b600087013567ffffffffffffffff81111561113657611135610f52565b5b61114289828a0161106f565b965050602087013567ffffffffffffffff81111561116357611162610f52565b5b61116f89828a0161106f565b955050604087013567ffffffffffffffff8111156111905761118f610f52565b5b61119c89828a0161106f565b945050606087013567ffffffffffffffff8111156111bd576111bc610f52565b5b6111c989828a0161106f565b935050608087013567ffffffffffffffff8111156111ea576111e9610f52565b5b6111f689828a0161106f565b92505060a061120789828a016110e6565b9150509295509295509295565b6000819050919050565b61122781611214565b82525050565b6000602082019050611242600083018461121e565b92915050565b61125181611214565b811461125c57600080fd5b50565b60008135905061126e81611248565b92915050565b60006020828403121561128a57611289610f4d565b5b60006112988482850161125f565b91505092915050565b6112aa816110bd565b82525050565b60006020820190506112c560008301846112a1565b92915050565b6000602082840312156112e1576112e0610f4d565b5b60006112ef848285016110e6565b91505092915050565b600081519050919050565b600082825260208201905092915050565b60005b83811015611332578082015181840152602081019050611317565b83811115611341576000848401525b50505050565b6000611352826112f8565b61135c8185611303565b935061136c818560208601611314565b61137581610f61565b840191505092915050565b60008115159050919050565b61139581611380565b82525050565b6000610100820190506113b1600083018b61121e565b81810360208301526113c3818a611347565b905081810360408301526113d78189611347565b905081810360608301526113eb8188611347565b905081810360808301526113ff8187611347565b905081810360a08301526114138186611347565b905061142260c08301856112a1565b61142f60e083018461138c565b9998505050505050505050565b7f4d65646963616c436f6d70616e7920697320616c72656164792072656769737460008201527f6572656400000000000000000000000000000000000000000000000000000000602082015250565b6000611498602483611303565b91506114a38261143c565b604082019050919050565b600060208201905081810360008301526114c78161148b565b9050919050565b7f4e487b7100000000000000000000000000000000000000000000000000000000600052601160045260246000fd5b600061150882611214565b915061151383611214565b9250827fffffffffffffffffffffffffffffffffffffffffffffffffffffffffffffffff03821115611548576115476114ce565b5b828201905092915050565b7f4d65646963616c436f6d70616e79206973206e6f7420617070726f766564206f60008201527f72206d65646963616c436f6d70616e7920646f6573206e6f7420657869737400602082015250565b60006115af603f83611303565b91506115ba82611553565b604082019050919050565b600060208201905081810360008301526115de816115a2565b9050919050565b7f4e487b7100000000000000000000000000000000000000000000000000000000600052602260045260246000fd5b6000600282049050600182168061162c57607f821691505b602082108114156116405761163f6115e5565b5b50919050565b7f4e487b7100000000000000000000000000000000000000000000000000000000600052603260045260246000fd5b600061168082611214565b91507fffffffffffffffffffffffffffffffffffffffffffffffffffffffffffffffff8214156116b3576116b26114ce565b5b600182019050919050565b7f4d65646963616c436f6d70616e7920636f756c64206e6f7420626520666f756e60008201527f6420776974682074686520676976656e20494400000000000000000000000000602082015250565b600061171a603383611303565b9150611725826116be565b604082019050919050565b600060208201905081810360008301526117498161170d565b905091905056fea26469706673582212204a8db2e5307f68febe1d5d8e0b72911391f5e48a8f53dea1eb9937e0344c629d64736f6c634300080b0033",
  "immutableReferences": {},
  "source": "pragma solidity ^0.8.0;\r\npragma experimental ABIEncoderV2;\r\n\r\ncontract Government {\r\n  uint256 public governmentListIndex;\r\n  mapping(address => bool) isGovernment;\r\n\r\n  struct ActionPlan {\r\n    string actionPlanCreationDate;\r\n    string actionPlanDescription;\r\n    string clinicalOutcome;\r\n    string contributingFactors;\r\n    string suspectedMedication;\r\n    string actionToTake;\r\n    string medicalCompanyInvolved;\r\n    string ipfsHash;\r\n  }\r\n\r\n  struct government {\r\n    uint256 id;\r\n    string name;\r\n    string country;\r\n    string phone;\r\n    string email;\r\n    string locationAddress;\r\n    ActionPlan[] actionPlans;\r\n    address addr;\r\n    bool isApproved;\r\n  }\r\n\r\n  mapping(address => government) governments;\r\n  address[] public governmentList;\r\n\r\n  function addGovernment(\r\n    string memory _name,\r\n    string memory _country,\r\n    string memory _phone,\r\n    string memory _email,\r\n    string memory _locationAddress,\r\n    address _addr\r\n  ) public {\r\n    require(!isGovernment[_addr], \"Government is already registered\");\r\n    governmentList.push(_addr);\r\n    governmentListIndex = governmentListIndex + 1;\r\n    isGovernment[_addr] = true;\r\n    governments[_addr].id = governmentListIndex;\r\n    governments[_addr].name = _name;\r\n    governments[_addr].country = _country;\r\n    governments[_addr].phone = _phone;\r\n    governments[_addr].email = _email;\r\n    governments[_addr].locationAddress = _locationAddress;\r\n    governments[_addr].addr = _addr;\r\n    governments[_addr].isApproved = true;\r\n  }\r\n\r\n  function getGovernmentById(uint256 _id)\r\n    public\r\n    view\r\n    returns (\r\n      uint256 id,\r\n      string memory name,\r\n      string memory country,\r\n      string memory phone,\r\n      string memory email,\r\n      string memory locationAddress,\r\n      address addr,\r\n      bool isApproved\r\n    )\r\n  {\r\n    uint256 i = 0;\r\n    for (; i < governmentList.length; i++) {\r\n      if (governments[governmentList[i]].id == _id) {\r\n        break;\r\n      }\r\n    }\r\n    require(\r\n      governments[governmentList[i]].id == _id,\r\n      \"Government could not be found with the given ID\"\r\n    );\r\n    government memory matchedEntry = governments[governmentList[i]];\r\n    return (\r\n      matchedEntry.id,\r\n      matchedEntry.name,\r\n      matchedEntry.country,\r\n      matchedEntry.phone,\r\n      matchedEntry.email,\r\n      matchedEntry.locationAddress,\r\n      matchedEntry.addr,\r\n      matchedEntry.isApproved\r\n    );\r\n  }\r\n\r\n  function getGovernmentProfile(address _address)\r\n    public\r\n    view\r\n    returns (\r\n      uint256 id,\r\n      string memory name,\r\n      string memory country,\r\n      string memory phone,\r\n      string memory email,\r\n      string memory locationAddress,\r\n      address addr,\r\n      bool isApproved\r\n    )\r\n  {\r\n    require(\r\n      governments[_address].isApproved,\r\n      \"Government is not approved or government does not exist\"\r\n    );\r\n    government memory matchedEntry = governments[_address];\r\n    return (\r\n      matchedEntry.id,\r\n      matchedEntry.name,\r\n      matchedEntry.country,\r\n      matchedEntry.phone,\r\n      matchedEntry.email,\r\n      matchedEntry.locationAddress,\r\n      matchedEntry.addr,\r\n      matchedEntry.isApproved\r\n    );\r\n  }\r\n\r\n  function addGovernmentActionPlan(\r\n    address _addr,\r\n    string memory _actionPlanCreationDate,\r\n    string memory _actionPlanDescription,\r\n    string memory _clinicalOutcome,\r\n    string memory _contributingFactors,\r\n    string memory _suspectedMedication,\r\n    string memory _actionToTake,\r\n    string memory _medicalCompanyInvolved,\r\n    string memory _ipfsHash\r\n  ) public {\r\n    require(isGovernment[_addr], \"Government is not registered\");\r\n    governments[_addr].actionPlans.push(\r\n      ActionPlan(\r\n        _actionPlanCreationDate,\r\n        _actionPlanDescription,\r\n        _clinicalOutcome,\r\n        _contributingFactors,\r\n        _suspectedMedication,\r\n        _actionToTake,\r\n        _medicalCompanyInvolved,\r\n        _ipfsHash\r\n      )\r\n    );\r\n  }\r\n\r\n  function getGovernmentActionPlans(address _addr)\r\n    public\r\n    view\r\n    returns (ActionPlan[] memory _actionPlans)\r\n  {\r\n    require(isGovernment[_addr], \"Government is not registered\");\r\n    require(\r\n      governments[_addr].actionPlans.length > 0,\r\n      \"Government does not have any action plans\"\r\n    );\r\n    return (governments[_addr].actionPlans);\r\n  }\r\n}\r\n\r\ncontract MedicalCompany {\r\n  uint256 public medicalCompanyListIndex;\r\n\r\n  mapping(address => bool) isMedicalCompany;\r\n\r\n  struct medicalCompany {\r\n    uint256 id;\r\n    string companyName;\r\n    string companyType;\r\n    string phone;\r\n    string email;\r\n    string locationAddress;\r\n    address addr;\r\n    bool isApproved;\r\n  }\r\n\r\n  mapping(address => medicalCompany) medicalCompanies;\r\n  address[] public medicalCompanyList;\r\n\r\n  function addMedicalCompany(\r\n    string memory _companyName,\r\n    string memory _companyType,\r\n    string memory _phone,\r\n    string memory _email,\r\n    string memory _locationAddress,\r\n    address _addr\r\n  ) public {\r\n    require(!isMedicalCompany[_addr], \"MedicalCompany is already registered\");\r\n    medicalCompanyList.push(_addr);\r\n    medicalCompanyListIndex = medicalCompanyListIndex + 1;\r\n    isMedicalCompany[_addr] = true;\r\n    medicalCompanies[_addr] = medicalCompany(\r\n      medicalCompanyListIndex,\r\n      _companyName,\r\n      _companyType,\r\n      _phone,\r\n      _email,\r\n      _locationAddress,\r\n      _addr,\r\n      true\r\n    );\r\n  }\r\n\r\n  function getMedicalCompanyById(uint256 _id)\r\n    public\r\n    view\r\n    returns (\r\n      uint256 id,\r\n      string memory companyName,\r\n      string memory companyType,\r\n      string memory phone,\r\n      string memory email,\r\n      string memory locationAddress,\r\n      address addr,\r\n      bool isApproved\r\n    )\r\n  {\r\n    uint256 i = 0;\r\n    for (; i < medicalCompanyList.length; i++) {\r\n      if (medicalCompanies[medicalCompanyList[i]].id == _id) {\r\n        break;\r\n      }\r\n    }\r\n    require(\r\n      medicalCompanies[medicalCompanyList[i]].id == _id,\r\n      \"MedicalCompany could not be found with the given ID\"\r\n    );\r\n    medicalCompany memory matchedEntry = medicalCompanies[\r\n      medicalCompanyList[i]\r\n    ];\r\n    return (\r\n      matchedEntry.id,\r\n      matchedEntry.companyName,\r\n      matchedEntry.companyType,\r\n      matchedEntry.phone,\r\n      matchedEntry.email,\r\n      matchedEntry.locationAddress,\r\n      matchedEntry.addr,\r\n      matchedEntry.isApproved\r\n    );\r\n  }\r\n\r\n  function getMedicalCompanyProfile(address _address)\r\n    public\r\n    view\r\n    returns (\r\n      uint256 id,\r\n      string memory companyName,\r\n      string memory companyType,\r\n      string memory phone,\r\n      string memory email,\r\n      string memory locationAddress,\r\n      address addr,\r\n      bool isApproved\r\n    )\r\n  {\r\n    require(\r\n      medicalCompanies[_address].isApproved,\r\n      \"MedicalCompany is not approved or medicalCompany does not exist\"\r\n    );\r\n    medicalCompany memory matchedEntry = medicalCompanies[_address];\r\n    return (\r\n      matchedEntry.id,\r\n      matchedEntry.companyName,\r\n      matchedEntry.companyType,\r\n      matchedEntry.phone,\r\n      matchedEntry.email,\r\n      matchedEntry.locationAddress,\r\n      matchedEntry.addr,\r\n      matchedEntry.isApproved\r\n    );\r\n  }\r\n}\r\n\r\ncontract Patient {\r\n  uint256 public patientListIndex = 0;\r\n\r\n  struct Report {\r\n    string incidentDate;\r\n    string incidentDescription;\r\n    string incidentCategory;\r\n    string careSetting;\r\n    string medicationTaken;\r\n    string medicalCompanyInvolved;\r\n    string ipfsHash;\r\n  }\r\n\r\n  struct patient {\r\n    uint256 id;\r\n    string firstName;\r\n    string lastName;\r\n    string phone;\r\n    string email;\r\n    string gender;\r\n    string dateOfBirth;\r\n    string bloodType;\r\n    string homeAddress;\r\n    Report[] reports;\r\n    address addr;\r\n  }\r\n\r\n  address[] private patientList;\r\n  // mapping(address => mapping(address => bool)) isAuth;\r\n  mapping(address => patient) patients;\r\n  mapping(address => bool) isPatient;\r\n\r\n  function addPatient(\r\n    string memory _firstName,\r\n    string memory _lastName,\r\n    string memory _phone,\r\n    string memory _email,\r\n    string memory _gender,\r\n    string memory _dateOfBirth,\r\n    string memory _bloodType,\r\n    string memory _homeAddress\r\n  ) public {\r\n    require(!isPatient[msg.sender], \"Patient is already registered\");\r\n    patientList.push(msg.sender);\r\n    patientListIndex = patientListIndex + 1;\r\n    isPatient[msg.sender] = true;\r\n    patients[msg.sender].id = patientListIndex;\r\n    patients[msg.sender].firstName = _firstName;\r\n    patients[msg.sender].lastName = _lastName;\r\n    patients[msg.sender].phone = _phone;\r\n    patients[msg.sender].email = _email;\r\n    patients[msg.sender].gender = _gender;\r\n    patients[msg.sender].dateOfBirth = _dateOfBirth;\r\n    patients[msg.sender].bloodType = _bloodType;\r\n    patients[msg.sender].homeAddress = _homeAddress;\r\n    patients[msg.sender].addr = msg.sender;\r\n  }\r\n\r\n  function getPatientProfile(address _addr)\r\n    public\r\n    view\r\n    returns (\r\n      uint256 _id,\r\n      string memory _firstName,\r\n      string memory _lastName,\r\n      string memory _phone,\r\n      string memory _email,\r\n      string memory _gender,\r\n      string memory _dateOfBirth,\r\n      string memory _bloodType,\r\n      string memory _homeAddress\r\n    )\r\n  {\r\n    require(isPatient[_addr], \"Patient is not registered\");\r\n    patient memory matchedEntry = patients[_addr];\r\n    return (\r\n      matchedEntry.id,\r\n      matchedEntry.firstName,\r\n      matchedEntry.lastName,\r\n      matchedEntry.phone,\r\n      matchedEntry.email,\r\n      matchedEntry.gender,\r\n      matchedEntry.dateOfBirth,\r\n      matchedEntry.bloodType,\r\n      matchedEntry.homeAddress\r\n    );\r\n  }\r\n\r\n  function addPatientReport(\r\n    address _addr,\r\n    string memory _incidentDate,\r\n    string memory _incidentDescription,\r\n    string memory _incidentCategory,\r\n    string memory _careSetting,\r\n    string memory _medicationTaken,\r\n    string memory _medicalCompanyInvolved,\r\n    string memory _ipfsHash\r\n  ) public {\r\n    require(isPatient[_addr], \"Patient is not registered\");\r\n    patients[_addr].reports.push(\r\n      Report(\r\n        _incidentDate,\r\n        _incidentDescription,\r\n        _incidentCategory,\r\n        _careSetting,\r\n        _medicationTaken,\r\n        _medicalCompanyInvolved,\r\n        _ipfsHash\r\n      )\r\n    );\r\n  }\r\n\r\n  function getPatientReports(address _addr)\r\n    public\r\n    view\r\n    returns (Report[] memory _reports)\r\n  {\r\n    require(isPatient[_addr], \"Patient is not registered\");\r\n    require(\r\n      patients[_addr].reports.length > 0,\r\n      \"Patient does not have any reports\"\r\n    );\r\n    return (patients[_addr].reports);\r\n  }\r\n}\r\n",
  "sourcePath": "C:\\Users\\Phillip\\Documents\\GitHub\\blockchain-in-phr\\contracts\\Contract.sol",
  "compiler": {
    "name": "solc",
    "version": "0.8.11+commit.d7f03943.Emscripten.clang"
  },
  "schemaVersion": "3.4.4",
  "updatedAt": "2022-11-11T05:25:48.812Z",
  "networkType": "ethereum",
  "devdoc": {
    "kind": "dev",
    "methods": {},
    "version": 1
  },
  "userdoc": {
    "kind": "user",
    "methods": {},
    "version": 1
  }
}