{
  "contractName": "MedicalCompany",
  "abi": [
    {
      "inputs": [
        {
          "internalType": "uint256",
          "name": "",
          "type": "uint256"
        }
      ],
      "name": "medicalCompanyList",
      "outputs": [
        {
          "internalType": "address",
          "name": "",
          "type": "address"
        }
      ],
      "stateMutability": "view",
      "type": "function"
    },
    {
      "inputs": [],
      "name": "medicalCompanyListIndex",
      "outputs": [
        {
          "internalType": "uint256",
          "name": "",
          "type": "uint256"
        }
      ],
      "stateMutability": "view",
      "type": "function"
    },
    {
      "inputs": [
        {
          "internalType": "string",
          "name": "_companyName",
          "type": "string"
        },
        {
          "internalType": "string",
          "name": "_companyType",
          "type": "string"
        },
        {
          "internalType": "string",
          "name": "_phone",
          "type": "string"
        },
        {
          "internalType": "string",
          "name": "_email",
          "type": "string"
        },
        {
          "internalType": "string",
          "name": "_locationAddress",
          "type": "string"
        },
        {
          "internalType": "address",
          "name": "_addr",
          "type": "address"
        }
      ],
      "name": "addMedicalCompany",
      "outputs": [],
      "stateMutability": "nonpayable",
      "type": "function"
    },
    {
      "inputs": [],
      "name": "getAllMedicalCompanyAddresses",
      "outputs": [
        {
          "internalType": "address[]",
          "name": "",
          "type": "address[]"
        }
      ],
      "stateMutability": "view",
      "type": "function"
    },
    {
      "inputs": [
        {
          "internalType": "uint256",
          "name": "_id",
          "type": "uint256"
        }
      ],
      "name": "getMedicalCompanyById",
      "outputs": [
        {
          "internalType": "uint256",
          "name": "id",
          "type": "uint256"
        },
        {
          "internalType": "string",
          "name": "companyName",
          "type": "string"
        },
        {
          "internalType": "string",
          "name": "companyType",
          "type": "string"
        },
        {
          "internalType": "string",
          "name": "phone",
          "type": "string"
        },
        {
          "internalType": "string",
          "name": "email",
          "type": "string"
        },
        {
          "internalType": "string",
          "name": "locationAddress",
          "type": "string"
        },
        {
          "internalType": "address",
          "name": "addr",
          "type": "address"
        },
        {
          "internalType": "bool",
          "name": "isApproved",
          "type": "bool"
        }
      ],
      "stateMutability": "view",
      "type": "function"
    },
    {
      "inputs": [
        {
          "internalType": "address",
          "name": "_address",
          "type": "address"
        }
      ],
      "name": "getMedicalCompanyProfile",
      "outputs": [
        {
          "internalType": "uint256",
          "name": "id",
          "type": "uint256"
        },
        {
          "internalType": "string",
          "name": "companyName",
          "type": "string"
        },
        {
          "internalType": "string",
          "name": "companyType",
          "type": "string"
        },
        {
          "internalType": "string",
          "name": "phone",
          "type": "string"
        },
        {
          "internalType": "string",
          "name": "email",
          "type": "string"
        },
        {
          "internalType": "string",
          "name": "locationAddress",
          "type": "string"
        },
        {
          "internalType": "address",
          "name": "addr",
          "type": "address"
        },
        {
          "internalType": "bool",
          "name": "isApproved",
          "type": "bool"
        }
      ],
      "stateMutability": "view",
      "type": "function"
    }
  ],
  "bytecode": "0x608060405234801561001057600080fd5b5061191d806100206000396000f3fe608060405234801561001057600080fd5b50600436106100625760003560e01c80631589c39a146100675780634e528f281461008557806358a8c7da146100a1578063699d347d146100bf5780637658d6c3146100ef5780637b40694614610126575b600080fd5b61006f61015d565b60405161007c91906110ea565b60405180910390f35b61009f600480360381019061009a9190611292565b6101eb565b005b6100a96104e8565b6040516100b691906113c4565b60405180910390f35b6100d960048036038101906100d4919061140b565b6104ee565b6040516100e69190611447565b60405180910390f35b61010960048036038101906101049190611462565b61052d565b60405161011d989796959493929190611532565b60405180910390f35b610140600480360381019061013b919061140b565b6109b1565b604051610154989796959493929190611532565b60405180910390f35b606060038054806020026020016040519081016040528092919081815260200182805480156101e157602002820191906000526020600020905b8160009054906101000a900473ffffffffffffffffffffffffffffffffffffffff1673ffffffffffffffffffffffffffffffffffffffff1681526020019060010190808311610197575b5050505050905090565b600160008273ffffffffffffffffffffffffffffffffffffffff1673ffffffffffffffffffffffffffffffffffffffff16815260200190815260200160002060009054906101000a900460ff1615610278576040517f08c379a000000000000000000000000000000000000000000000000000000000815260040161026f90611645565b60405180910390fd5b6003819080600181540180825580915050600190039060005260206000200160009091909190916101000a81548173ffffffffffffffffffffffffffffffffffffffff021916908373ffffffffffffffffffffffffffffffffffffffff16021790555060016000546102ea9190611694565b60008190555060018060008373ffffffffffffffffffffffffffffffffffffffff1673ffffffffffffffffffffffffffffffffffffffff16815260200190815260200160002060006101000a81548160ff02191690831515021790555060405180610100016040528060005481526020018781526020018681526020018581526020018481526020018381526020018273ffffffffffffffffffffffffffffffffffffffff16815260200160011515815250600260008373ffffffffffffffffffffffffffffffffffffffff1673ffffffffffffffffffffffffffffffffffffffff168152602001908152602001600020600082015181600001556020820151816001019080519060200190610401929190610f57565b50604082015181600201908051906020019061041e929190610f57565b50606082015181600301908051906020019061043b929190610f57565b506080820151816004019080519060200190610458929190610f57565b5060a0820151816005019080519060200190610475929190610f57565b5060c08201518160060160006101000a81548173ffffffffffffffffffffffffffffffffffffffff021916908373ffffffffffffffffffffffffffffffffffffffff16021790555060e08201518160060160146101000a81548160ff021916908315150217905550905050505050505050565b60005481565b600381815481106104fe57600080fd5b906000526020600020016000915054906101000a900473ffffffffffffffffffffffffffffffffffffffff1681565b60006060806060806060600080600260008a73ffffffffffffffffffffffffffffffffffffffff1673ffffffffffffffffffffffffffffffffffffffff16815260200190815260200160002060060160149054906101000a900460ff166105c9576040517f08c379a00000000000000000000000000000000000000000000000000000000081526004016105c09061175c565b60405180910390fd5b6000600260008b73ffffffffffffffffffffffffffffffffffffffff1673ffffffffffffffffffffffffffffffffffffffff1681526020019081526020016000206040518061010001604052908160008201548152602001600182018054610630906117ab565b80601f016020809104026020016040519081016040528092919081815260200182805461065c906117ab565b80156106a95780601f1061067e576101008083540402835291602001916106a9565b820191906000526020600020905b81548152906001019060200180831161068c57829003601f168201915b505050505081526020016002820180546106c2906117ab565b80601f01602080910402602001604051908101604052809291908181526020018280546106ee906117ab565b801561073b5780601f106107105761010080835404028352916020019161073b565b820191906000526020600020905b81548152906001019060200180831161071e57829003601f168201915b50505050508152602001600382018054610754906117ab565b80601f0160208091040260200160405190810160405280929190818152602001828054610780906117ab565b80156107cd5780601f106107a2576101008083540402835291602001916107cd565b820191906000526020600020905b8154815290600101906020018083116107b057829003601f168201915b505050505081526020016004820180546107e6906117ab565b80601f0160208091040260200160405190810160405280929190818152602001828054610812906117ab565b801561085f5780601f106108345761010080835404028352916020019161085f565b820191906000526020600020905b81548152906001019060200180831161084257829003601f168201915b50505050508152602001600582018054610878906117ab565b80601f01602080910402602001604051908101604052809291908181526020018280546108a4906117ab565b80156108f15780601f106108c6576101008083540402835291602001916108f1565b820191906000526020600020905b8154815290600101906020018083116108d457829003601f168201915b505050505081526020016006820160009054906101000a900473ffffffffffffffffffffffffffffffffffffffff1673ffffffffffffffffffffffffffffffffffffffff1673ffffffffffffffffffffffffffffffffffffffff1681526020016006820160149054906101000a900460ff1615151515815250509050806000015181602001518260400151836060015184608001518560a001518660c001518760e001519850985098509850985098509850985050919395975091939597565b6000606080606080606060008060005b600380549050811015610a6e578960026000600384815481106109e7576109e66117dd565b5b9060005260206000200160009054906101000a900473ffffffffffffffffffffffffffffffffffffffff1673ffffffffffffffffffffffffffffffffffffffff1673ffffffffffffffffffffffffffffffffffffffff168152602001908152602001600020600001541415610a5b57610a6e565b8080610a669061180c565b9150506109c1565b896002600060038481548110610a8757610a866117dd565b5b9060005260206000200160009054906101000a900473ffffffffffffffffffffffffffffffffffffffff1673ffffffffffffffffffffffffffffffffffffffff1673ffffffffffffffffffffffffffffffffffffffff1681526020019081526020016000206000015414610b30576040517f08c379a0000000000000000000000000000000000000000000000000000000008152600401610b27906118c7565b60405180910390fd5b60006002600060038481548110610b4a57610b496117dd565b5b9060005260206000200160009054906101000a900473ffffffffffffffffffffffffffffffffffffffff1673ffffffffffffffffffffffffffffffffffffffff1673ffffffffffffffffffffffffffffffffffffffff1681526020019081526020016000206040518061010001604052908160008201548152602001600182018054610bd5906117ab565b80601f0160208091040260200160405190810160405280929190818152602001828054610c01906117ab565b8015610c4e5780601f10610c2357610100808354040283529160200191610c4e565b820191906000526020600020905b815481529060010190602001808311610c3157829003601f168201915b50505050508152602001600282018054610c67906117ab565b80601f0160208091040260200160405190810160405280929190818152602001828054610c93906117ab565b8015610ce05780601f10610cb557610100808354040283529160200191610ce0565b820191906000526020600020905b815481529060010190602001808311610cc357829003601f168201915b50505050508152602001600382018054610cf9906117ab565b80601f0160208091040260200160405190810160405280929190818152602001828054610d25906117ab565b8015610d725780601f10610d4757610100808354040283529160200191610d72565b820191906000526020600020905b815481529060010190602001808311610d5557829003601f168201915b50505050508152602001600482018054610d8b906117ab565b80601f0160208091040260200160405190810160405280929190818152602001828054610db7906117ab565b8015610e045780601f10610dd957610100808354040283529160200191610e04565b820191906000526020600020905b815481529060010190602001808311610de757829003601f168201915b50505050508152602001600582018054610e1d906117ab565b80601f0160208091040260200160405190810160405280929190818152602001828054610e49906117ab565b8015610e965780601f10610e6b57610100808354040283529160200191610e96565b820191906000526020600020905b815481529060010190602001808311610e7957829003601f168201915b505050505081526020016006820160009054906101000a900473ffffffffffffffffffffffffffffffffffffffff1673ffffffffffffffffffffffffffffffffffffffff1673ffffffffffffffffffffffffffffffffffffffff1681526020016006820160149054906101000a900460ff1615151515815250509050806000015181602001518260400151836060015184608001518560a001518660c001518760e00151995099509950995099509950995099505050919395975091939597565b828054610f63906117ab565b90600052602060002090601f016020900481019282610f855760008555610fcc565b82601f10610f9e57805160ff1916838001178555610fcc565b82800160010185558215610fcc579182015b82811115610fcb578251825591602001919060010190610fb0565b5b509050610fd99190610fdd565b5090565b5b80821115610ff6576000816000905550600101610fde565b5090565b600081519050919050565b600082825260208201905092915050565b6000819050602082019050919050565b600073ffffffffffffffffffffffffffffffffffffffff82169050919050565b600061105182611026565b9050919050565b61106181611046565b82525050565b60006110738383611058565b60208301905092915050565b6000602082019050919050565b600061109782610ffa565b6110a18185611005565b93506110ac83611016565b8060005b838110156110dd5781516110c48882611067565b97506110cf8361107f565b9250506001810190506110b0565b5085935050505092915050565b60006020820190508181036000830152611104818461108c565b905092915050565b6000604051905090565b600080fd5b600080fd5b600080fd5b600080fd5b6000601f19601f8301169050919050565b7f4e487b7100000000000000000000000000000000000000000000000000000000600052604160045260246000fd5b6111738261112a565b810181811067ffffffffffffffff821117156111925761119161113b565b5b80604052505050565b60006111a561110c565b90506111b1828261116a565b919050565b600067ffffffffffffffff8211156111d1576111d061113b565b5b6111da8261112a565b9050602081019050919050565b82818337600083830152505050565b6000611209611204846111b6565b61119b565b90508281526020810184848401111561122557611224611125565b5b6112308482856111e7565b509392505050565b600082601f83011261124d5761124c611120565b5b813561125d8482602086016111f6565b91505092915050565b61126f81611046565b811461127a57600080fd5b50565b60008135905061128c81611266565b92915050565b60008060008060008060c087890312156112af576112ae611116565b5b600087013567ffffffffffffffff8111156112cd576112cc61111b565b5b6112d989828a01611238565b965050602087013567ffffffffffffffff8111156112fa576112f961111b565b5b61130689828a01611238565b955050604087013567ffffffffffffffff8111156113275761132661111b565b5b61133389828a01611238565b945050606087013567ffffffffffffffff8111156113545761135361111b565b5b61136089828a01611238565b935050608087013567ffffffffffffffff8111156113815761138061111b565b5b61138d89828a01611238565b92505060a061139e89828a0161127d565b9150509295509295509295565b6000819050919050565b6113be816113ab565b82525050565b60006020820190506113d960008301846113b5565b92915050565b6113e8816113ab565b81146113f357600080fd5b50565b600081359050611405816113df565b92915050565b60006020828403121561142157611420611116565b5b600061142f848285016113f6565b91505092915050565b61144181611046565b82525050565b600060208201905061145c6000830184611438565b92915050565b60006020828403121561147857611477611116565b5b60006114868482850161127d565b91505092915050565b600081519050919050565b600082825260208201905092915050565b60005b838110156114c95780820151818401526020810190506114ae565b838111156114d8576000848401525b50505050565b60006114e98261148f565b6114f3818561149a565b93506115038185602086016114ab565b61150c8161112a565b840191505092915050565b60008115159050919050565b61152c81611517565b82525050565b600061010082019050611548600083018b6113b5565b818103602083015261155a818a6114de565b9050818103604083015261156e81896114de565b9050818103606083015261158281886114de565b9050818103608083015261159681876114de565b905081810360a08301526115aa81866114de565b90506115b960c0830185611438565b6115c660e0830184611523565b9998505050505050505050565b7f4d65646963616c436f6d70616e7920697320616c72656164792072656769737460008201527f6572656400000000000000000000000000000000000000000000000000000000602082015250565b600061162f60248361149a565b915061163a826115d3565b604082019050919050565b6000602082019050818103600083015261165e81611622565b9050919050565b7f4e487b7100000000000000000000000000000000000000000000000000000000600052601160045260246000fd5b600061169f826113ab565b91506116aa836113ab565b9250827fffffffffffffffffffffffffffffffffffffffffffffffffffffffffffffffff038211156116df576116de611665565b5b828201905092915050565b7f4d65646963616c436f6d70616e79206973206e6f7420617070726f766564206f60008201527f72206d65646963616c436f6d70616e7920646f6573206e6f7420657869737400602082015250565b6000611746603f8361149a565b9150611751826116ea565b604082019050919050565b6000602082019050818103600083015261177581611739565b9050919050565b7f4e487b7100000000000000000000000000000000000000000000000000000000600052602260045260246000fd5b600060028204905060018216806117c357607f821691505b602082108114156117d7576117d661177c565b5b50919050565b7f4e487b7100000000000000000000000000000000000000000000000000000000600052603260045260246000fd5b6000611817826113ab565b91507fffffffffffffffffffffffffffffffffffffffffffffffffffffffffffffffff82141561184a57611849611665565b5b600182019050919050565b7f4d65646963616c436f6d70616e7920636f756c64206e6f7420626520666f756e60008201527f6420776974682074686520676976656e20494400000000000000000000000000602082015250565b60006118b160338361149a565b91506118bc82611855565b604082019050919050565b600060208201905081810360008301526118e0816118a4565b905091905056fea26469706673582212202625c1af014d7681814f82e3c31ebfffc6c2069d495500a4c237cd84aadcdf5064736f6c634300080b0033",
  "immutableReferences": {},
  "source": "pragma solidity ^0.8.0;\r\npragma experimental ABIEncoderV2;\r\n\r\ncontract Government {\r\n  uint256 public governmentListIndex;\r\n  mapping(address => bool) isGovernment;\r\n\r\n  struct ActionPlan {\r\n    string creator;\r\n    string reportId;\r\n    string actionPlanCreationDate;\r\n    string actionPlanDescription;\r\n    string clinicalOutcome;\r\n    string contributingFactors;\r\n    string suspectedMedication;\r\n    string actionToTake;\r\n    string medicalCompanyInvolved;\r\n    string ipfsHash;\r\n    bool resolved;\r\n  }\r\n\r\n  struct government {\r\n    uint256 id;\r\n    string name;\r\n    string country;\r\n    string phone;\r\n    string email;\r\n    string locationAddress;\r\n    ActionPlan[] actionPlans;\r\n    address addr;\r\n    bool isApproved;\r\n  }\r\n\r\n  mapping(address => government) governments;\r\n  address[] public governmentList;\r\n\r\n  function addGovernment(\r\n    string memory _name,\r\n    string memory _country,\r\n    string memory _phone,\r\n    string memory _email,\r\n    string memory _locationAddress,\r\n    address _addr\r\n  ) public {\r\n    require(!isGovernment[_addr], \"Government is already registered\");\r\n    governmentList.push(_addr);\r\n    governmentListIndex = governmentListIndex + 1;\r\n    isGovernment[_addr] = true;\r\n    governments[_addr].id = governmentListIndex;\r\n    governments[_addr].name = _name;\r\n    governments[_addr].country = _country;\r\n    governments[_addr].phone = _phone;\r\n    governments[_addr].email = _email;\r\n    governments[_addr].locationAddress = _locationAddress;\r\n    governments[_addr].addr = _addr;\r\n    governments[_addr].isApproved = true;\r\n  }\r\n\r\n  function getAllGovernmentAddresses() public view returns (address[] memory) {\r\n    return governmentList;\r\n  }\r\n\r\n  function getGovernmentById(uint256 _id)\r\n    public\r\n    view\r\n    returns (\r\n      uint256 id,\r\n      string memory name,\r\n      string memory country,\r\n      string memory phone,\r\n      string memory email,\r\n      string memory locationAddress,\r\n      address addr,\r\n      bool isApproved\r\n    )\r\n  {\r\n    uint256 i = 0;\r\n    for (; i < governmentList.length; i++) {\r\n      if (governments[governmentList[i]].id == _id) {\r\n        break;\r\n      }\r\n    }\r\n    require(\r\n      governments[governmentList[i]].id == _id,\r\n      \"Government could not be found with the given ID\"\r\n    );\r\n    government memory matchedEntry = governments[governmentList[i]];\r\n    return (\r\n      matchedEntry.id,\r\n      matchedEntry.name,\r\n      matchedEntry.country,\r\n      matchedEntry.phone,\r\n      matchedEntry.email,\r\n      matchedEntry.locationAddress,\r\n      matchedEntry.addr,\r\n      matchedEntry.isApproved\r\n    );\r\n  }\r\n\r\n  function getGovernmentProfile(address _address)\r\n    public\r\n    view\r\n    returns (\r\n      uint256 id,\r\n      string memory name,\r\n      string memory country,\r\n      string memory phone,\r\n      string memory email,\r\n      string memory locationAddress,\r\n      address addr,\r\n      bool isApproved\r\n    )\r\n  {\r\n    require(\r\n      governments[_address].isApproved,\r\n      \"Government is not approved or government does not exist\"\r\n    );\r\n    government memory matchedEntry = governments[_address];\r\n    return (\r\n      matchedEntry.id,\r\n      matchedEntry.name,\r\n      matchedEntry.country,\r\n      matchedEntry.phone,\r\n      matchedEntry.email,\r\n      matchedEntry.locationAddress,\r\n      matchedEntry.addr,\r\n      matchedEntry.isApproved\r\n    );\r\n  }\r\n\r\n  function addGovernmentActionPlan(\r\n    address _addr,\r\n    string memory _reportId,\r\n    string memory _actionPlanCreationDate,\r\n    string memory _actionPlanDescription,\r\n    string memory _clinicalOutcome,\r\n    string memory _contributingFactors,\r\n    string memory _suspectedMedication,\r\n    string memory _actionToTake,\r\n    string memory _medicalCompanyInvolved,\r\n    string memory _ipfsHash\r\n  ) public {\r\n    require(isGovernment[_addr], \"Government is not registered\");\r\n    governments[_addr].actionPlans.push(\r\n      ActionPlan(\r\n        governments[_addr].name,\r\n        _reportId,\r\n        _actionPlanCreationDate,\r\n        _actionPlanDescription,\r\n        _clinicalOutcome,\r\n        _contributingFactors,\r\n        _suspectedMedication,\r\n        _actionToTake,\r\n        _medicalCompanyInvolved,\r\n        _ipfsHash,\r\n        false\r\n      )\r\n    );\r\n  }\r\n\r\n  function getGovernmentActionPlans(address _addr)\r\n    public\r\n    view\r\n    returns (ActionPlan[] memory _actionPlans)\r\n  {\r\n    require(isGovernment[_addr], \"Government is not registered\");\r\n    require(\r\n      governments[_addr].actionPlans.length > 0,\r\n      \"Government does not have any action plans\"\r\n    );\r\n    return (governments[_addr].actionPlans);\r\n  }\r\n}\r\n\r\ncontract MedicalCompany {\r\n  uint256 public medicalCompanyListIndex;\r\n\r\n  mapping(address => bool) isMedicalCompany;\r\n\r\n  struct medicalCompany {\r\n    uint256 id;\r\n    string companyName;\r\n    string companyType;\r\n    string phone;\r\n    string email;\r\n    string locationAddress;\r\n    address addr;\r\n    bool isApproved;\r\n  }\r\n\r\n  mapping(address => medicalCompany) medicalCompanies;\r\n  address[] public medicalCompanyList;\r\n\r\n  function addMedicalCompany(\r\n    string memory _companyName,\r\n    string memory _companyType,\r\n    string memory _phone,\r\n    string memory _email,\r\n    string memory _locationAddress,\r\n    address _addr\r\n  ) public {\r\n    require(!isMedicalCompany[_addr], \"MedicalCompany is already registered\");\r\n    medicalCompanyList.push(_addr);\r\n    medicalCompanyListIndex = medicalCompanyListIndex + 1;\r\n    isMedicalCompany[_addr] = true;\r\n    medicalCompanies[_addr] = medicalCompany(\r\n      medicalCompanyListIndex,\r\n      _companyName,\r\n      _companyType,\r\n      _phone,\r\n      _email,\r\n      _locationAddress,\r\n      _addr,\r\n      true\r\n    );\r\n  }\r\n\r\n  function getAllMedicalCompanyAddresses()\r\n    public\r\n    view\r\n    returns (address[] memory)\r\n  {\r\n    return medicalCompanyList;\r\n  }\r\n\r\n  function getMedicalCompanyById(uint256 _id)\r\n    public\r\n    view\r\n    returns (\r\n      uint256 id,\r\n      string memory companyName,\r\n      string memory companyType,\r\n      string memory phone,\r\n      string memory email,\r\n      string memory locationAddress,\r\n      address addr,\r\n      bool isApproved\r\n    )\r\n  {\r\n    uint256 i = 0;\r\n    for (; i < medicalCompanyList.length; i++) {\r\n      if (medicalCompanies[medicalCompanyList[i]].id == _id) {\r\n        break;\r\n      }\r\n    }\r\n    require(\r\n      medicalCompanies[medicalCompanyList[i]].id == _id,\r\n      \"MedicalCompany could not be found with the given ID\"\r\n    );\r\n    medicalCompany memory matchedEntry = medicalCompanies[\r\n      medicalCompanyList[i]\r\n    ];\r\n    return (\r\n      matchedEntry.id,\r\n      matchedEntry.companyName,\r\n      matchedEntry.companyType,\r\n      matchedEntry.phone,\r\n      matchedEntry.email,\r\n      matchedEntry.locationAddress,\r\n      matchedEntry.addr,\r\n      matchedEntry.isApproved\r\n    );\r\n  }\r\n\r\n  function getMedicalCompanyProfile(address _address)\r\n    public\r\n    view\r\n    returns (\r\n      uint256 id,\r\n      string memory companyName,\r\n      string memory companyType,\r\n      string memory phone,\r\n      string memory email,\r\n      string memory locationAddress,\r\n      address addr,\r\n      bool isApproved\r\n    )\r\n  {\r\n    require(\r\n      medicalCompanies[_address].isApproved,\r\n      \"MedicalCompany is not approved or medicalCompany does not exist\"\r\n    );\r\n    medicalCompany memory matchedEntry = medicalCompanies[_address];\r\n    return (\r\n      matchedEntry.id,\r\n      matchedEntry.companyName,\r\n      matchedEntry.companyType,\r\n      matchedEntry.phone,\r\n      matchedEntry.email,\r\n      matchedEntry.locationAddress,\r\n      matchedEntry.addr,\r\n      matchedEntry.isApproved\r\n    );\r\n  }\r\n}\r\n\r\ncontract Patient {\r\n  uint256 public patientListIndex = 0;\r\n  uint256 public reportIndex = 0;\r\n\r\n  struct Report {\r\n    uint256 reportId;\r\n    string reporterFirstName;\r\n    string reporterLastName;\r\n    string incidentDate;\r\n    string incidentDescription;\r\n    string incidentCategory;\r\n    string careSetting;\r\n    string medicationTaken;\r\n    string medicalCompanyInvolved;\r\n    string ipfsHash;\r\n  }\r\n\r\n  struct patient {\r\n    uint256 id;\r\n    string firstName;\r\n    string lastName;\r\n    string phone;\r\n    string email;\r\n    string gender;\r\n    string dateOfBirth;\r\n    string bloodType;\r\n    string homeAddress;\r\n    Report[] reports;\r\n    address addr;\r\n  }\r\n\r\n  address[] private patientList;\r\n  // mapping(address => mapping(address => bool)) isAuth;\r\n  mapping(address => patient) patients;\r\n  mapping(address => bool) isPatient;\r\n\r\n  function addPatient(\r\n    string memory _firstName,\r\n    string memory _lastName,\r\n    string memory _phone,\r\n    string memory _email,\r\n    string memory _gender,\r\n    string memory _dateOfBirth,\r\n    string memory _bloodType,\r\n    string memory _homeAddress\r\n  ) public {\r\n    require(!isPatient[msg.sender], \"Patient is already registered\");\r\n    patientList.push(msg.sender);\r\n    patientListIndex = patientListIndex + 1;\r\n    isPatient[msg.sender] = true;\r\n    patients[msg.sender].id = patientListIndex;\r\n    patients[msg.sender].firstName = _firstName;\r\n    patients[msg.sender].lastName = _lastName;\r\n    patients[msg.sender].phone = _phone;\r\n    patients[msg.sender].email = _email;\r\n    patients[msg.sender].gender = _gender;\r\n    patients[msg.sender].dateOfBirth = _dateOfBirth;\r\n    patients[msg.sender].bloodType = _bloodType;\r\n    patients[msg.sender].homeAddress = _homeAddress;\r\n    patients[msg.sender].addr = msg.sender;\r\n  }\r\n\r\n  function getAllPatientAddresses() public view returns (address[] memory) {\r\n    return patientList;\r\n  }\r\n\r\n  function getPatientProfile(address _addr)\r\n    public\r\n    view\r\n    returns (\r\n      uint256 _id,\r\n      string memory _firstName,\r\n      string memory _lastName,\r\n      string memory _phone,\r\n      string memory _email,\r\n      string memory _gender,\r\n      string memory _dateOfBirth,\r\n      string memory _bloodType,\r\n      string memory _homeAddress\r\n    )\r\n  {\r\n    require(isPatient[_addr], \"Patient is not registered\");\r\n    patient memory matchedEntry = patients[_addr];\r\n    return (\r\n      matchedEntry.id,\r\n      matchedEntry.firstName,\r\n      matchedEntry.lastName,\r\n      matchedEntry.phone,\r\n      matchedEntry.email,\r\n      matchedEntry.gender,\r\n      matchedEntry.dateOfBirth,\r\n      matchedEntry.bloodType,\r\n      matchedEntry.homeAddress\r\n    );\r\n  }\r\n\r\n  function addPatientReport(\r\n    address _addr,\r\n    string memory _incidentDate,\r\n    string memory _incidentDescription,\r\n    string memory _incidentCategory,\r\n    string memory _careSetting,\r\n    string memory _medicationTaken,\r\n    string memory _medicalCompanyInvolved,\r\n    string memory _ipfsHash\r\n  ) public {\r\n    require(isPatient[_addr], \"Patient is not registered\");\r\n    reportIndex = reportIndex + 1;\r\n    patients[_addr].reports.push(\r\n      Report(\r\n        reportIndex,\r\n        patients[_addr].firstName,\r\n        patients[_addr].lastName,\r\n        _incidentDate,\r\n        _incidentDescription,\r\n        _incidentCategory,\r\n        _careSetting,\r\n        _medicationTaken,\r\n        _medicalCompanyInvolved,\r\n        _ipfsHash\r\n      )\r\n    );\r\n  }\r\n\r\n  function getPatientReports(address _addr)\r\n    public\r\n    view\r\n    returns (Report[] memory _reports)\r\n  {\r\n    require(isPatient[_addr], \"Patient is not registered\");\r\n    require(\r\n      patients[_addr].reports.length > 0,\r\n      \"Patient does not have any reports\"\r\n    );\r\n    return (patients[_addr].reports);\r\n  }\r\n}\r\n",
  "sourcePath": "C:\\Users\\Phillip\\Documents\\GitHub\\blockchain-in-phr\\contracts\\Contract.sol",
  "compiler": {
    "name": "solc",
    "version": "0.8.11+commit.d7f03943.Emscripten.clang"
  },
  "schemaVersion": "3.4.4",
  "updatedAt": "2022-11-20T06:06:26.881Z",
  "devdoc": {
    "kind": "dev",
    "methods": {},
    "version": 1
  },
  "userdoc": {
    "kind": "user",
    "methods": {},
    "version": 1
  }
}