{
  "contractName": "Patient",
  "abi": [
    {
      "inputs": [],
      "name": "patientListIndex",
      "outputs": [
        {
          "internalType": "uint256",
          "name": "",
          "type": "uint256"
        }
      ],
      "stateMutability": "view",
      "type": "function"
    },
    {
      "inputs": [],
      "name": "reportIndex",
      "outputs": [
        {
          "internalType": "uint256",
          "name": "",
          "type": "uint256"
        }
      ],
      "stateMutability": "view",
      "type": "function"
    },
    {
      "inputs": [
        {
          "internalType": "string",
          "name": "_firstName",
          "type": "string"
        },
        {
          "internalType": "string",
          "name": "_lastName",
          "type": "string"
        },
        {
          "internalType": "string",
          "name": "_phone",
          "type": "string"
        },
        {
          "internalType": "string",
          "name": "_email",
          "type": "string"
        },
        {
          "internalType": "string",
          "name": "_gender",
          "type": "string"
        },
        {
          "internalType": "string",
          "name": "_dateOfBirth",
          "type": "string"
        },
        {
          "internalType": "string",
          "name": "_bloodType",
          "type": "string"
        },
        {
          "internalType": "string",
          "name": "_homeAddress",
          "type": "string"
        }
      ],
      "name": "addPatient",
      "outputs": [],
      "stateMutability": "nonpayable",
      "type": "function"
    },
    {
      "inputs": [],
      "name": "getAllPatientAddresses",
      "outputs": [
        {
          "internalType": "address[]",
          "name": "",
          "type": "address[]"
        }
      ],
      "stateMutability": "view",
      "type": "function"
    },
    {
      "inputs": [
        {
          "internalType": "address",
          "name": "_addr",
          "type": "address"
        }
      ],
      "name": "getPatientProfile",
      "outputs": [
        {
          "internalType": "uint256",
          "name": "_id",
          "type": "uint256"
        },
        {
          "internalType": "string",
          "name": "_firstName",
          "type": "string"
        },
        {
          "internalType": "string",
          "name": "_lastName",
          "type": "string"
        },
        {
          "internalType": "string",
          "name": "_phone",
          "type": "string"
        },
        {
          "internalType": "string",
          "name": "_email",
          "type": "string"
        },
        {
          "internalType": "string",
          "name": "_gender",
          "type": "string"
        },
        {
          "internalType": "string",
          "name": "_dateOfBirth",
          "type": "string"
        },
        {
          "internalType": "string",
          "name": "_bloodType",
          "type": "string"
        },
        {
          "internalType": "string",
          "name": "_homeAddress",
          "type": "string"
        }
      ],
      "stateMutability": "view",
      "type": "function"
    },
    {
      "inputs": [
        {
          "internalType": "address",
          "name": "_addr",
          "type": "address"
        },
        {
          "internalType": "string",
          "name": "_incidentDate",
          "type": "string"
        },
        {
          "internalType": "string",
          "name": "_incidentDescription",
          "type": "string"
        },
        {
          "internalType": "string",
          "name": "_incidentCategory",
          "type": "string"
        },
        {
          "internalType": "string",
          "name": "_careSetting",
          "type": "string"
        },
        {
          "internalType": "string",
          "name": "_medicationTaken",
          "type": "string"
        },
        {
          "internalType": "string",
          "name": "_medicalCompanyInvolved",
          "type": "string"
        },
        {
          "internalType": "string",
          "name": "_ipfsHash",
          "type": "string"
        }
      ],
      "name": "addPatientReport",
      "outputs": [],
      "stateMutability": "nonpayable",
      "type": "function"
    },
    {
      "inputs": [
        {
          "internalType": "address",
          "name": "_addr",
          "type": "address"
        }
      ],
      "name": "getPatientReports",
      "outputs": [
        {
          "components": [
            {
              "internalType": "uint256",
              "name": "reportId",
              "type": "uint256"
            },
            {
              "internalType": "string",
              "name": "reporterFirstName",
              "type": "string"
            },
            {
              "internalType": "string",
              "name": "reporterLastName",
              "type": "string"
            },
            {
              "internalType": "string",
              "name": "incidentDate",
              "type": "string"
            },
            {
              "internalType": "string",
              "name": "incidentDescription",
              "type": "string"
            },
            {
              "internalType": "string",
              "name": "incidentCategory",
              "type": "string"
            },
            {
              "internalType": "string",
              "name": "careSetting",
              "type": "string"
            },
            {
              "internalType": "string",
              "name": "medicationTaken",
              "type": "string"
            },
            {
              "internalType": "string",
              "name": "medicalCompanyInvolved",
              "type": "string"
            },
            {
              "internalType": "string",
              "name": "ipfsHash",
              "type": "string"
            }
          ],
          "internalType": "struct Patient.Report[]",
          "name": "_reports",
          "type": "tuple[]"
        }
      ],
      "stateMutability": "view",
      "type": "function"
    }
  ],
  "bytecode": "0x608060405260008055600060015534801561001957600080fd5b50612a66806100296000396000f3fe608060405234801561001057600080fd5b506004361061007d5760003560e01c80637d0f98bb1161005b5780637d0f98bb146100f657806392be3e65146101125780639312a9ec14610130578063e65a06911461014c5761007d565b8063307c2c0e14610082578063461a2082146100a057806356490597146100d8575b600080fd5b61008a61017c565b6040516100979190611e54565b60405180910390f35b6100ba60048036038101906100b59190611ee1565b610182565b6040516100cf99989796959493929190611fa7565b60405180910390f35b6100e0610d35565b6040516100ed9190611e54565b60405180910390f35b610110600480360381019061010b91906121a1565b610d3b565b005b61011a611224565b60405161012791906123f5565b60405180910390f35b61014a60048036038101906101459190612417565b6112b2565b005b61016660048036038101906101619190611ee1565b6116b6565b60405161017391906127be565b60405180910390f35b60015481565b6000606080606080606080606080600460008b73ffffffffffffffffffffffffffffffffffffffff1673ffffffffffffffffffffffffffffffffffffffff16815260200190815260200160002060009054906101000a900460ff1661021c576040517f08c379a00000000000000000000000000000000000000000000000000000000081526004016102139061282c565b60405180910390fd5b6000600360008c73ffffffffffffffffffffffffffffffffffffffff1673ffffffffffffffffffffffffffffffffffffffff16815260200190815260200160002060405180610160016040529081600082015481526020016001820180546102839061287b565b80601f01602080910402602001604051908101604052809291908181526020018280546102af9061287b565b80156102fc5780601f106102d1576101008083540402835291602001916102fc565b820191906000526020600020905b8154815290600101906020018083116102df57829003601f168201915b505050505081526020016002820180546103159061287b565b80601f01602080910402602001604051908101604052809291908181526020018280546103419061287b565b801561038e5780601f106103635761010080835404028352916020019161038e565b820191906000526020600020905b81548152906001019060200180831161037157829003601f168201915b505050505081526020016003820180546103a79061287b565b80601f01602080910402602001604051908101604052809291908181526020018280546103d39061287b565b80156104205780601f106103f557610100808354040283529160200191610420565b820191906000526020600020905b81548152906001019060200180831161040357829003601f168201915b505050505081526020016004820180546104399061287b565b80601f01602080910402602001604051908101604052809291908181526020018280546104659061287b565b80156104b25780601f10610487576101008083540402835291602001916104b2565b820191906000526020600020905b81548152906001019060200180831161049557829003601f168201915b505050505081526020016005820180546104cb9061287b565b80601f01602080910402602001604051908101604052809291908181526020018280546104f79061287b565b80156105445780601f1061051957610100808354040283529160200191610544565b820191906000526020600020905b81548152906001019060200180831161052757829003601f168201915b5050505050815260200160068201805461055d9061287b565b80601f01602080910402602001604051908101604052809291908181526020018280546105899061287b565b80156105d65780601f106105ab576101008083540402835291602001916105d6565b820191906000526020600020905b8154815290600101906020018083116105b957829003601f168201915b505050505081526020016007820180546105ef9061287b565b80601f016020809104026020016040519081016040528092919081815260200182805461061b9061287b565b80156106685780601f1061063d57610100808354040283529160200191610668565b820191906000526020600020905b81548152906001019060200180831161064b57829003601f168201915b505050505081526020016008820180546106819061287b565b80601f01602080910402602001604051908101604052809291908181526020018280546106ad9061287b565b80156106fa5780601f106106cf576101008083540402835291602001916106fa565b820191906000526020600020905b8154815290600101906020018083116106dd57829003601f168201915b5050505050815260200160098201805480602002602001604051908101604052809291908181526020016000905b82821015610c8757838290600052602060002090600a020160405180610140016040529081600082015481526020016001820180546107669061287b565b80601f01602080910402602001604051908101604052809291908181526020018280546107929061287b565b80156107df5780601f106107b4576101008083540402835291602001916107df565b820191906000526020600020905b8154815290600101906020018083116107c257829003601f168201915b505050505081526020016002820180546107f89061287b565b80601f01602080910402602001604051908101604052809291908181526020018280546108249061287b565b80156108715780601f1061084657610100808354040283529160200191610871565b820191906000526020600020905b81548152906001019060200180831161085457829003601f168201915b5050505050815260200160038201805461088a9061287b565b80601f01602080910402602001604051908101604052809291908181526020018280546108b69061287b565b80156109035780601f106108d857610100808354040283529160200191610903565b820191906000526020600020905b8154815290600101906020018083116108e657829003601f168201915b5050505050815260200160048201805461091c9061287b565b80601f01602080910402602001604051908101604052809291908181526020018280546109489061287b565b80156109955780601f1061096a57610100808354040283529160200191610995565b820191906000526020600020905b81548152906001019060200180831161097857829003601f168201915b505050505081526020016005820180546109ae9061287b565b80601f01602080910402602001604051908101604052809291908181526020018280546109da9061287b565b8015610a275780601f106109fc57610100808354040283529160200191610a27565b820191906000526020600020905b815481529060010190602001808311610a0a57829003601f168201915b50505050508152602001600682018054610a409061287b565b80601f0160208091040260200160405190810160405280929190818152602001828054610a6c9061287b565b8015610ab95780601f10610a8e57610100808354040283529160200191610ab9565b820191906000526020600020905b815481529060010190602001808311610a9c57829003601f168201915b50505050508152602001600782018054610ad29061287b565b80601f0160208091040260200160405190810160405280929190818152602001828054610afe9061287b565b8015610b4b5780601f10610b2057610100808354040283529160200191610b4b565b820191906000526020600020905b815481529060010190602001808311610b2e57829003601f168201915b50505050508152602001600882018054610b649061287b565b80601f0160208091040260200160405190810160405280929190818152602001828054610b909061287b565b8015610bdd5780601f10610bb257610100808354040283529160200191610bdd565b820191906000526020600020905b815481529060010190602001808311610bc057829003601f168201915b50505050508152602001600982018054610bf69061287b565b80601f0160208091040260200160405190810160405280929190818152602001828054610c229061287b565b8015610c6f5780601f10610c4457610100808354040283529160200191610c6f565b820191906000526020600020905b815481529060010190602001808311610c5257829003601f168201915b50505050508152505081526020019060010190610728565b505050508152602001600a820160009054906101000a900473ffffffffffffffffffffffffffffffffffffffff1673ffffffffffffffffffffffffffffffffffffffff1673ffffffffffffffffffffffffffffffffffffffff16815250509050806000015181602001518260400151836060015184608001518560a001518660c001518760e00151886101000151995099509950995099509950995099509950509193959799909294969850565b60005481565b600460003373ffffffffffffffffffffffffffffffffffffffff1673ffffffffffffffffffffffffffffffffffffffff16815260200190815260200160002060009054906101000a900460ff1615610dc8576040517f08c379a0000000000000000000000000000000000000000000000000000000008152600401610dbf906128f9565b60405180910390fd5b6002339080600181540180825580915050600190039060005260206000200160009091909190916101000a81548173ffffffffffffffffffffffffffffffffffffffff021916908373ffffffffffffffffffffffffffffffffffffffff1602179055506001600054610e3a9190612948565b6000819055506001600460003373ffffffffffffffffffffffffffffffffffffffff1673ffffffffffffffffffffffffffffffffffffffff16815260200190815260200160002060006101000a81548160ff021916908315150217905550600054600360003373ffffffffffffffffffffffffffffffffffffffff1673ffffffffffffffffffffffffffffffffffffffff1681526020019081526020016000206000018190555087600360003373ffffffffffffffffffffffffffffffffffffffff1673ffffffffffffffffffffffffffffffffffffffff1681526020019081526020016000206001019080519060200190610f37929190611d98565b5086600360003373ffffffffffffffffffffffffffffffffffffffff1673ffffffffffffffffffffffffffffffffffffffff1681526020019081526020016000206002019080519060200190610f8e929190611d98565b5085600360003373ffffffffffffffffffffffffffffffffffffffff1673ffffffffffffffffffffffffffffffffffffffff1681526020019081526020016000206003019080519060200190610fe5929190611d98565b5084600360003373ffffffffffffffffffffffffffffffffffffffff1673ffffffffffffffffffffffffffffffffffffffff168152602001908152602001600020600401908051906020019061103c929190611d98565b5083600360003373ffffffffffffffffffffffffffffffffffffffff1673ffffffffffffffffffffffffffffffffffffffff1681526020019081526020016000206005019080519060200190611093929190611d98565b5082600360003373ffffffffffffffffffffffffffffffffffffffff1673ffffffffffffffffffffffffffffffffffffffff16815260200190815260200160002060060190805190602001906110ea929190611d98565b5081600360003373ffffffffffffffffffffffffffffffffffffffff1673ffffffffffffffffffffffffffffffffffffffff1681526020019081526020016000206007019080519060200190611141929190611d98565b5080600360003373ffffffffffffffffffffffffffffffffffffffff1673ffffffffffffffffffffffffffffffffffffffff1681526020019081526020016000206008019080519060200190611198929190611d98565b5033600360003373ffffffffffffffffffffffffffffffffffffffff1673ffffffffffffffffffffffffffffffffffffffff168152602001908152602001600020600a0160006101000a81548173ffffffffffffffffffffffffffffffffffffffff021916908373ffffffffffffffffffffffffffffffffffffffff1602179055505050505050505050565b606060028054806020026020016040519081016040528092919081815260200182805480156112a857602002820191906000526020600020905b8160009054906101000a900473ffffffffffffffffffffffffffffffffffffffff1673ffffffffffffffffffffffffffffffffffffffff168152602001906001019080831161125e575b5050505050905090565b600460008973ffffffffffffffffffffffffffffffffffffffff1673ffffffffffffffffffffffffffffffffffffffff16815260200190815260200160002060009054906101000a900460ff1661133e576040517f08c379a00000000000000000000000000000000000000000000000000000000081526004016113359061282c565b60405180910390fd5b6001805461134c9190612948565b600181905550600360008973ffffffffffffffffffffffffffffffffffffffff1673ffffffffffffffffffffffffffffffffffffffff1681526020019081526020016000206009016040518061014001604052806001548152602001600360008c73ffffffffffffffffffffffffffffffffffffffff1673ffffffffffffffffffffffffffffffffffffffff16815260200190815260200160002060010180546113f59061287b565b80601f01602080910402602001604051908101604052809291908181526020018280546114219061287b565b801561146e5780601f106114435761010080835404028352916020019161146e565b820191906000526020600020905b81548152906001019060200180831161145157829003601f168201915b50505050508152602001600360008c73ffffffffffffffffffffffffffffffffffffffff1673ffffffffffffffffffffffffffffffffffffffff16815260200190815260200160002060020180546114c59061287b565b80601f01602080910402602001604051908101604052809291908181526020018280546114f19061287b565b801561153e5780601f106115135761010080835404028352916020019161153e565b820191906000526020600020905b81548152906001019060200180831161152157829003601f168201915b505050505081526020018981526020018881526020018781526020018681526020018581526020018481526020018381525090806001815401808255809150506001900390600052602060002090600a02016000909190919091506000820151816000015560208201518160010190805190602001906115bf929190611d98565b5060408201518160020190805190602001906115dc929190611d98565b5060608201518160030190805190602001906115f9929190611d98565b506080820151816004019080519060200190611616929190611d98565b5060a0820151816005019080519060200190611633929190611d98565b5060c0820151816006019080519060200190611650929190611d98565b5060e082015181600701908051906020019061166d929190611d98565b5061010082015181600801908051906020019061168b929190611d98565b506101208201518160090190805190602001906116a9929190611d98565b5050505050505050505050565b6060600460008373ffffffffffffffffffffffffffffffffffffffff1673ffffffffffffffffffffffffffffffffffffffff16815260200190815260200160002060009054906101000a900460ff16611744576040517f08c379a000000000000000000000000000000000000000000000000000000000815260040161173b9061282c565b60405180910390fd5b6000600360008473ffffffffffffffffffffffffffffffffffffffff1673ffffffffffffffffffffffffffffffffffffffff16815260200190815260200160002060090180549050116117cc576040517f08c379a00000000000000000000000000000000000000000000000000000000081526004016117c390612a10565b60405180910390fd5b600360008373ffffffffffffffffffffffffffffffffffffffff1673ffffffffffffffffffffffffffffffffffffffff168152602001908152602001600020600901805480602002602001604051908101604052809291908181526020016000905b82821015611d8d57838290600052602060002090600a0201604051806101400160405290816000820154815260200160018201805461186c9061287b565b80601f01602080910402602001604051908101604052809291908181526020018280546118989061287b565b80156118e55780601f106118ba576101008083540402835291602001916118e5565b820191906000526020600020905b8154815290600101906020018083116118c857829003601f168201915b505050505081526020016002820180546118fe9061287b565b80601f016020809104026020016040519081016040528092919081815260200182805461192a9061287b565b80156119775780601f1061194c57610100808354040283529160200191611977565b820191906000526020600020905b81548152906001019060200180831161195a57829003601f168201915b505050505081526020016003820180546119909061287b565b80601f01602080910402602001604051908101604052809291908181526020018280546119bc9061287b565b8015611a095780601f106119de57610100808354040283529160200191611a09565b820191906000526020600020905b8154815290600101906020018083116119ec57829003601f168201915b50505050508152602001600482018054611a229061287b565b80601f0160208091040260200160405190810160405280929190818152602001828054611a4e9061287b565b8015611a9b5780601f10611a7057610100808354040283529160200191611a9b565b820191906000526020600020905b815481529060010190602001808311611a7e57829003601f168201915b50505050508152602001600582018054611ab49061287b565b80601f0160208091040260200160405190810160405280929190818152602001828054611ae09061287b565b8015611b2d5780601f10611b0257610100808354040283529160200191611b2d565b820191906000526020600020905b815481529060010190602001808311611b1057829003601f168201915b50505050508152602001600682018054611b469061287b565b80601f0160208091040260200160405190810160405280929190818152602001828054611b729061287b565b8015611bbf5780601f10611b9457610100808354040283529160200191611bbf565b820191906000526020600020905b815481529060010190602001808311611ba257829003601f168201915b50505050508152602001600782018054611bd89061287b565b80601f0160208091040260200160405190810160405280929190818152602001828054611c049061287b565b8015611c515780601f10611c2657610100808354040283529160200191611c51565b820191906000526020600020905b815481529060010190602001808311611c3457829003601f168201915b50505050508152602001600882018054611c6a9061287b565b80601f0160208091040260200160405190810160405280929190818152602001828054611c969061287b565b8015611ce35780601f10611cb857610100808354040283529160200191611ce3565b820191906000526020600020905b815481529060010190602001808311611cc657829003601f168201915b50505050508152602001600982018054611cfc9061287b565b80601f0160208091040260200160405190810160405280929190818152602001828054611d289061287b565b8015611d755780601f10611d4a57610100808354040283529160200191611d75565b820191906000526020600020905b815481529060010190602001808311611d5857829003601f168201915b5050505050815250508152602001906001019061182e565b505050509050919050565b828054611da49061287b565b90600052602060002090601f016020900481019282611dc65760008555611e0d565b82601f10611ddf57805160ff1916838001178555611e0d565b82800160010185558215611e0d579182015b82811115611e0c578251825591602001919060010190611df1565b5b509050611e1a9190611e1e565b5090565b5b80821115611e37576000816000905550600101611e1f565b5090565b6000819050919050565b611e4e81611e3b565b82525050565b6000602082019050611e696000830184611e45565b92915050565b6000604051905090565b600080fd5b600080fd5b600073ffffffffffffffffffffffffffffffffffffffff82169050919050565b6000611eae82611e83565b9050919050565b611ebe81611ea3565b8114611ec957600080fd5b50565b600081359050611edb81611eb5565b92915050565b600060208284031215611ef757611ef6611e79565b5b6000611f0584828501611ecc565b91505092915050565b600081519050919050565b600082825260208201905092915050565b60005b83811015611f48578082015181840152602081019050611f2d565b83811115611f57576000848401525b50505050565b6000601f19601f8301169050919050565b6000611f7982611f0e565b611f838185611f19565b9350611f93818560208601611f2a565b611f9c81611f5d565b840191505092915050565b600061012082019050611fbd600083018c611e45565b8181036020830152611fcf818b611f6e565b90508181036040830152611fe3818a611f6e565b90508181036060830152611ff78189611f6e565b9050818103608083015261200b8188611f6e565b905081810360a083015261201f8187611f6e565b905081810360c08301526120338186611f6e565b905081810360e08301526120478185611f6e565b905081810361010083015261205c8184611f6e565b90509a9950505050505050505050565b600080fd5b600080fd5b7f4e487b7100000000000000000000000000000000000000000000000000000000600052604160045260246000fd5b6120ae82611f5d565b810181811067ffffffffffffffff821117156120cd576120cc612076565b5b80604052505050565b60006120e0611e6f565b90506120ec82826120a5565b919050565b600067ffffffffffffffff82111561210c5761210b612076565b5b61211582611f5d565b9050602081019050919050565b82818337600083830152505050565b600061214461213f846120f1565b6120d6565b9050828152602081018484840111156121605761215f612071565b5b61216b848285612122565b509392505050565b600082601f8301126121885761218761206c565b5b8135612198848260208601612131565b91505092915050565b600080600080600080600080610100898b0312156121c2576121c1611e79565b5b600089013567ffffffffffffffff8111156121e0576121df611e7e565b5b6121ec8b828c01612173565b985050602089013567ffffffffffffffff81111561220d5761220c611e7e565b5b6122198b828c01612173565b975050604089013567ffffffffffffffff81111561223a57612239611e7e565b5b6122468b828c01612173565b965050606089013567ffffffffffffffff81111561226757612266611e7e565b5b6122738b828c01612173565b955050608089013567ffffffffffffffff81111561229457612293611e7e565b5b6122a08b828c01612173565b94505060a089013567ffffffffffffffff8111156122c1576122c0611e7e565b5b6122cd8b828c01612173565b93505060c089013567ffffffffffffffff8111156122ee576122ed611e7e565b5b6122fa8b828c01612173565b92505060e089013567ffffffffffffffff81111561231b5761231a611e7e565b5b6123278b828c01612173565b9150509295985092959890939650565b600081519050919050565b600082825260208201905092915050565b6000819050602082019050919050565b61236c81611ea3565b82525050565b600061237e8383612363565b60208301905092915050565b6000602082019050919050565b60006123a282612337565b6123ac8185612342565b93506123b783612353565b8060005b838110156123e85781516123cf8882612372565b97506123da8361238a565b9250506001810190506123bb565b5085935050505092915050565b6000602082019050818103600083015261240f8184612397565b905092915050565b600080600080600080600080610100898b03121561243857612437611e79565b5b60006124468b828c01611ecc565b985050602089013567ffffffffffffffff81111561246757612466611e7e565b5b6124738b828c01612173565b975050604089013567ffffffffffffffff81111561249457612493611e7e565b5b6124a08b828c01612173565b965050606089013567ffffffffffffffff8111156124c1576124c0611e7e565b5b6124cd8b828c01612173565b955050608089013567ffffffffffffffff8111156124ee576124ed611e7e565b5b6124fa8b828c01612173565b94505060a089013567ffffffffffffffff81111561251b5761251a611e7e565b5b6125278b828c01612173565b93505060c089013567ffffffffffffffff81111561254857612547611e7e565b5b6125548b828c01612173565b92505060e089013567ffffffffffffffff81111561257557612574611e7e565b5b6125818b828c01612173565b9150509295985092959890939650565b600081519050919050565b600082825260208201905092915050565b6000819050602082019050919050565b6125c681611e3b565b82525050565b600082825260208201905092915050565b60006125e882611f0e565b6125f281856125cc565b9350612602818560208601611f2a565b61260b81611f5d565b840191505092915050565b60006101408301600083015161262f60008601826125bd565b506020830151848203602086015261264782826125dd565b9150506040830151848203604086015261266182826125dd565b9150506060830151848203606086015261267b82826125dd565b9150506080830151848203608086015261269582826125dd565b91505060a083015184820360a08601526126af82826125dd565b91505060c083015184820360c08601526126c982826125dd565b91505060e083015184820360e08601526126e382826125dd565b9150506101008301518482036101008601526126ff82826125dd565b91505061012083015184820361012086015261271b82826125dd565b9150508091505092915050565b60006127348383612616565b905092915050565b6000602082019050919050565b600061275482612591565b61275e818561259c565b935083602082028501612770856125ad565b8060005b858110156127ac578484038952815161278d8582612728565b94506127988361273c565b925060208a01995050600181019050612774565b50829750879550505050505092915050565b600060208201905081810360008301526127d88184612749565b905092915050565b7f50617469656e74206973206e6f74207265676973746572656400000000000000600082015250565b6000612816601983611f19565b9150612821826127e0565b602082019050919050565b6000602082019050818103600083015261284581612809565b9050919050565b7f4e487b7100000000000000000000000000000000000000000000000000000000600052602260045260246000fd5b6000600282049050600182168061289357607f821691505b602082108114156128a7576128a661284c565b5b50919050565b7f50617469656e7420697320616c72656164792072656769737465726564000000600082015250565b60006128e3601d83611f19565b91506128ee826128ad565b602082019050919050565b60006020820190508181036000830152612912816128d6565b9050919050565b7f4e487b7100000000000000000000000000000000000000000000000000000000600052601160045260246000fd5b600061295382611e3b565b915061295e83611e3b565b9250827fffffffffffffffffffffffffffffffffffffffffffffffffffffffffffffffff0382111561299357612992612919565b5b828201905092915050565b7f50617469656e7420646f6573206e6f74206861766520616e79207265706f727460008201527f7300000000000000000000000000000000000000000000000000000000000000602082015250565b60006129fa602183611f19565b9150612a058261299e565b604082019050919050565b60006020820190508181036000830152612a29816129ed565b905091905056fea264697066735822122059f51bd84cbe54fbc7bdb2c388f822b87e5abeddba2bea5a0225272babb02aa264736f6c634300080b0033",
  "immutableReferences": {},
  "source": "pragma solidity ^0.8.0;\r\npragma experimental ABIEncoderV2;\r\n\r\ncontract Government {\r\n  uint256 public governmentListIndex;\r\n  mapping(address => bool) isGovernment;\r\n\r\n  struct ActionPlan {\r\n    string creator;\r\n    string reportId;\r\n    string actionPlanCreationDate;\r\n    string actionPlanDescription;\r\n    string clinicalOutcome;\r\n    string contributingFactors;\r\n    string suspectedMedication;\r\n    string actionToTake;\r\n    string medicalCompanyInvolved;\r\n    string ipfsHash;\r\n    bool resolved;\r\n  }\r\n\r\n  struct government {\r\n    uint256 id;\r\n    string name;\r\n    string country;\r\n    string phone;\r\n    string email;\r\n    string locationAddress;\r\n    ActionPlan[] actionPlans;\r\n    address addr;\r\n    bool isApproved;\r\n  }\r\n\r\n  mapping(address => government) governments;\r\n  address[] public governmentList;\r\n\r\n  function addGovernment(\r\n    string memory _name,\r\n    string memory _country,\r\n    string memory _phone,\r\n    string memory _email,\r\n    string memory _locationAddress,\r\n    address _addr\r\n  ) public {\r\n    require(!isGovernment[_addr], \"Government is already registered\");\r\n    governmentList.push(_addr);\r\n    governmentListIndex = governmentListIndex + 1;\r\n    isGovernment[_addr] = true;\r\n    governments[_addr].id = governmentListIndex;\r\n    governments[_addr].name = _name;\r\n    governments[_addr].country = _country;\r\n    governments[_addr].phone = _phone;\r\n    governments[_addr].email = _email;\r\n    governments[_addr].locationAddress = _locationAddress;\r\n    governments[_addr].addr = _addr;\r\n    governments[_addr].isApproved = true;\r\n  }\r\n\r\n  function getAllGovernmentAddresses() public view returns (address[] memory) {\r\n    return governmentList;\r\n  }\r\n\r\n  function getGovernmentById(uint256 _id)\r\n    public\r\n    view\r\n    returns (\r\n      uint256 id,\r\n      string memory name,\r\n      string memory country,\r\n      string memory phone,\r\n      string memory email,\r\n      string memory locationAddress,\r\n      address addr,\r\n      bool isApproved\r\n    )\r\n  {\r\n    uint256 i = 0;\r\n    for (; i < governmentList.length; i++) {\r\n      if (governments[governmentList[i]].id == _id) {\r\n        break;\r\n      }\r\n    }\r\n    require(\r\n      governments[governmentList[i]].id == _id,\r\n      \"Government could not be found with the given ID\"\r\n    );\r\n    government memory matchedEntry = governments[governmentList[i]];\r\n    return (\r\n      matchedEntry.id,\r\n      matchedEntry.name,\r\n      matchedEntry.country,\r\n      matchedEntry.phone,\r\n      matchedEntry.email,\r\n      matchedEntry.locationAddress,\r\n      matchedEntry.addr,\r\n      matchedEntry.isApproved\r\n    );\r\n  }\r\n\r\n  function getGovernmentProfile(address _address)\r\n    public\r\n    view\r\n    returns (\r\n      uint256 id,\r\n      string memory name,\r\n      string memory country,\r\n      string memory phone,\r\n      string memory email,\r\n      string memory locationAddress,\r\n      address addr,\r\n      bool isApproved\r\n    )\r\n  {\r\n    require(\r\n      governments[_address].isApproved,\r\n      \"Government is not approved or government does not exist\"\r\n    );\r\n    government memory matchedEntry = governments[_address];\r\n    return (\r\n      matchedEntry.id,\r\n      matchedEntry.name,\r\n      matchedEntry.country,\r\n      matchedEntry.phone,\r\n      matchedEntry.email,\r\n      matchedEntry.locationAddress,\r\n      matchedEntry.addr,\r\n      matchedEntry.isApproved\r\n    );\r\n  }\r\n\r\n  function addGovernmentActionPlan(\r\n    address _addr,\r\n    string memory _reportId,\r\n    string memory _actionPlanCreationDate,\r\n    string memory _actionPlanDescription,\r\n    string memory _clinicalOutcome,\r\n    string memory _contributingFactors,\r\n    string memory _suspectedMedication,\r\n    string memory _actionToTake,\r\n    string memory _medicalCompanyInvolved,\r\n    string memory _ipfsHash\r\n  ) public {\r\n    require(isGovernment[_addr], \"Government is not registered\");\r\n    governments[_addr].actionPlans.push(\r\n      ActionPlan(\r\n        governments[_addr].name,\r\n        _reportId,\r\n        _actionPlanCreationDate,\r\n        _actionPlanDescription,\r\n        _clinicalOutcome,\r\n        _contributingFactors,\r\n        _suspectedMedication,\r\n        _actionToTake,\r\n        _medicalCompanyInvolved,\r\n        _ipfsHash,\r\n        false\r\n      )\r\n    );\r\n  }\r\n\r\n  function getGovernmentActionPlans(address _addr)\r\n    public\r\n    view\r\n    returns (ActionPlan[] memory _actionPlans)\r\n  {\r\n    require(isGovernment[_addr], \"Government is not registered\");\r\n    require(\r\n      governments[_addr].actionPlans.length > 0,\r\n      \"Government does not have any action plans\"\r\n    );\r\n    return (governments[_addr].actionPlans);\r\n  }\r\n}\r\n\r\ncontract MedicalCompany {\r\n  uint256 public medicalCompanyListIndex;\r\n\r\n  mapping(address => bool) isMedicalCompany;\r\n\r\n  struct medicalCompany {\r\n    uint256 id;\r\n    string companyName;\r\n    string companyType;\r\n    string phone;\r\n    string email;\r\n    string locationAddress;\r\n    address addr;\r\n    bool isApproved;\r\n  }\r\n\r\n  mapping(address => medicalCompany) medicalCompanies;\r\n  address[] public medicalCompanyList;\r\n\r\n  function addMedicalCompany(\r\n    string memory _companyName,\r\n    string memory _companyType,\r\n    string memory _phone,\r\n    string memory _email,\r\n    string memory _locationAddress,\r\n    address _addr\r\n  ) public {\r\n    require(!isMedicalCompany[_addr], \"MedicalCompany is already registered\");\r\n    medicalCompanyList.push(_addr);\r\n    medicalCompanyListIndex = medicalCompanyListIndex + 1;\r\n    isMedicalCompany[_addr] = true;\r\n    medicalCompanies[_addr] = medicalCompany(\r\n      medicalCompanyListIndex,\r\n      _companyName,\r\n      _companyType,\r\n      _phone,\r\n      _email,\r\n      _locationAddress,\r\n      _addr,\r\n      true\r\n    );\r\n  }\r\n\r\n  function getAllMedicalCompanyAddresses()\r\n    public\r\n    view\r\n    returns (address[] memory)\r\n  {\r\n    return medicalCompanyList;\r\n  }\r\n\r\n  function getMedicalCompanyById(uint256 _id)\r\n    public\r\n    view\r\n    returns (\r\n      uint256 id,\r\n      string memory companyName,\r\n      string memory companyType,\r\n      string memory phone,\r\n      string memory email,\r\n      string memory locationAddress,\r\n      address addr,\r\n      bool isApproved\r\n    )\r\n  {\r\n    uint256 i = 0;\r\n    for (; i < medicalCompanyList.length; i++) {\r\n      if (medicalCompanies[medicalCompanyList[i]].id == _id) {\r\n        break;\r\n      }\r\n    }\r\n    require(\r\n      medicalCompanies[medicalCompanyList[i]].id == _id,\r\n      \"MedicalCompany could not be found with the given ID\"\r\n    );\r\n    medicalCompany memory matchedEntry = medicalCompanies[\r\n      medicalCompanyList[i]\r\n    ];\r\n    return (\r\n      matchedEntry.id,\r\n      matchedEntry.companyName,\r\n      matchedEntry.companyType,\r\n      matchedEntry.phone,\r\n      matchedEntry.email,\r\n      matchedEntry.locationAddress,\r\n      matchedEntry.addr,\r\n      matchedEntry.isApproved\r\n    );\r\n  }\r\n\r\n  function getMedicalCompanyProfile(address _address)\r\n    public\r\n    view\r\n    returns (\r\n      uint256 id,\r\n      string memory companyName,\r\n      string memory companyType,\r\n      string memory phone,\r\n      string memory email,\r\n      string memory locationAddress,\r\n      address addr,\r\n      bool isApproved\r\n    )\r\n  {\r\n    require(\r\n      medicalCompanies[_address].isApproved,\r\n      \"MedicalCompany is not approved or medicalCompany does not exist\"\r\n    );\r\n    medicalCompany memory matchedEntry = medicalCompanies[_address];\r\n    return (\r\n      matchedEntry.id,\r\n      matchedEntry.companyName,\r\n      matchedEntry.companyType,\r\n      matchedEntry.phone,\r\n      matchedEntry.email,\r\n      matchedEntry.locationAddress,\r\n      matchedEntry.addr,\r\n      matchedEntry.isApproved\r\n    );\r\n  }\r\n}\r\n\r\ncontract Patient {\r\n  uint256 public patientListIndex = 0;\r\n  uint256 public reportIndex = 0;\r\n\r\n  struct Report {\r\n    uint256 reportId;\r\n    string reporterFirstName;\r\n    string reporterLastName;\r\n    string incidentDate;\r\n    string incidentDescription;\r\n    string incidentCategory;\r\n    string careSetting;\r\n    string medicationTaken;\r\n    string medicalCompanyInvolved;\r\n    string ipfsHash;\r\n  }\r\n\r\n  struct patient {\r\n    uint256 id;\r\n    string firstName;\r\n    string lastName;\r\n    string phone;\r\n    string email;\r\n    string gender;\r\n    string dateOfBirth;\r\n    string bloodType;\r\n    string homeAddress;\r\n    Report[] reports;\r\n    address addr;\r\n  }\r\n\r\n  address[] private patientList;\r\n  // mapping(address => mapping(address => bool)) isAuth;\r\n  mapping(address => patient) patients;\r\n  mapping(address => bool) isPatient;\r\n\r\n  function addPatient(\r\n    string memory _firstName,\r\n    string memory _lastName,\r\n    string memory _phone,\r\n    string memory _email,\r\n    string memory _gender,\r\n    string memory _dateOfBirth,\r\n    string memory _bloodType,\r\n    string memory _homeAddress\r\n  ) public {\r\n    require(!isPatient[msg.sender], \"Patient is already registered\");\r\n    patientList.push(msg.sender);\r\n    patientListIndex = patientListIndex + 1;\r\n    isPatient[msg.sender] = true;\r\n    patients[msg.sender].id = patientListIndex;\r\n    patients[msg.sender].firstName = _firstName;\r\n    patients[msg.sender].lastName = _lastName;\r\n    patients[msg.sender].phone = _phone;\r\n    patients[msg.sender].email = _email;\r\n    patients[msg.sender].gender = _gender;\r\n    patients[msg.sender].dateOfBirth = _dateOfBirth;\r\n    patients[msg.sender].bloodType = _bloodType;\r\n    patients[msg.sender].homeAddress = _homeAddress;\r\n    patients[msg.sender].addr = msg.sender;\r\n  }\r\n\r\n  function getAllPatientAddresses() public view returns (address[] memory) {\r\n    return patientList;\r\n  }\r\n\r\n  function getPatientProfile(address _addr)\r\n    public\r\n    view\r\n    returns (\r\n      uint256 _id,\r\n      string memory _firstName,\r\n      string memory _lastName,\r\n      string memory _phone,\r\n      string memory _email,\r\n      string memory _gender,\r\n      string memory _dateOfBirth,\r\n      string memory _bloodType,\r\n      string memory _homeAddress\r\n    )\r\n  {\r\n    require(isPatient[_addr], \"Patient is not registered\");\r\n    patient memory matchedEntry = patients[_addr];\r\n    return (\r\n      matchedEntry.id,\r\n      matchedEntry.firstName,\r\n      matchedEntry.lastName,\r\n      matchedEntry.phone,\r\n      matchedEntry.email,\r\n      matchedEntry.gender,\r\n      matchedEntry.dateOfBirth,\r\n      matchedEntry.bloodType,\r\n      matchedEntry.homeAddress\r\n    );\r\n  }\r\n\r\n  function addPatientReport(\r\n    address _addr,\r\n    string memory _incidentDate,\r\n    string memory _incidentDescription,\r\n    string memory _incidentCategory,\r\n    string memory _careSetting,\r\n    string memory _medicationTaken,\r\n    string memory _medicalCompanyInvolved,\r\n    string memory _ipfsHash\r\n  ) public {\r\n    require(isPatient[_addr], \"Patient is not registered\");\r\n    reportIndex = reportIndex + 1;\r\n    patients[_addr].reports.push(\r\n      Report(\r\n        reportIndex,\r\n        patients[_addr].firstName,\r\n        patients[_addr].lastName,\r\n        _incidentDate,\r\n        _incidentDescription,\r\n        _incidentCategory,\r\n        _careSetting,\r\n        _medicationTaken,\r\n        _medicalCompanyInvolved,\r\n        _ipfsHash\r\n      )\r\n    );\r\n  }\r\n\r\n  function getPatientReports(address _addr)\r\n    public\r\n    view\r\n    returns (Report[] memory _reports)\r\n  {\r\n    require(isPatient[_addr], \"Patient is not registered\");\r\n    require(\r\n      patients[_addr].reports.length > 0,\r\n      \"Patient does not have any reports\"\r\n    );\r\n    return (patients[_addr].reports);\r\n  }\r\n}\r\n",
  "sourcePath": "C:\\Users\\Phillip\\Documents\\GitHub\\blockchain-in-phr\\contracts\\Contract.sol",
  "compiler": {
    "name": "solc",
    "version": "0.8.11+commit.d7f03943.Emscripten.clang"
  },
  "schemaVersion": "3.4.4",
  "updatedAt": "2022-11-20T06:06:26.898Z",
  "devdoc": {
    "kind": "dev",
    "methods": {},
    "version": 1
  },
  "userdoc": {
    "kind": "user",
    "methods": {},
    "version": 1
  }
}