{
  "contractName": "Government",
  "abi": [
    {
      "inputs": [
        {
          "internalType": "uint256",
          "name": "",
          "type": "uint256"
        }
      ],
      "name": "governmentList",
      "outputs": [
        {
          "internalType": "address",
          "name": "",
          "type": "address"
        }
      ],
      "stateMutability": "view",
      "type": "function"
    },
    {
      "inputs": [],
      "name": "governmentListIndex",
      "outputs": [
        {
          "internalType": "uint256",
          "name": "",
          "type": "uint256"
        }
      ],
      "stateMutability": "view",
      "type": "function"
    },
    {
      "inputs": [
        {
          "internalType": "string",
          "name": "_name",
          "type": "string"
        },
        {
          "internalType": "string",
          "name": "_country",
          "type": "string"
        },
        {
          "internalType": "string",
          "name": "_phone",
          "type": "string"
        },
        {
          "internalType": "string",
          "name": "_email",
          "type": "string"
        },
        {
          "internalType": "string",
          "name": "_locationAddress",
          "type": "string"
        },
        {
          "internalType": "address",
          "name": "_addr",
          "type": "address"
        }
      ],
      "name": "addGovernment",
      "outputs": [],
      "stateMutability": "nonpayable",
      "type": "function"
    },
    {
      "inputs": [
        {
          "internalType": "uint256",
          "name": "_id",
          "type": "uint256"
        }
      ],
      "name": "getGovernmentById",
      "outputs": [
        {
          "internalType": "uint256",
          "name": "id",
          "type": "uint256"
        },
        {
          "internalType": "string",
          "name": "name",
          "type": "string"
        },
        {
          "internalType": "string",
          "name": "country",
          "type": "string"
        },
        {
          "internalType": "string",
          "name": "phone",
          "type": "string"
        },
        {
          "internalType": "string",
          "name": "email",
          "type": "string"
        },
        {
          "internalType": "string",
          "name": "locationAddress",
          "type": "string"
        },
        {
          "internalType": "address",
          "name": "addr",
          "type": "address"
        },
        {
          "internalType": "bool",
          "name": "isApproved",
          "type": "bool"
        }
      ],
      "stateMutability": "view",
      "type": "function"
    },
    {
      "inputs": [
        {
          "internalType": "address",
          "name": "_address",
          "type": "address"
        }
      ],
      "name": "getGovernmentProfile",
      "outputs": [
        {
          "internalType": "uint256",
          "name": "id",
          "type": "uint256"
        },
        {
          "internalType": "string",
          "name": "name",
          "type": "string"
        },
        {
          "internalType": "string",
          "name": "country",
          "type": "string"
        },
        {
          "internalType": "string",
          "name": "phone",
          "type": "string"
        },
        {
          "internalType": "string",
          "name": "email",
          "type": "string"
        },
        {
          "internalType": "string",
          "name": "locationAddress",
          "type": "string"
        },
        {
          "internalType": "address",
          "name": "addr",
          "type": "address"
        },
        {
          "internalType": "bool",
          "name": "isApproved",
          "type": "bool"
        }
      ],
      "stateMutability": "view",
      "type": "function"
    },
    {
      "inputs": [
        {
          "internalType": "address",
          "name": "_addr",
          "type": "address"
        },
        {
          "internalType": "string",
          "name": "_actionPlanCreationDate",
          "type": "string"
        },
        {
          "internalType": "string",
          "name": "_actionPlanDescription",
          "type": "string"
        },
        {
          "internalType": "string",
          "name": "_clinicalOutcome",
          "type": "string"
        },
        {
          "internalType": "string",
          "name": "_contributingFactors",
          "type": "string"
        },
        {
          "internalType": "string",
          "name": "_suspectedMedication",
          "type": "string"
        },
        {
          "internalType": "string",
          "name": "_actionToTake",
          "type": "string"
        },
        {
          "internalType": "string",
          "name": "_medicalCompanyInvolved",
          "type": "string"
        },
        {
          "internalType": "string",
          "name": "_ipfsHash",
          "type": "string"
        }
      ],
      "name": "addGovernmentActionPlan",
      "outputs": [],
      "stateMutability": "nonpayable",
      "type": "function"
    },
    {
      "inputs": [
        {
          "internalType": "address",
          "name": "_addr",
          "type": "address"
        }
      ],
      "name": "getGovernmentActionPlans",
      "outputs": [
        {
          "components": [
            {
              "internalType": "string",
              "name": "actionPlanCreationDate",
              "type": "string"
            },
            {
              "internalType": "string",
              "name": "actionPlanDescription",
              "type": "string"
            },
            {
              "internalType": "string",
              "name": "clinicalOutcome",
              "type": "string"
            },
            {
              "internalType": "string",
              "name": "contributingFactors",
              "type": "string"
            },
            {
              "internalType": "string",
              "name": "suspectedMedication",
              "type": "string"
            },
            {
              "internalType": "string",
              "name": "actionToTake",
              "type": "string"
            },
            {
              "internalType": "string",
              "name": "medicalCompanyInvolved",
              "type": "string"
            },
            {
              "internalType": "string",
              "name": "ipfsHash",
              "type": "string"
            }
          ],
          "internalType": "struct Government.ActionPlan[]",
          "name": "_actionPlans",
          "type": "tuple[]"
        }
      ],
      "stateMutability": "view",
      "type": "function"
    }
  ],
  "bytecode": "0x608060405234801561001057600080fd5b50613016806100206000396000f3fe608060405234801561001057600080fd5b506004361061007d5760003560e01c806347f437441161005b57806347f43744146100f15780634e99b2bc146101285780639b9831ed14610158578063ea1cb853146101885761007d565b80631361080b1461008257806315414aee1461009e5780633242948e146100ba575b600080fd5b61009c600480360381019061009791906124fa565b6101a6565b005b6100b860048036038101906100b391906126a4565b6103cc565b005b6100d460048036038101906100cf91906127bd565b610808565b6040516100e89897969594939291906128b5565b60405180910390f35b61010b60048036038101906101069190612982565b61117d565b60405161011f9897969594939291906128b5565b60405180910390f35b610142600480360381019061013d91906127bd565b611c14565b60405161014f9190612b9c565b60405180910390f35b610172600480360381019061016d9190612982565b61225a565b60405161017f9190612bbe565b60405180910390f35b610190612299565b60405161019d9190612bd9565b60405180910390f35b600160008a73ffffffffffffffffffffffffffffffffffffffff1673ffffffffffffffffffffffffffffffffffffffff16815260200190815260200160002060009054906101000a900460ff16610232576040517f08c379a000000000000000000000000000000000000000000000000000000000815260040161022990612c40565b60405180910390fd5b600260008a73ffffffffffffffffffffffffffffffffffffffff1673ffffffffffffffffffffffffffffffffffffffff1681526020019081526020016000206006016040518061010001604052808a815260200189815260200188815260200187815260200186815260200185815260200184815260200183815250908060018154018082558091505060019003906000526020600020906008020160009091909190915060008201518160000190805190602001906102f392919061229f565b50602082015181600101908051906020019061031092919061229f565b50604082015181600201908051906020019061032d92919061229f565b50606082015181600301908051906020019061034a92919061229f565b50608082015181600401908051906020019061036792919061229f565b5060a082015181600501908051906020019061038492919061229f565b5060c08201518160060190805190602001906103a192919061229f565b5060e08201518160070190805190602001906103be92919061229f565b505050505050505050505050565b600160008273ffffffffffffffffffffffffffffffffffffffff1673ffffffffffffffffffffffffffffffffffffffff16815260200190815260200160002060009054906101000a900460ff1615610459576040517f08c379a000000000000000000000000000000000000000000000000000000000815260040161045090612cac565b60405180910390fd5b6003819080600181540180825580915050600190039060005260206000200160009091909190916101000a81548173ffffffffffffffffffffffffffffffffffffffff021916908373ffffffffffffffffffffffffffffffffffffffff16021790555060016000546104cb9190612cfb565b60008190555060018060008373ffffffffffffffffffffffffffffffffffffffff1673ffffffffffffffffffffffffffffffffffffffff16815260200190815260200160002060006101000a81548160ff021916908315150217905550600054600260008373ffffffffffffffffffffffffffffffffffffffff1673ffffffffffffffffffffffffffffffffffffffff1681526020019081526020016000206000018190555085600260008373ffffffffffffffffffffffffffffffffffffffff1673ffffffffffffffffffffffffffffffffffffffff16815260200190815260200160002060010190805190602001906105c792919061229f565b5084600260008373ffffffffffffffffffffffffffffffffffffffff1673ffffffffffffffffffffffffffffffffffffffff168152602001908152602001600020600201908051906020019061061e92919061229f565b5083600260008373ffffffffffffffffffffffffffffffffffffffff1673ffffffffffffffffffffffffffffffffffffffff168152602001908152602001600020600301908051906020019061067592919061229f565b5082600260008373ffffffffffffffffffffffffffffffffffffffff1673ffffffffffffffffffffffffffffffffffffffff16815260200190815260200160002060040190805190602001906106cc92919061229f565b5081600260008373ffffffffffffffffffffffffffffffffffffffff1673ffffffffffffffffffffffffffffffffffffffff168152602001908152602001600020600501908051906020019061072392919061229f565b5080600260008373ffffffffffffffffffffffffffffffffffffffff1673ffffffffffffffffffffffffffffffffffffffff16815260200190815260200160002060070160006101000a81548173ffffffffffffffffffffffffffffffffffffffff021916908373ffffffffffffffffffffffffffffffffffffffff1602179055506001600260008373ffffffffffffffffffffffffffffffffffffffff1673ffffffffffffffffffffffffffffffffffffffff16815260200190815260200160002060070160146101000a81548160ff021916908315150217905550505050505050565b60006060806060806060600080600260008a73ffffffffffffffffffffffffffffffffffffffff1673ffffffffffffffffffffffffffffffffffffffff16815260200190815260200160002060070160149054906101000a900460ff166108a4576040517f08c379a000000000000000000000000000000000000000000000000000000000815260040161089b90612dc3565b60405180910390fd5b6000600260008b73ffffffffffffffffffffffffffffffffffffffff1673ffffffffffffffffffffffffffffffffffffffff168152602001908152602001600020604051806101200160405290816000820154815260200160018201805461090b90612e12565b80601f016020809104026020016040519081016040528092919081815260200182805461093790612e12565b80156109845780601f1061095957610100808354040283529160200191610984565b820191906000526020600020905b81548152906001019060200180831161096757829003601f168201915b5050505050815260200160028201805461099d90612e12565b80601f01602080910402602001604051908101604052809291908181526020018280546109c990612e12565b8015610a165780601f106109eb57610100808354040283529160200191610a16565b820191906000526020600020905b8154815290600101906020018083116109f957829003601f168201915b50505050508152602001600382018054610a2f90612e12565b80601f0160208091040260200160405190810160405280929190818152602001828054610a5b90612e12565b8015610aa85780601f10610a7d57610100808354040283529160200191610aa8565b820191906000526020600020905b815481529060010190602001808311610a8b57829003601f168201915b50505050508152602001600482018054610ac190612e12565b80601f0160208091040260200160405190810160405280929190818152602001828054610aed90612e12565b8015610b3a5780601f10610b0f57610100808354040283529160200191610b3a565b820191906000526020600020905b815481529060010190602001808311610b1d57829003601f168201915b50505050508152602001600582018054610b5390612e12565b80601f0160208091040260200160405190810160405280929190818152602001828054610b7f90612e12565b8015610bcc5780601f10610ba157610100808354040283529160200191610bcc565b820191906000526020600020905b815481529060010190602001808311610baf57829003601f168201915b5050505050815260200160068201805480602002602001604051908101604052809291908181526020016000905b828210156110bd578382906000526020600020906008020160405180610100016040529081600082018054610c2e90612e12565b80601f0160208091040260200160405190810160405280929190818152602001828054610c5a90612e12565b8015610ca75780601f10610c7c57610100808354040283529160200191610ca7565b820191906000526020600020905b815481529060010190602001808311610c8a57829003601f168201915b50505050508152602001600182018054610cc090612e12565b80601f0160208091040260200160405190810160405280929190818152602001828054610cec90612e12565b8015610d395780601f10610d0e57610100808354040283529160200191610d39565b820191906000526020600020905b815481529060010190602001808311610d1c57829003601f168201915b50505050508152602001600282018054610d5290612e12565b80601f0160208091040260200160405190810160405280929190818152602001828054610d7e90612e12565b8015610dcb5780601f10610da057610100808354040283529160200191610dcb565b820191906000526020600020905b815481529060010190602001808311610dae57829003601f168201915b50505050508152602001600382018054610de490612e12565b80601f0160208091040260200160405190810160405280929190818152602001828054610e1090612e12565b8015610e5d5780601f10610e3257610100808354040283529160200191610e5d565b820191906000526020600020905b815481529060010190602001808311610e4057829003601f168201915b50505050508152602001600482018054610e7690612e12565b80601f0160208091040260200160405190810160405280929190818152602001828054610ea290612e12565b8015610eef5780601f10610ec457610100808354040283529160200191610eef565b820191906000526020600020905b815481529060010190602001808311610ed257829003601f168201915b50505050508152602001600582018054610f0890612e12565b80601f0160208091040260200160405190810160405280929190818152602001828054610f3490612e12565b8015610f815780601f10610f5657610100808354040283529160200191610f81565b820191906000526020600020905b815481529060010190602001808311610f6457829003601f168201915b50505050508152602001600682018054610f9a90612e12565b80601f0160208091040260200160405190810160405280929190818152602001828054610fc690612e12565b80156110135780601f10610fe857610100808354040283529160200191611013565b820191906000526020600020905b815481529060010190602001808311610ff657829003601f168201915b5050505050815260200160078201805461102c90612e12565b80601f016020809104026020016040519081016040528092919081815260200182805461105890612e12565b80156110a55780601f1061107a576101008083540402835291602001916110a5565b820191906000526020600020905b81548152906001019060200180831161108857829003601f168201915b50505050508152505081526020019060010190610bfa565b5050505081526020016007820160009054906101000a900473ffffffffffffffffffffffffffffffffffffffff1673ffffffffffffffffffffffffffffffffffffffff1673ffffffffffffffffffffffffffffffffffffffff1681526020016007820160149054906101000a900460ff1615151515815250509050806000015181602001518260400151836060015184608001518560a001518660e001518761010001519850985098509850985098509850985050919395975091939597565b6000606080606080606060008060005b60038054905081101561123a578960026000600384815481106111b3576111b2612e44565b5b9060005260206000200160009054906101000a900473ffffffffffffffffffffffffffffffffffffffff1673ffffffffffffffffffffffffffffffffffffffff1673ffffffffffffffffffffffffffffffffffffffff1681526020019081526020016000206000015414156112275761123a565b808061123290612e73565b91505061118d565b89600260006003848154811061125357611252612e44565b5b9060005260206000200160009054906101000a900473ffffffffffffffffffffffffffffffffffffffff1673ffffffffffffffffffffffffffffffffffffffff1673ffffffffffffffffffffffffffffffffffffffff16815260200190815260200160002060000154146112fc576040517f08c379a00000000000000000000000000000000000000000000000000000000081526004016112f390612f2e565b60405180910390fd5b6000600260006003848154811061131657611315612e44565b5b9060005260206000200160009054906101000a900473ffffffffffffffffffffffffffffffffffffffff1673ffffffffffffffffffffffffffffffffffffffff1673ffffffffffffffffffffffffffffffffffffffff16815260200190815260200160002060405180610120016040529081600082015481526020016001820180546113a190612e12565b80601f01602080910402602001604051908101604052809291908181526020018280546113cd90612e12565b801561141a5780601f106113ef5761010080835404028352916020019161141a565b820191906000526020600020905b8154815290600101906020018083116113fd57829003601f168201915b5050505050815260200160028201805461143390612e12565b80601f016020809104026020016040519081016040528092919081815260200182805461145f90612e12565b80156114ac5780601f10611481576101008083540402835291602001916114ac565b820191906000526020600020905b81548152906001019060200180831161148f57829003601f168201915b505050505081526020016003820180546114c590612e12565b80601f01602080910402602001604051908101604052809291908181526020018280546114f190612e12565b801561153e5780601f106115135761010080835404028352916020019161153e565b820191906000526020600020905b81548152906001019060200180831161152157829003601f168201915b5050505050815260200160048201805461155790612e12565b80601f016020809104026020016040519081016040528092919081815260200182805461158390612e12565b80156115d05780601f106115a5576101008083540402835291602001916115d0565b820191906000526020600020905b8154815290600101906020018083116115b357829003601f168201915b505050505081526020016005820180546115e990612e12565b80601f016020809104026020016040519081016040528092919081815260200182805461161590612e12565b80156116625780601f1061163757610100808354040283529160200191611662565b820191906000526020600020905b81548152906001019060200180831161164557829003601f168201915b5050505050815260200160068201805480602002602001604051908101604052809291908181526020016000905b82821015611b535783829060005260206000209060080201604051806101000160405290816000820180546116c490612e12565b80601f01602080910402602001604051908101604052809291908181526020018280546116f090612e12565b801561173d5780601f106117125761010080835404028352916020019161173d565b820191906000526020600020905b81548152906001019060200180831161172057829003601f168201915b5050505050815260200160018201805461175690612e12565b80601f016020809104026020016040519081016040528092919081815260200182805461178290612e12565b80156117cf5780601f106117a4576101008083540402835291602001916117cf565b820191906000526020600020905b8154815290600101906020018083116117b257829003601f168201915b505050505081526020016002820180546117e890612e12565b80601f016020809104026020016040519081016040528092919081815260200182805461181490612e12565b80156118615780601f1061183657610100808354040283529160200191611861565b820191906000526020600020905b81548152906001019060200180831161184457829003601f168201915b5050505050815260200160038201805461187a90612e12565b80601f01602080910402602001604051908101604052809291908181526020018280546118a690612e12565b80156118f35780601f106118c8576101008083540402835291602001916118f3565b820191906000526020600020905b8154815290600101906020018083116118d657829003601f168201915b5050505050815260200160048201805461190c90612e12565b80601f016020809104026020016040519081016040528092919081815260200182805461193890612e12565b80156119855780601f1061195a57610100808354040283529160200191611985565b820191906000526020600020905b81548152906001019060200180831161196857829003601f168201915b5050505050815260200160058201805461199e90612e12565b80601f01602080910402602001604051908101604052809291908181526020018280546119ca90612e12565b8015611a175780601f106119ec57610100808354040283529160200191611a17565b820191906000526020600020905b8154815290600101906020018083116119fa57829003601f168201915b50505050508152602001600682018054611a3090612e12565b80601f0160208091040260200160405190810160405280929190818152602001828054611a5c90612e12565b8015611aa95780601f10611a7e57610100808354040283529160200191611aa9565b820191906000526020600020905b815481529060010190602001808311611a8c57829003601f168201915b50505050508152602001600782018054611ac290612e12565b80601f0160208091040260200160405190810160405280929190818152602001828054611aee90612e12565b8015611b3b5780601f10611b1057610100808354040283529160200191611b3b565b820191906000526020600020905b815481529060010190602001808311611b1e57829003601f168201915b50505050508152505081526020019060010190611690565b5050505081526020016007820160009054906101000a900473ffffffffffffffffffffffffffffffffffffffff1673ffffffffffffffffffffffffffffffffffffffff1673ffffffffffffffffffffffffffffffffffffffff1681526020016007820160149054906101000a900460ff1615151515815250509050806000015181602001518260400151836060015184608001518560a001518660e00151876101000151995099509950995099509950995099505050919395975091939597565b6060600160008373ffffffffffffffffffffffffffffffffffffffff1673ffffffffffffffffffffffffffffffffffffffff16815260200190815260200160002060009054906101000a900460ff16611ca2576040517f08c379a0000000000000000000000000000000000000000000000000000000008152600401611c9990612c40565b60405180910390fd5b6000600260008473ffffffffffffffffffffffffffffffffffffffff1673ffffffffffffffffffffffffffffffffffffffff1681526020019081526020016000206006018054905011611d2a576040517f08c379a0000000000000000000000000000000000000000000000000000000008152600401611d2190612fc0565b60405180910390fd5b600260008373ffffffffffffffffffffffffffffffffffffffff1673ffffffffffffffffffffffffffffffffffffffff168152602001908152602001600020600601805480602002602001604051908101604052809291908181526020016000905b8282101561224f578382906000526020600020906008020160405180610100016040529081600082018054611dc090612e12565b80601f0160208091040260200160405190810160405280929190818152602001828054611dec90612e12565b8015611e395780601f10611e0e57610100808354040283529160200191611e39565b820191906000526020600020905b815481529060010190602001808311611e1c57829003601f168201915b50505050508152602001600182018054611e5290612e12565b80601f0160208091040260200160405190810160405280929190818152602001828054611e7e90612e12565b8015611ecb5780601f10611ea057610100808354040283529160200191611ecb565b820191906000526020600020905b815481529060010190602001808311611eae57829003601f168201915b50505050508152602001600282018054611ee490612e12565b80601f0160208091040260200160405190810160405280929190818152602001828054611f1090612e12565b8015611f5d5780601f10611f3257610100808354040283529160200191611f5d565b820191906000526020600020905b815481529060010190602001808311611f4057829003601f168201915b50505050508152602001600382018054611f7690612e12565b80601f0160208091040260200160405190810160405280929190818152602001828054611fa290612e12565b8015611fef5780601f10611fc457610100808354040283529160200191611fef565b820191906000526020600020905b815481529060010190602001808311611fd257829003601f168201915b5050505050815260200160048201805461200890612e12565b80601f016020809104026020016040519081016040528092919081815260200182805461203490612e12565b80156120815780601f1061205657610100808354040283529160200191612081565b820191906000526020600020905b81548152906001019060200180831161206457829003601f168201915b5050505050815260200160058201805461209a90612e12565b80601f01602080910402602001604051908101604052809291908181526020018280546120c690612e12565b80156121135780601f106120e857610100808354040283529160200191612113565b820191906000526020600020905b8154815290600101906020018083116120f657829003601f168201915b5050505050815260200160068201805461212c90612e12565b80601f016020809104026020016040519081016040528092919081815260200182805461215890612e12565b80156121a55780601f1061217a576101008083540402835291602001916121a5565b820191906000526020600020905b81548152906001019060200180831161218857829003601f168201915b505050505081526020016007820180546121be90612e12565b80601f01602080910402602001604051908101604052809291908181526020018280546121ea90612e12565b80156122375780601f1061220c57610100808354040283529160200191612237565b820191906000526020600020905b81548152906001019060200180831161221a57829003601f168201915b50505050508152505081526020019060010190611d8c565b505050509050919050565b6003818154811061226a57600080fd5b906000526020600020016000915054906101000a900473ffffffffffffffffffffffffffffffffffffffff1681565b60005481565b8280546122ab90612e12565b90600052602060002090601f0160209004810192826122cd5760008555612314565b82601f106122e657805160ff1916838001178555612314565b82800160010185558215612314579182015b828111156123135782518255916020019190600101906122f8565b5b5090506123219190612325565b5090565b5b8082111561233e576000816000905550600101612326565b5090565b6000604051905090565b600080fd5b600080fd5b600073ffffffffffffffffffffffffffffffffffffffff82169050919050565b600061238182612356565b9050919050565b61239181612376565b811461239c57600080fd5b50565b6000813590506123ae81612388565b92915050565b600080fd5b600080fd5b6000601f19601f8301169050919050565b7f4e487b7100000000000000000000000000000000000000000000000000000000600052604160045260246000fd5b612407826123be565b810181811067ffffffffffffffff82111715612426576124256123cf565b5b80604052505050565b6000612439612342565b905061244582826123fe565b919050565b600067ffffffffffffffff821115612465576124646123cf565b5b61246e826123be565b9050602081019050919050565b82818337600083830152505050565b600061249d6124988461244a565b61242f565b9050828152602081018484840111156124b9576124b86123b9565b5b6124c484828561247b565b509392505050565b600082601f8301126124e1576124e06123b4565b5b81356124f184826020860161248a565b91505092915050565b60008060008060008060008060006101208a8c03121561251d5761251c61234c565b5b600061252b8c828d0161239f565b99505060208a013567ffffffffffffffff81111561254c5761254b612351565b5b6125588c828d016124cc565b98505060408a013567ffffffffffffffff81111561257957612578612351565b5b6125858c828d016124cc565b97505060608a013567ffffffffffffffff8111156125a6576125a5612351565b5b6125b28c828d016124cc565b96505060808a013567ffffffffffffffff8111156125d3576125d2612351565b5b6125df8c828d016124cc565b95505060a08a013567ffffffffffffffff811115612600576125ff612351565b5b61260c8c828d016124cc565b94505060c08a013567ffffffffffffffff81111561262d5761262c612351565b5b6126398c828d016124cc565b93505060e08a013567ffffffffffffffff81111561265a57612659612351565b5b6126668c828d016124cc565b9250506101008a013567ffffffffffffffff81111561268857612687612351565b5b6126948c828d016124cc565b9150509295985092959850929598565b60008060008060008060c087890312156126c1576126c061234c565b5b600087013567ffffffffffffffff8111156126df576126de612351565b5b6126eb89828a016124cc565b965050602087013567ffffffffffffffff81111561270c5761270b612351565b5b61271889828a016124cc565b955050604087013567ffffffffffffffff81111561273957612738612351565b5b61274589828a016124cc565b945050606087013567ffffffffffffffff81111561276657612765612351565b5b61277289828a016124cc565b935050608087013567ffffffffffffffff81111561279357612792612351565b5b61279f89828a016124cc565b92505060a06127b089828a0161239f565b9150509295509295509295565b6000602082840312156127d3576127d261234c565b5b60006127e18482850161239f565b91505092915050565b6000819050919050565b6127fd816127ea565b82525050565b600081519050919050565b600082825260208201905092915050565b60005b8381101561283d578082015181840152602081019050612822565b8381111561284c576000848401525b50505050565b600061285d82612803565b612867818561280e565b935061287781856020860161281f565b612880816123be565b840191505092915050565b61289481612376565b82525050565b60008115159050919050565b6128af8161289a565b82525050565b6000610100820190506128cb600083018b6127f4565b81810360208301526128dd818a612852565b905081810360408301526128f18189612852565b905081810360608301526129058188612852565b905081810360808301526129198187612852565b905081810360a083015261292d8186612852565b905061293c60c083018561288b565b61294960e08301846128a6565b9998505050505050505050565b61295f816127ea565b811461296a57600080fd5b50565b60008135905061297c81612956565b92915050565b6000602082840312156129985761299761234c565b5b60006129a68482850161296d565b91505092915050565b600081519050919050565b600082825260208201905092915050565b6000819050602082019050919050565b600082825260208201905092915050565b60006129f782612803565b612a0181856129db565b9350612a1181856020860161281f565b612a1a816123be565b840191505092915050565b6000610100830160008301518482036000860152612a4382826129ec565b91505060208301518482036020860152612a5d82826129ec565b91505060408301518482036040860152612a7782826129ec565b91505060608301518482036060860152612a9182826129ec565b91505060808301518482036080860152612aab82826129ec565b91505060a083015184820360a0860152612ac582826129ec565b91505060c083015184820360c0860152612adf82826129ec565b91505060e083015184820360e0860152612af982826129ec565b9150508091505092915050565b6000612b128383612a25565b905092915050565b6000602082019050919050565b6000612b32826129af565b612b3c81856129ba565b935083602082028501612b4e856129cb565b8060005b85811015612b8a5784840389528151612b6b8582612b06565b9450612b7683612b1a565b925060208a01995050600181019050612b52565b50829750879550505050505092915050565b60006020820190508181036000830152612bb68184612b27565b905092915050565b6000602082019050612bd3600083018461288b565b92915050565b6000602082019050612bee60008301846127f4565b92915050565b7f476f7665726e6d656e74206973206e6f74207265676973746572656400000000600082015250565b6000612c2a601c8361280e565b9150612c3582612bf4565b602082019050919050565b60006020820190508181036000830152612c5981612c1d565b9050919050565b7f476f7665726e6d656e7420697320616c72656164792072656769737465726564600082015250565b6000612c9660208361280e565b9150612ca182612c60565b602082019050919050565b60006020820190508181036000830152612cc581612c89565b9050919050565b7f4e487b7100000000000000000000000000000000000000000000000000000000600052601160045260246000fd5b6000612d06826127ea565b9150612d11836127ea565b9250827fffffffffffffffffffffffffffffffffffffffffffffffffffffffffffffffff03821115612d4657612d45612ccc565b5b828201905092915050565b7f476f7665726e6d656e74206973206e6f7420617070726f766564206f7220676f60008201527f7665726e6d656e7420646f6573206e6f74206578697374000000000000000000602082015250565b6000612dad60378361280e565b9150612db882612d51565b604082019050919050565b60006020820190508181036000830152612ddc81612da0565b9050919050565b7f4e487b7100000000000000000000000000000000000000000000000000000000600052602260045260246000fd5b60006002820490506001821680612e2a57607f821691505b60208210811415612e3e57612e3d612de3565b5b50919050565b7f4e487b7100000000000000000000000000000000000000000000000000000000600052603260045260246000fd5b6000612e7e826127ea565b91507fffffffffffffffffffffffffffffffffffffffffffffffffffffffffffffffff821415612eb157612eb0612ccc565b5b600182019050919050565b7f476f7665726e6d656e7420636f756c64206e6f7420626520666f756e6420776960008201527f74682074686520676976656e2049440000000000000000000000000000000000602082015250565b6000612f18602f8361280e565b9150612f2382612ebc565b604082019050919050565b60006020820190508181036000830152612f4781612f0b565b9050919050565b7f476f7665726e6d656e7420646f6573206e6f74206861766520616e792061637460008201527f696f6e20706c616e730000000000000000000000000000000000000000000000602082015250565b6000612faa60298361280e565b9150612fb582612f4e565b604082019050919050565b60006020820190508181036000830152612fd981612f9d565b905091905056fea2646970667358221220a848b066d15c0067e9da891cc9c9bc8122e4784686067f48ecb95926ad28f48164736f6c634300080b0033",
  "immutableReferences": {},
  "source": "pragma solidity ^0.8.0;\r\npragma experimental ABIEncoderV2;\r\n\r\ncontract Government {\r\n  uint256 public governmentListIndex;\r\n  mapping(address => bool) isGovernment;\r\n\r\n  struct ActionPlan {\r\n    string actionPlanCreationDate;\r\n    string actionPlanDescription;\r\n    string clinicalOutcome;\r\n    string contributingFactors;\r\n    string suspectedMedication;\r\n    string actionToTake;\r\n    string medicalCompanyInvolved;\r\n    string ipfsHash;\r\n  }\r\n\r\n  struct government {\r\n    uint256 id;\r\n    string name;\r\n    string country;\r\n    string phone;\r\n    string email;\r\n    string locationAddress;\r\n    ActionPlan[] actionPlans;\r\n    address addr;\r\n    bool isApproved;\r\n  }\r\n\r\n  mapping(address => government) governments;\r\n  address[] public governmentList;\r\n\r\n  function addGovernment(\r\n    string memory _name,\r\n    string memory _country,\r\n    string memory _phone,\r\n    string memory _email,\r\n    string memory _locationAddress,\r\n    address _addr\r\n  ) public {\r\n    require(!isGovernment[_addr], \"Government is already registered\");\r\n    governmentList.push(_addr);\r\n    governmentListIndex = governmentListIndex + 1;\r\n    isGovernment[_addr] = true;\r\n    governments[_addr].id = governmentListIndex;\r\n    governments[_addr].name = _name;\r\n    governments[_addr].country = _country;\r\n    governments[_addr].phone = _phone;\r\n    governments[_addr].email = _email;\r\n    governments[_addr].locationAddress = _locationAddress;\r\n    governments[_addr].addr = _addr;\r\n    governments[_addr].isApproved = true;\r\n  }\r\n\r\n  function getGovernmentById(uint256 _id)\r\n    public\r\n    view\r\n    returns (\r\n      uint256 id,\r\n      string memory name,\r\n      string memory country,\r\n      string memory phone,\r\n      string memory email,\r\n      string memory locationAddress,\r\n      address addr,\r\n      bool isApproved\r\n    )\r\n  {\r\n    uint256 i = 0;\r\n    for (; i < governmentList.length; i++) {\r\n      if (governments[governmentList[i]].id == _id) {\r\n        break;\r\n      }\r\n    }\r\n    require(\r\n      governments[governmentList[i]].id == _id,\r\n      \"Government could not be found with the given ID\"\r\n    );\r\n    government memory matchedEntry = governments[governmentList[i]];\r\n    return (\r\n      matchedEntry.id,\r\n      matchedEntry.name,\r\n      matchedEntry.country,\r\n      matchedEntry.phone,\r\n      matchedEntry.email,\r\n      matchedEntry.locationAddress,\r\n      matchedEntry.addr,\r\n      matchedEntry.isApproved\r\n    );\r\n  }\r\n\r\n  function getGovernmentProfile(address _address)\r\n    public\r\n    view\r\n    returns (\r\n      uint256 id,\r\n      string memory name,\r\n      string memory country,\r\n      string memory phone,\r\n      string memory email,\r\n      string memory locationAddress,\r\n      address addr,\r\n      bool isApproved\r\n    )\r\n  {\r\n    require(\r\n      governments[_address].isApproved,\r\n      \"Government is not approved or government does not exist\"\r\n    );\r\n    government memory matchedEntry = governments[_address];\r\n    return (\r\n      matchedEntry.id,\r\n      matchedEntry.name,\r\n      matchedEntry.country,\r\n      matchedEntry.phone,\r\n      matchedEntry.email,\r\n      matchedEntry.locationAddress,\r\n      matchedEntry.addr,\r\n      matchedEntry.isApproved\r\n    );\r\n  }\r\n\r\n  function addGovernmentActionPlan(\r\n    address _addr,\r\n    string memory _actionPlanCreationDate,\r\n    string memory _actionPlanDescription,\r\n    string memory _clinicalOutcome,\r\n    string memory _contributingFactors,\r\n    string memory _suspectedMedication,\r\n    string memory _actionToTake,\r\n    string memory _medicalCompanyInvolved,\r\n    string memory _ipfsHash\r\n  ) public {\r\n    require(isGovernment[_addr], \"Government is not registered\");\r\n    governments[_addr].actionPlans.push(\r\n      ActionPlan(\r\n        _actionPlanCreationDate,\r\n        _actionPlanDescription,\r\n        _clinicalOutcome,\r\n        _contributingFactors,\r\n        _suspectedMedication,\r\n        _actionToTake,\r\n        _medicalCompanyInvolved,\r\n        _ipfsHash\r\n      )\r\n    );\r\n  }\r\n\r\n  function getGovernmentActionPlans(address _addr)\r\n    public\r\n    view\r\n    returns (ActionPlan[] memory _actionPlans)\r\n  {\r\n    require(isGovernment[_addr], \"Government is not registered\");\r\n    require(\r\n      governments[_addr].actionPlans.length > 0,\r\n      \"Government does not have any action plans\"\r\n    );\r\n    return (governments[_addr].actionPlans);\r\n  }\r\n}\r\n\r\ncontract MedicalCompany {\r\n  uint256 public medicalCompanyListIndex;\r\n\r\n  mapping(address => bool) isMedicalCompany;\r\n\r\n  struct medicalCompany {\r\n    uint256 id;\r\n    string companyName;\r\n    string companyType;\r\n    string phone;\r\n    string email;\r\n    string locationAddress;\r\n    address addr;\r\n    bool isApproved;\r\n  }\r\n\r\n  mapping(address => medicalCompany) medicalCompanies;\r\n  address[] public medicalCompanyList;\r\n\r\n  function addMedicalCompany(\r\n    string memory _companyName,\r\n    string memory _companyType,\r\n    string memory _phone,\r\n    string memory _email,\r\n    string memory _locationAddress,\r\n    address _addr\r\n  ) public {\r\n    require(!isMedicalCompany[_addr], \"MedicalCompany is already registered\");\r\n    medicalCompanyList.push(_addr);\r\n    medicalCompanyListIndex = medicalCompanyListIndex + 1;\r\n    isMedicalCompany[_addr] = true;\r\n    medicalCompanies[_addr] = medicalCompany(\r\n      medicalCompanyListIndex,\r\n      _companyName,\r\n      _companyType,\r\n      _phone,\r\n      _email,\r\n      _locationAddress,\r\n      _addr,\r\n      true\r\n    );\r\n  }\r\n\r\n  function getMedicalCompanyById(uint256 _id)\r\n    public\r\n    view\r\n    returns (\r\n      uint256 id,\r\n      string memory companyName,\r\n      string memory companyType,\r\n      string memory phone,\r\n      string memory email,\r\n      string memory locationAddress,\r\n      address addr,\r\n      bool isApproved\r\n    )\r\n  {\r\n    uint256 i = 0;\r\n    for (; i < medicalCompanyList.length; i++) {\r\n      if (medicalCompanies[medicalCompanyList[i]].id == _id) {\r\n        break;\r\n      }\r\n    }\r\n    require(\r\n      medicalCompanies[medicalCompanyList[i]].id == _id,\r\n      \"MedicalCompany could not be found with the given ID\"\r\n    );\r\n    medicalCompany memory matchedEntry = medicalCompanies[\r\n      medicalCompanyList[i]\r\n    ];\r\n    return (\r\n      matchedEntry.id,\r\n      matchedEntry.companyName,\r\n      matchedEntry.companyType,\r\n      matchedEntry.phone,\r\n      matchedEntry.email,\r\n      matchedEntry.locationAddress,\r\n      matchedEntry.addr,\r\n      matchedEntry.isApproved\r\n    );\r\n  }\r\n\r\n  function getMedicalCompanyProfile(address _address)\r\n    public\r\n    view\r\n    returns (\r\n      uint256 id,\r\n      string memory companyName,\r\n      string memory companyType,\r\n      string memory phone,\r\n      string memory email,\r\n      string memory locationAddress,\r\n      address addr,\r\n      bool isApproved\r\n    )\r\n  {\r\n    require(\r\n      medicalCompanies[_address].isApproved,\r\n      \"MedicalCompany is not approved or medicalCompany does not exist\"\r\n    );\r\n    medicalCompany memory matchedEntry = medicalCompanies[_address];\r\n    return (\r\n      matchedEntry.id,\r\n      matchedEntry.companyName,\r\n      matchedEntry.companyType,\r\n      matchedEntry.phone,\r\n      matchedEntry.email,\r\n      matchedEntry.locationAddress,\r\n      matchedEntry.addr,\r\n      matchedEntry.isApproved\r\n    );\r\n  }\r\n}\r\n\r\ncontract Patient {\r\n  uint256 public patientListIndex = 0;\r\n\r\n  struct Report {\r\n    string incidentDate;\r\n    string incidentDescription;\r\n    string incidentCategory;\r\n    string careSetting;\r\n    string medicationTaken;\r\n    string medicalCompanyInvolved;\r\n    string ipfsHash;\r\n  }\r\n\r\n  struct patient {\r\n    uint256 id;\r\n    string firstName;\r\n    string lastName;\r\n    string phone;\r\n    string email;\r\n    string gender;\r\n    string dateOfBirth;\r\n    string bloodType;\r\n    string homeAddress;\r\n    Report[] reports;\r\n    address addr;\r\n  }\r\n\r\n  address[] private patientList;\r\n  // mapping(address => mapping(address => bool)) isAuth;\r\n  mapping(address => patient) patients;\r\n  mapping(address => bool) isPatient;\r\n\r\n  function addPatient(\r\n    string memory _firstName,\r\n    string memory _lastName,\r\n    string memory _phone,\r\n    string memory _email,\r\n    string memory _gender,\r\n    string memory _dateOfBirth,\r\n    string memory _bloodType,\r\n    string memory _homeAddress\r\n  ) public {\r\n    require(!isPatient[msg.sender], \"Patient is already registered\");\r\n    patientList.push(msg.sender);\r\n    patientListIndex = patientListIndex + 1;\r\n    isPatient[msg.sender] = true;\r\n    patients[msg.sender].id = patientListIndex;\r\n    patients[msg.sender].firstName = _firstName;\r\n    patients[msg.sender].lastName = _lastName;\r\n    patients[msg.sender].phone = _phone;\r\n    patients[msg.sender].email = _email;\r\n    patients[msg.sender].gender = _gender;\r\n    patients[msg.sender].dateOfBirth = _dateOfBirth;\r\n    patients[msg.sender].bloodType = _bloodType;\r\n    patients[msg.sender].homeAddress = _homeAddress;\r\n    patients[msg.sender].addr = msg.sender;\r\n  }\r\n\r\n  function getPatientProfile(address _addr)\r\n    public\r\n    view\r\n    returns (\r\n      uint256 _id,\r\n      string memory _firstName,\r\n      string memory _lastName,\r\n      string memory _phone,\r\n      string memory _email,\r\n      string memory _gender,\r\n      string memory _dateOfBirth,\r\n      string memory _bloodType,\r\n      string memory _homeAddress\r\n    )\r\n  {\r\n    require(isPatient[_addr], \"Patient is not registered\");\r\n    patient memory matchedEntry = patients[_addr];\r\n    return (\r\n      matchedEntry.id,\r\n      matchedEntry.firstName,\r\n      matchedEntry.lastName,\r\n      matchedEntry.phone,\r\n      matchedEntry.email,\r\n      matchedEntry.gender,\r\n      matchedEntry.dateOfBirth,\r\n      matchedEntry.bloodType,\r\n      matchedEntry.homeAddress\r\n    );\r\n  }\r\n\r\n  function addPatientReport(\r\n    address _addr,\r\n    string memory _incidentDate,\r\n    string memory _incidentDescription,\r\n    string memory _incidentCategory,\r\n    string memory _careSetting,\r\n    string memory _medicationTaken,\r\n    string memory _medicalCompanyInvolved,\r\n    string memory _ipfsHash\r\n  ) public {\r\n    require(isPatient[_addr], \"Patient is not registered\");\r\n    patients[_addr].reports.push(\r\n      Report(\r\n        _incidentDate,\r\n        _incidentDescription,\r\n        _incidentCategory,\r\n        _careSetting,\r\n        _medicationTaken,\r\n        _medicalCompanyInvolved,\r\n        _ipfsHash\r\n      )\r\n    );\r\n  }\r\n\r\n  function getPatientReports(address _addr)\r\n    public\r\n    view\r\n    returns (Report[] memory _reports)\r\n  {\r\n    require(isPatient[_addr], \"Patient is not registered\");\r\n    require(\r\n      patients[_addr].reports.length > 0,\r\n      \"Patient does not have any reports\"\r\n    );\r\n    return (patients[_addr].reports);\r\n  }\r\n}\r\n",
  "sourcePath": "C:\\Users\\Phillip\\Documents\\GitHub\\blockchain-in-phr\\contracts\\Contract.sol",
  "compiler": {
    "name": "solc",
    "version": "0.8.11+commit.d7f03943.Emscripten.clang"
  },
  "schemaVersion": "3.4.4",
  "updatedAt": "2022-11-08T06:01:08.034Z",
  "devdoc": {
    "kind": "dev",
    "methods": {},
    "version": 1
  },
  "userdoc": {
    "kind": "user",
    "methods": {},
    "version": 1
  }
}