{
  "contractName": "Patient",
  "abi": [
    {
      "inputs": [],
      "name": "patientListIndex",
      "outputs": [
        {
          "internalType": "uint256",
          "name": "",
          "type": "uint256"
        }
      ],
      "stateMutability": "view",
      "type": "function"
    },
    {
      "inputs": [
        {
          "internalType": "string",
          "name": "_firstName",
          "type": "string"
        },
        {
          "internalType": "string",
          "name": "_lastName",
          "type": "string"
        },
        {
          "internalType": "string",
          "name": "_phone",
          "type": "string"
        },
        {
          "internalType": "string",
          "name": "_email",
          "type": "string"
        },
        {
          "internalType": "string",
          "name": "_gender",
          "type": "string"
        },
        {
          "internalType": "string",
          "name": "_dateOfBirth",
          "type": "string"
        },
        {
          "internalType": "string",
          "name": "_bloodType",
          "type": "string"
        },
        {
          "internalType": "string",
          "name": "_homeAddress",
          "type": "string"
        }
      ],
      "name": "addPatient",
      "outputs": [],
      "stateMutability": "nonpayable",
      "type": "function"
    },
    {
      "inputs": [
        {
          "internalType": "address",
          "name": "_addr",
          "type": "address"
        }
      ],
      "name": "getPatientProfile",
      "outputs": [
        {
          "internalType": "uint256",
          "name": "_id",
          "type": "uint256"
        },
        {
          "internalType": "string",
          "name": "_firstName",
          "type": "string"
        },
        {
          "internalType": "string",
          "name": "_lastName",
          "type": "string"
        },
        {
          "internalType": "string",
          "name": "_phone",
          "type": "string"
        },
        {
          "internalType": "string",
          "name": "_email",
          "type": "string"
        },
        {
          "internalType": "string",
          "name": "_gender",
          "type": "string"
        },
        {
          "internalType": "string",
          "name": "_dateOfBirth",
          "type": "string"
        },
        {
          "internalType": "string",
          "name": "_bloodType",
          "type": "string"
        },
        {
          "internalType": "string",
          "name": "_homeAddress",
          "type": "string"
        }
      ],
      "stateMutability": "view",
      "type": "function"
    },
    {
      "inputs": [
        {
          "internalType": "address",
          "name": "_addr",
          "type": "address"
        },
        {
          "internalType": "string",
          "name": "_incidentDate",
          "type": "string"
        },
        {
          "internalType": "string",
          "name": "_incidentDescription",
          "type": "string"
        },
        {
          "internalType": "string",
          "name": "_incidentCategory",
          "type": "string"
        },
        {
          "internalType": "string",
          "name": "_careSetting",
          "type": "string"
        },
        {
          "internalType": "string",
          "name": "_medicationTaken",
          "type": "string"
        },
        {
          "internalType": "string",
          "name": "_medicalCompanyInvolved",
          "type": "string"
        },
        {
          "internalType": "string",
          "name": "_ipfsHash",
          "type": "string"
        }
      ],
      "name": "addPatientReport",
      "outputs": [],
      "stateMutability": "nonpayable",
      "type": "function"
    },
    {
      "inputs": [
        {
          "internalType": "address",
          "name": "_addr",
          "type": "address"
        }
      ],
      "name": "getPatientReports",
      "outputs": [
        {
          "components": [
            {
              "internalType": "string",
              "name": "incidentDate",
              "type": "string"
            },
            {
              "internalType": "string",
              "name": "incidentDescription",
              "type": "string"
            },
            {
              "internalType": "string",
              "name": "incidentCategory",
              "type": "string"
            },
            {
              "internalType": "string",
              "name": "careSetting",
              "type": "string"
            },
            {
              "internalType": "string",
              "name": "medicationTaken",
              "type": "string"
            },
            {
              "internalType": "string",
              "name": "medicalCompanyInvolved",
              "type": "string"
            },
            {
              "internalType": "string",
              "name": "ipfsHash",
              "type": "string"
            }
          ],
          "internalType": "struct Patient.Report[]",
          "name": "_reports",
          "type": "tuple[]"
        }
      ],
      "stateMutability": "view",
      "type": "function"
    }
  ],
  "bytecode": "0x60806040526000805534801561001457600080fd5b506123d4806100246000396000f3fe608060405234801561001057600080fd5b50600436106100575760003560e01c8063461a20821461005c57806356490597146100945780637d0f98bb146100b25780639312a9ec146100ce578063e65a0691146100ea575b600080fd5b61007660048036038101906100719190611956565b61011a565b60405161008b99989796959493929190611a35565b60405180910390f35b61009c610b9e565b6040516100a99190611afa565b60405180910390f35b6100cc60048036038101906100c79190611c4a565b610ba4565b005b6100e860048036038101906100e39190611de0565b61108d565b005b61010460048036038101906100ff9190611956565b61128e565b604051610111919061212c565b60405180910390f35b6000606080606080606080606080600360008b73ffffffffffffffffffffffffffffffffffffffff1673ffffffffffffffffffffffffffffffffffffffff16815260200190815260200160002060009054906101000a900460ff166101b4576040517f08c379a00000000000000000000000000000000000000000000000000000000081526004016101ab9061219a565b60405180910390fd5b6000600260008c73ffffffffffffffffffffffffffffffffffffffff1673ffffffffffffffffffffffffffffffffffffffff168152602001908152602001600020604051806101600160405290816000820154815260200160018201805461021b906121e9565b80601f0160208091040260200160405190810160405280929190818152602001828054610247906121e9565b80156102945780601f1061026957610100808354040283529160200191610294565b820191906000526020600020905b81548152906001019060200180831161027757829003601f168201915b505050505081526020016002820180546102ad906121e9565b80601f01602080910402602001604051908101604052809291908181526020018280546102d9906121e9565b80156103265780601f106102fb57610100808354040283529160200191610326565b820191906000526020600020905b81548152906001019060200180831161030957829003601f168201915b5050505050815260200160038201805461033f906121e9565b80601f016020809104026020016040519081016040528092919081815260200182805461036b906121e9565b80156103b85780601f1061038d576101008083540402835291602001916103b8565b820191906000526020600020905b81548152906001019060200180831161039b57829003601f168201915b505050505081526020016004820180546103d1906121e9565b80601f01602080910402602001604051908101604052809291908181526020018280546103fd906121e9565b801561044a5780601f1061041f5761010080835404028352916020019161044a565b820191906000526020600020905b81548152906001019060200180831161042d57829003601f168201915b50505050508152602001600582018054610463906121e9565b80601f016020809104026020016040519081016040528092919081815260200182805461048f906121e9565b80156104dc5780601f106104b1576101008083540402835291602001916104dc565b820191906000526020600020905b8154815290600101906020018083116104bf57829003601f168201915b505050505081526020016006820180546104f5906121e9565b80601f0160208091040260200160405190810160405280929190818152602001828054610521906121e9565b801561056e5780601f106105435761010080835404028352916020019161056e565b820191906000526020600020905b81548152906001019060200180831161055157829003601f168201915b50505050508152602001600782018054610587906121e9565b80601f01602080910402602001604051908101604052809291908181526020018280546105b3906121e9565b80156106005780601f106105d557610100808354040283529160200191610600565b820191906000526020600020905b8154815290600101906020018083116105e357829003601f168201915b50505050508152602001600882018054610619906121e9565b80601f0160208091040260200160405190810160405280929190818152602001828054610645906121e9565b80156106925780601f1061066757610100808354040283529160200191610692565b820191906000526020600020905b81548152906001019060200180831161067557829003601f168201915b5050505050815260200160098201805480602002602001604051908101604052809291908181526020016000905b82821015610af057838290600052602060002090600702016040518060e00160405290816000820180546106f3906121e9565b80601f016020809104026020016040519081016040528092919081815260200182805461071f906121e9565b801561076c5780601f106107415761010080835404028352916020019161076c565b820191906000526020600020905b81548152906001019060200180831161074f57829003601f168201915b50505050508152602001600182018054610785906121e9565b80601f01602080910402602001604051908101604052809291908181526020018280546107b1906121e9565b80156107fe5780601f106107d3576101008083540402835291602001916107fe565b820191906000526020600020905b8154815290600101906020018083116107e157829003601f168201915b50505050508152602001600282018054610817906121e9565b80601f0160208091040260200160405190810160405280929190818152602001828054610843906121e9565b80156108905780601f1061086557610100808354040283529160200191610890565b820191906000526020600020905b81548152906001019060200180831161087357829003601f168201915b505050505081526020016003820180546108a9906121e9565b80601f01602080910402602001604051908101604052809291908181526020018280546108d5906121e9565b80156109225780601f106108f757610100808354040283529160200191610922565b820191906000526020600020905b81548152906001019060200180831161090557829003601f168201915b5050505050815260200160048201805461093b906121e9565b80601f0160208091040260200160405190810160405280929190818152602001828054610967906121e9565b80156109b45780601f10610989576101008083540402835291602001916109b4565b820191906000526020600020905b81548152906001019060200180831161099757829003601f168201915b505050505081526020016005820180546109cd906121e9565b80601f01602080910402602001604051908101604052809291908181526020018280546109f9906121e9565b8015610a465780601f10610a1b57610100808354040283529160200191610a46565b820191906000526020600020905b815481529060010190602001808311610a2957829003601f168201915b50505050508152602001600682018054610a5f906121e9565b80601f0160208091040260200160405190810160405280929190818152602001828054610a8b906121e9565b8015610ad85780601f10610aad57610100808354040283529160200191610ad8565b820191906000526020600020905b815481529060010190602001808311610abb57829003601f168201915b505050505081525050815260200190600101906106c0565b505050508152602001600a820160009054906101000a900473ffffffffffffffffffffffffffffffffffffffff1673ffffffffffffffffffffffffffffffffffffffff1673ffffffffffffffffffffffffffffffffffffffff16815250509050806000015181602001518260400151836060015184608001518560a001518660c001518760e00151886101000151995099509950995099509950995099509950509193959799909294969850565b60005481565b600360003373ffffffffffffffffffffffffffffffffffffffff1673ffffffffffffffffffffffffffffffffffffffff16815260200190815260200160002060009054906101000a900460ff1615610c31576040517f08c379a0000000000000000000000000000000000000000000000000000000008152600401610c2890612267565b60405180910390fd5b6001339080600181540180825580915050600190039060005260206000200160009091909190916101000a81548173ffffffffffffffffffffffffffffffffffffffff021916908373ffffffffffffffffffffffffffffffffffffffff1602179055506001600054610ca391906122b6565b6000819055506001600360003373ffffffffffffffffffffffffffffffffffffffff1673ffffffffffffffffffffffffffffffffffffffff16815260200190815260200160002060006101000a81548160ff021916908315150217905550600054600260003373ffffffffffffffffffffffffffffffffffffffff1673ffffffffffffffffffffffffffffffffffffffff1681526020019081526020016000206000018190555087600260003373ffffffffffffffffffffffffffffffffffffffff1673ffffffffffffffffffffffffffffffffffffffff1681526020019081526020016000206001019080519060200190610da0929190611841565b5086600260003373ffffffffffffffffffffffffffffffffffffffff1673ffffffffffffffffffffffffffffffffffffffff1681526020019081526020016000206002019080519060200190610df7929190611841565b5085600260003373ffffffffffffffffffffffffffffffffffffffff1673ffffffffffffffffffffffffffffffffffffffff1681526020019081526020016000206003019080519060200190610e4e929190611841565b5084600260003373ffffffffffffffffffffffffffffffffffffffff1673ffffffffffffffffffffffffffffffffffffffff1681526020019081526020016000206004019080519060200190610ea5929190611841565b5083600260003373ffffffffffffffffffffffffffffffffffffffff1673ffffffffffffffffffffffffffffffffffffffff1681526020019081526020016000206005019080519060200190610efc929190611841565b5082600260003373ffffffffffffffffffffffffffffffffffffffff1673ffffffffffffffffffffffffffffffffffffffff1681526020019081526020016000206006019080519060200190610f53929190611841565b5081600260003373ffffffffffffffffffffffffffffffffffffffff1673ffffffffffffffffffffffffffffffffffffffff1681526020019081526020016000206007019080519060200190610faa929190611841565b5080600260003373ffffffffffffffffffffffffffffffffffffffff1673ffffffffffffffffffffffffffffffffffffffff1681526020019081526020016000206008019080519060200190611001929190611841565b5033600260003373ffffffffffffffffffffffffffffffffffffffff1673ffffffffffffffffffffffffffffffffffffffff168152602001908152602001600020600a0160006101000a81548173ffffffffffffffffffffffffffffffffffffffff021916908373ffffffffffffffffffffffffffffffffffffffff1602179055505050505050505050565b600360008973ffffffffffffffffffffffffffffffffffffffff1673ffffffffffffffffffffffffffffffffffffffff16815260200190815260200160002060009054906101000a900460ff16611119576040517f08c379a00000000000000000000000000000000000000000000000000000000081526004016111109061219a565b60405180910390fd5b600260008973ffffffffffffffffffffffffffffffffffffffff1673ffffffffffffffffffffffffffffffffffffffff1681526020019081526020016000206009016040518060e0016040528089815260200188815260200187815260200186815260200185815260200184815260200183815250908060018154018082558091505060019003906000526020600020906007020160009091909190915060008201518160000190805190602001906111d3929190611841565b5060208201518160010190805190602001906111f0929190611841565b50604082015181600201908051906020019061120d929190611841565b50606082015181600301908051906020019061122a929190611841565b506080820151816004019080519060200190611247929190611841565b5060a0820151816005019080519060200190611264929190611841565b5060c0820151816006019080519060200190611281929190611841565b5050505050505050505050565b6060600360008373ffffffffffffffffffffffffffffffffffffffff1673ffffffffffffffffffffffffffffffffffffffff16815260200190815260200160002060009054906101000a900460ff1661131c576040517f08c379a00000000000000000000000000000000000000000000000000000000081526004016113139061219a565b60405180910390fd5b6000600260008473ffffffffffffffffffffffffffffffffffffffff1673ffffffffffffffffffffffffffffffffffffffff16815260200190815260200160002060090180549050116113a4576040517f08c379a000000000000000000000000000000000000000000000000000000000815260040161139b9061237e565b60405180910390fd5b600260008373ffffffffffffffffffffffffffffffffffffffff1673ffffffffffffffffffffffffffffffffffffffff168152602001908152602001600020600901805480602002602001604051908101604052809291908181526020016000905b8282101561183657838290600052602060002090600702016040518060e0016040529081600082018054611439906121e9565b80601f0160208091040260200160405190810160405280929190818152602001828054611465906121e9565b80156114b25780601f10611487576101008083540402835291602001916114b2565b820191906000526020600020905b81548152906001019060200180831161149557829003601f168201915b505050505081526020016001820180546114cb906121e9565b80601f01602080910402602001604051908101604052809291908181526020018280546114f7906121e9565b80156115445780601f1061151957610100808354040283529160200191611544565b820191906000526020600020905b81548152906001019060200180831161152757829003601f168201915b5050505050815260200160028201805461155d906121e9565b80601f0160208091040260200160405190810160405280929190818152602001828054611589906121e9565b80156115d65780601f106115ab576101008083540402835291602001916115d6565b820191906000526020600020905b8154815290600101906020018083116115b957829003601f168201915b505050505081526020016003820180546115ef906121e9565b80601f016020809104026020016040519081016040528092919081815260200182805461161b906121e9565b80156116685780601f1061163d57610100808354040283529160200191611668565b820191906000526020600020905b81548152906001019060200180831161164b57829003601f168201915b50505050508152602001600482018054611681906121e9565b80601f01602080910402602001604051908101604052809291908181526020018280546116ad906121e9565b80156116fa5780601f106116cf576101008083540402835291602001916116fa565b820191906000526020600020905b8154815290600101906020018083116116dd57829003601f168201915b50505050508152602001600582018054611713906121e9565b80601f016020809104026020016040519081016040528092919081815260200182805461173f906121e9565b801561178c5780601f106117615761010080835404028352916020019161178c565b820191906000526020600020905b81548152906001019060200180831161176f57829003601f168201915b505050505081526020016006820180546117a5906121e9565b80601f01602080910402602001604051908101604052809291908181526020018280546117d1906121e9565b801561181e5780601f106117f35761010080835404028352916020019161181e565b820191906000526020600020905b81548152906001019060200180831161180157829003601f168201915b50505050508152505081526020019060010190611406565b505050509050919050565b82805461184d906121e9565b90600052602060002090601f01602090048101928261186f57600085556118b6565b82601f1061188857805160ff19168380011785556118b6565b828001600101855582156118b6579182015b828111156118b557825182559160200191906001019061189a565b5b5090506118c391906118c7565b5090565b5b808211156118e05760008160009055506001016118c8565b5090565b6000604051905090565b600080fd5b600080fd5b600073ffffffffffffffffffffffffffffffffffffffff82169050919050565b6000611923826118f8565b9050919050565b61193381611918565b811461193e57600080fd5b50565b6000813590506119508161192a565b92915050565b60006020828403121561196c5761196b6118ee565b5b600061197a84828501611941565b91505092915050565b6000819050919050565b61199681611983565b82525050565b600081519050919050565b600082825260208201905092915050565b60005b838110156119d65780820151818401526020810190506119bb565b838111156119e5576000848401525b50505050565b6000601f19601f8301169050919050565b6000611a078261199c565b611a1181856119a7565b9350611a218185602086016119b8565b611a2a816119eb565b840191505092915050565b600061012082019050611a4b600083018c61198d565b8181036020830152611a5d818b6119fc565b90508181036040830152611a71818a6119fc565b90508181036060830152611a8581896119fc565b90508181036080830152611a9981886119fc565b905081810360a0830152611aad81876119fc565b905081810360c0830152611ac181866119fc565b905081810360e0830152611ad581856119fc565b9050818103610100830152611aea81846119fc565b90509a9950505050505050505050565b6000602082019050611b0f600083018461198d565b92915050565b600080fd5b600080fd5b7f4e487b7100000000000000000000000000000000000000000000000000000000600052604160045260246000fd5b611b57826119eb565b810181811067ffffffffffffffff82111715611b7657611b75611b1f565b5b80604052505050565b6000611b896118e4565b9050611b958282611b4e565b919050565b600067ffffffffffffffff821115611bb557611bb4611b1f565b5b611bbe826119eb565b9050602081019050919050565b82818337600083830152505050565b6000611bed611be884611b9a565b611b7f565b905082815260208101848484011115611c0957611c08611b1a565b5b611c14848285611bcb565b509392505050565b600082601f830112611c3157611c30611b15565b5b8135611c41848260208601611bda565b91505092915050565b600080600080600080600080610100898b031215611c6b57611c6a6118ee565b5b600089013567ffffffffffffffff811115611c8957611c886118f3565b5b611c958b828c01611c1c565b985050602089013567ffffffffffffffff811115611cb657611cb56118f3565b5b611cc28b828c01611c1c565b975050604089013567ffffffffffffffff811115611ce357611ce26118f3565b5b611cef8b828c01611c1c565b965050606089013567ffffffffffffffff811115611d1057611d0f6118f3565b5b611d1c8b828c01611c1c565b955050608089013567ffffffffffffffff811115611d3d57611d3c6118f3565b5b611d498b828c01611c1c565b94505060a089013567ffffffffffffffff811115611d6a57611d696118f3565b5b611d768b828c01611c1c565b93505060c089013567ffffffffffffffff811115611d9757611d966118f3565b5b611da38b828c01611c1c565b92505060e089013567ffffffffffffffff811115611dc457611dc36118f3565b5b611dd08b828c01611c1c565b9150509295985092959890939650565b600080600080600080600080610100898b031215611e0157611e006118ee565b5b6000611e0f8b828c01611941565b985050602089013567ffffffffffffffff811115611e3057611e2f6118f3565b5b611e3c8b828c01611c1c565b975050604089013567ffffffffffffffff811115611e5d57611e5c6118f3565b5b611e698b828c01611c1c565b965050606089013567ffffffffffffffff811115611e8a57611e896118f3565b5b611e968b828c01611c1c565b955050608089013567ffffffffffffffff811115611eb757611eb66118f3565b5b611ec38b828c01611c1c565b94505060a089013567ffffffffffffffff811115611ee457611ee36118f3565b5b611ef08b828c01611c1c565b93505060c089013567ffffffffffffffff811115611f1157611f106118f3565b5b611f1d8b828c01611c1c565b92505060e089013567ffffffffffffffff811115611f3e57611f3d6118f3565b5b611f4a8b828c01611c1c565b9150509295985092959890939650565b600081519050919050565b600082825260208201905092915050565b6000819050602082019050919050565b600082825260208201905092915050565b6000611fa28261199c565b611fac8185611f86565b9350611fbc8185602086016119b8565b611fc5816119eb565b840191505092915050565b600060e0830160008301518482036000860152611fed8282611f97565b915050602083015184820360208601526120078282611f97565b915050604083015184820360408601526120218282611f97565b9150506060830151848203606086015261203b8282611f97565b915050608083015184820360808601526120558282611f97565b91505060a083015184820360a086015261206f8282611f97565b91505060c083015184820360c08601526120898282611f97565b9150508091505092915050565b60006120a28383611fd0565b905092915050565b6000602082019050919050565b60006120c282611f5a565b6120cc8185611f65565b9350836020820285016120de85611f76565b8060005b8581101561211a57848403895281516120fb8582612096565b9450612106836120aa565b925060208a019950506001810190506120e2565b50829750879550505050505092915050565b6000602082019050818103600083015261214681846120b7565b905092915050565b7f50617469656e74206973206e6f74207265676973746572656400000000000000600082015250565b60006121846019836119a7565b915061218f8261214e565b602082019050919050565b600060208201905081810360008301526121b381612177565b9050919050565b7f4e487b7100000000000000000000000000000000000000000000000000000000600052602260045260246000fd5b6000600282049050600182168061220157607f821691505b60208210811415612215576122146121ba565b5b50919050565b7f50617469656e7420697320616c72656164792072656769737465726564000000600082015250565b6000612251601d836119a7565b915061225c8261221b565b602082019050919050565b6000602082019050818103600083015261228081612244565b9050919050565b7f4e487b7100000000000000000000000000000000000000000000000000000000600052601160045260246000fd5b60006122c182611983565b91506122cc83611983565b9250827fffffffffffffffffffffffffffffffffffffffffffffffffffffffffffffffff0382111561230157612300612287565b5b828201905092915050565b7f50617469656e7420646f6573206e6f74206861766520616e79207265706f727460008201527f7300000000000000000000000000000000000000000000000000000000000000602082015250565b60006123686021836119a7565b91506123738261230c565b604082019050919050565b600060208201905081810360008301526123978161235b565b905091905056fea264697066735822122066cb77084b44496c49072cabdbd5abfb6384413a4425eafcdde385fa5232dd3c64736f6c634300080b0033",
  "immutableReferences": {},
  "source": "pragma solidity ^0.8.0;\r\npragma experimental ABIEncoderV2;\r\n\r\ncontract Government {\r\n  uint256 public governmentListIndex;\r\n  mapping(address => bool) isGovernment;\r\n\r\n  struct ActionPlan {\r\n    string actionPlanCreationDate;\r\n    string actionPlanDescription;\r\n    string clinicalOutcome;\r\n    string contributingFactors;\r\n    string suspectedMedication;\r\n    string actionToTake;\r\n    string medicalCompanyInvolved;\r\n    string ipfsHash;\r\n  }\r\n\r\n  struct government {\r\n    uint256 id;\r\n    string name;\r\n    string country;\r\n    string phone;\r\n    string email;\r\n    string locationAddress;\r\n    ActionPlan[] actionPlans;\r\n    address addr;\r\n    bool isApproved;\r\n  }\r\n\r\n  mapping(address => government) governments;\r\n  address[] public governmentList;\r\n\r\n  function addGovernment(\r\n    string memory _name,\r\n    string memory _country,\r\n    string memory _phone,\r\n    string memory _email,\r\n    string memory _locationAddress,\r\n    address _addr\r\n  ) public {\r\n    require(!isGovernment[_addr], \"Government is already registered\");\r\n    governmentList.push(_addr);\r\n    governmentListIndex = governmentListIndex + 1;\r\n    isGovernment[_addr] = true;\r\n    governments[_addr].id = governmentListIndex;\r\n    governments[_addr].name = _name;\r\n    governments[_addr].country = _country;\r\n    governments[_addr].phone = _phone;\r\n    governments[_addr].email = _email;\r\n    governments[_addr].locationAddress = _locationAddress;\r\n    governments[_addr].addr = _addr;\r\n    governments[_addr].isApproved = true;\r\n  }\r\n\r\n  function getGovernmentById(uint256 _id)\r\n    public\r\n    view\r\n    returns (\r\n      uint256 id,\r\n      string memory name,\r\n      string memory country,\r\n      string memory phone,\r\n      string memory email,\r\n      string memory locationAddress,\r\n      address addr,\r\n      bool isApproved\r\n    )\r\n  {\r\n    uint256 i = 0;\r\n    for (; i < governmentList.length; i++) {\r\n      if (governments[governmentList[i]].id == _id) {\r\n        break;\r\n      }\r\n    }\r\n    require(\r\n      governments[governmentList[i]].id == _id,\r\n      \"Government could not be found with the given ID\"\r\n    );\r\n    government memory matchedEntry = governments[governmentList[i]];\r\n    return (\r\n      matchedEntry.id,\r\n      matchedEntry.name,\r\n      matchedEntry.country,\r\n      matchedEntry.phone,\r\n      matchedEntry.email,\r\n      matchedEntry.locationAddress,\r\n      matchedEntry.addr,\r\n      matchedEntry.isApproved\r\n    );\r\n  }\r\n\r\n  function getGovernmentProfile(address _address)\r\n    public\r\n    view\r\n    returns (\r\n      uint256 id,\r\n      string memory name,\r\n      string memory country,\r\n      string memory phone,\r\n      string memory email,\r\n      string memory locationAddress,\r\n      address addr,\r\n      bool isApproved\r\n    )\r\n  {\r\n    require(\r\n      governments[_address].isApproved,\r\n      \"Government is not approved or government does not exist\"\r\n    );\r\n    government memory matchedEntry = governments[_address];\r\n    return (\r\n      matchedEntry.id,\r\n      matchedEntry.name,\r\n      matchedEntry.country,\r\n      matchedEntry.phone,\r\n      matchedEntry.email,\r\n      matchedEntry.locationAddress,\r\n      matchedEntry.addr,\r\n      matchedEntry.isApproved\r\n    );\r\n  }\r\n\r\n  function addGovernmentActionPlan(\r\n    address _addr,\r\n    string memory _actionPlanCreationDate,\r\n    string memory _actionPlanDescription,\r\n    string memory _clinicalOutcome,\r\n    string memory _contributingFactors,\r\n    string memory _suspectedMedication,\r\n    string memory _actionToTake,\r\n    string memory _medicalCompanyInvolved,\r\n    string memory _ipfsHash\r\n  ) public {\r\n    require(isGovernment[_addr], \"Government is not registered\");\r\n    governments[_addr].actionPlans.push(\r\n      ActionPlan(\r\n        _actionPlanCreationDate,\r\n        _actionPlanDescription,\r\n        _clinicalOutcome,\r\n        _contributingFactors,\r\n        _suspectedMedication,\r\n        _actionToTake,\r\n        _medicalCompanyInvolved,\r\n        _ipfsHash\r\n      )\r\n    );\r\n  }\r\n\r\n  function getGovernmentActionPlans(address _addr)\r\n    public\r\n    view\r\n    returns (ActionPlan[] memory _actionPlans)\r\n  {\r\n    require(isGovernment[_addr], \"Government is not registered\");\r\n    require(\r\n      governments[_addr].actionPlans.length > 0,\r\n      \"Government does not have any action plans\"\r\n    );\r\n    return (governments[_addr].actionPlans);\r\n  }\r\n}\r\n\r\ncontract MedicalCompany {\r\n  uint256 public medicalCompanyListIndex;\r\n\r\n  mapping(address => bool) isMedicalCompany;\r\n\r\n  struct medicalCompany {\r\n    uint256 id;\r\n    string companyName;\r\n    string companyType;\r\n    string phone;\r\n    string email;\r\n    string locationAddress;\r\n    address addr;\r\n    bool isApproved;\r\n  }\r\n\r\n  mapping(address => medicalCompany) medicalCompanies;\r\n  address[] public medicalCompanyList;\r\n\r\n  function addMedicalCompany(\r\n    string memory _companyName,\r\n    string memory _companyType,\r\n    string memory _phone,\r\n    string memory _email,\r\n    string memory _locationAddress,\r\n    address _addr\r\n  ) public {\r\n    require(!isMedicalCompany[_addr], \"MedicalCompany is already registered\");\r\n    medicalCompanyList.push(_addr);\r\n    medicalCompanyListIndex = medicalCompanyListIndex + 1;\r\n    isMedicalCompany[_addr] = true;\r\n    medicalCompanies[_addr] = medicalCompany(\r\n      medicalCompanyListIndex,\r\n      _companyName,\r\n      _companyType,\r\n      _phone,\r\n      _email,\r\n      _locationAddress,\r\n      _addr,\r\n      true\r\n    );\r\n  }\r\n\r\n  function getMedicalCompanyById(uint256 _id)\r\n    public\r\n    view\r\n    returns (\r\n      uint256 id,\r\n      string memory companyName,\r\n      string memory companyType,\r\n      string memory phone,\r\n      string memory email,\r\n      string memory locationAddress,\r\n      address addr,\r\n      bool isApproved\r\n    )\r\n  {\r\n    uint256 i = 0;\r\n    for (; i < medicalCompanyList.length; i++) {\r\n      if (medicalCompanies[medicalCompanyList[i]].id == _id) {\r\n        break;\r\n      }\r\n    }\r\n    require(\r\n      medicalCompanies[medicalCompanyList[i]].id == _id,\r\n      \"MedicalCompany could not be found with the given ID\"\r\n    );\r\n    medicalCompany memory matchedEntry = medicalCompanies[\r\n      medicalCompanyList[i]\r\n    ];\r\n    return (\r\n      matchedEntry.id,\r\n      matchedEntry.companyName,\r\n      matchedEntry.companyType,\r\n      matchedEntry.phone,\r\n      matchedEntry.email,\r\n      matchedEntry.locationAddress,\r\n      matchedEntry.addr,\r\n      matchedEntry.isApproved\r\n    );\r\n  }\r\n\r\n  function getMedicalCompanyProfile(address _address)\r\n    public\r\n    view\r\n    returns (\r\n      uint256 id,\r\n      string memory companyName,\r\n      string memory companyType,\r\n      string memory phone,\r\n      string memory email,\r\n      string memory locationAddress,\r\n      address addr,\r\n      bool isApproved\r\n    )\r\n  {\r\n    require(\r\n      medicalCompanies[_address].isApproved,\r\n      \"MedicalCompany is not approved or medicalCompany does not exist\"\r\n    );\r\n    medicalCompany memory matchedEntry = medicalCompanies[_address];\r\n    return (\r\n      matchedEntry.id,\r\n      matchedEntry.companyName,\r\n      matchedEntry.companyType,\r\n      matchedEntry.phone,\r\n      matchedEntry.email,\r\n      matchedEntry.locationAddress,\r\n      matchedEntry.addr,\r\n      matchedEntry.isApproved\r\n    );\r\n  }\r\n}\r\n\r\ncontract Patient {\r\n  uint256 public patientListIndex = 0;\r\n\r\n  struct Report {\r\n    string incidentDate;\r\n    string incidentDescription;\r\n    string incidentCategory;\r\n    string careSetting;\r\n    string medicationTaken;\r\n    string medicalCompanyInvolved;\r\n    string ipfsHash;\r\n  }\r\n\r\n  struct patient {\r\n    uint256 id;\r\n    string firstName;\r\n    string lastName;\r\n    string phone;\r\n    string email;\r\n    string gender;\r\n    string dateOfBirth;\r\n    string bloodType;\r\n    string homeAddress;\r\n    Report[] reports;\r\n    address addr;\r\n  }\r\n\r\n  address[] private patientList;\r\n  // mapping(address => mapping(address => bool)) isAuth;\r\n  mapping(address => patient) patients;\r\n  mapping(address => bool) isPatient;\r\n\r\n  function addPatient(\r\n    string memory _firstName,\r\n    string memory _lastName,\r\n    string memory _phone,\r\n    string memory _email,\r\n    string memory _gender,\r\n    string memory _dateOfBirth,\r\n    string memory _bloodType,\r\n    string memory _homeAddress\r\n  ) public {\r\n    require(!isPatient[msg.sender], \"Patient is already registered\");\r\n    patientList.push(msg.sender);\r\n    patientListIndex = patientListIndex + 1;\r\n    isPatient[msg.sender] = true;\r\n    patients[msg.sender].id = patientListIndex;\r\n    patients[msg.sender].firstName = _firstName;\r\n    patients[msg.sender].lastName = _lastName;\r\n    patients[msg.sender].phone = _phone;\r\n    patients[msg.sender].email = _email;\r\n    patients[msg.sender].gender = _gender;\r\n    patients[msg.sender].dateOfBirth = _dateOfBirth;\r\n    patients[msg.sender].bloodType = _bloodType;\r\n    patients[msg.sender].homeAddress = _homeAddress;\r\n    patients[msg.sender].addr = msg.sender;\r\n  }\r\n\r\n  function getPatientProfile(address _addr)\r\n    public\r\n    view\r\n    returns (\r\n      uint256 _id,\r\n      string memory _firstName,\r\n      string memory _lastName,\r\n      string memory _phone,\r\n      string memory _email,\r\n      string memory _gender,\r\n      string memory _dateOfBirth,\r\n      string memory _bloodType,\r\n      string memory _homeAddress\r\n    )\r\n  {\r\n    require(isPatient[_addr], \"Patient is not registered\");\r\n    patient memory matchedEntry = patients[_addr];\r\n    return (\r\n      matchedEntry.id,\r\n      matchedEntry.firstName,\r\n      matchedEntry.lastName,\r\n      matchedEntry.phone,\r\n      matchedEntry.email,\r\n      matchedEntry.gender,\r\n      matchedEntry.dateOfBirth,\r\n      matchedEntry.bloodType,\r\n      matchedEntry.homeAddress\r\n    );\r\n  }\r\n\r\n  function addPatientReport(\r\n    address _addr,\r\n    string memory _incidentDate,\r\n    string memory _incidentDescription,\r\n    string memory _incidentCategory,\r\n    string memory _careSetting,\r\n    string memory _medicationTaken,\r\n    string memory _medicalCompanyInvolved,\r\n    string memory _ipfsHash\r\n  ) public {\r\n    require(isPatient[_addr], \"Patient is not registered\");\r\n    patients[_addr].reports.push(\r\n      Report(\r\n        _incidentDate,\r\n        _incidentDescription,\r\n        _incidentCategory,\r\n        _careSetting,\r\n        _medicationTaken,\r\n        _medicalCompanyInvolved,\r\n        _ipfsHash\r\n      )\r\n    );\r\n  }\r\n\r\n  function getPatientReports(address _addr)\r\n    public\r\n    view\r\n    returns (Report[] memory _reports)\r\n  {\r\n    require(isPatient[_addr], \"Patient is not registered\");\r\n    require(\r\n      patients[_addr].reports.length > 0,\r\n      \"Patient does not have any reports\"\r\n    );\r\n    return (patients[_addr].reports);\r\n  }\r\n}\r\n",
  "sourcePath": "C:\\Users\\Phillip\\Documents\\GitHub\\blockchain-in-phr\\contracts\\Contract.sol",
  "compiler": {
    "name": "solc",
    "version": "0.8.11+commit.d7f03943.Emscripten.clang"
  },
  "schemaVersion": "3.4.4",
  "updatedAt": "2022-11-08T06:01:08.063Z",
  "devdoc": {
    "kind": "dev",
    "methods": {},
    "version": 1
  },
  "userdoc": {
    "kind": "user",
    "methods": {},
    "version": 1
  }
}